{
  "_format": "hh-sol-artifact-1",
  "contractName": "NFT721Test",
  "sourceName": "contracts/NFT721Test.sol",
  "abi": [
    {
      "inputs": [],
      "stateMutability": "nonpayable",
      "type": "constructor"
    },
    {
      "anonymous": false,
      "inputs": [
        {
          "indexed": true,
          "internalType": "address",
          "name": "owner",
          "type": "address"
        },
        {
          "indexed": true,
          "internalType": "address",
          "name": "approved",
          "type": "address"
        },
        {
          "indexed": true,
          "internalType": "uint256",
          "name": "tokenId",
          "type": "uint256"
        }
      ],
      "name": "Approval",
      "type": "event"
    },
    {
      "anonymous": false,
      "inputs": [
        {
          "indexed": true,
          "internalType": "address",
          "name": "owner",
          "type": "address"
        },
        {
          "indexed": true,
          "internalType": "address",
          "name": "operator",
          "type": "address"
        },
        {
          "indexed": false,
          "internalType": "bool",
          "name": "approved",
          "type": "bool"
        }
      ],
      "name": "ApprovalForAll",
      "type": "event"
    },
    {
      "anonymous": false,
      "inputs": [
        {
          "indexed": true,
          "internalType": "address",
          "name": "previousOwner",
          "type": "address"
        },
        {
          "indexed": true,
          "internalType": "address",
          "name": "newOwner",
          "type": "address"
        }
      ],
      "name": "OwnershipTransferred",
      "type": "event"
    },
    {
      "anonymous": false,
      "inputs": [
        {
          "indexed": true,
          "internalType": "address",
          "name": "from",
          "type": "address"
        },
        {
          "indexed": true,
          "internalType": "address",
          "name": "to",
          "type": "address"
        },
        {
          "indexed": true,
          "internalType": "uint256",
          "name": "tokenId",
          "type": "uint256"
        }
      ],
      "name": "Transfer",
      "type": "event"
    },
    {
      "inputs": [
        {
          "internalType": "uint256",
          "name": "collectionId",
          "type": "uint256"
        },
        {
          "internalType": "uint256",
          "name": "accruedExperience",
          "type": "uint256"
        }
      ],
      "name": "addCollectionExperience",
      "outputs": [],
      "stateMutability": "nonpayable",
      "type": "function"
    },
    {
      "inputs": [
        {
          "internalType": "address",
          "name": "to",
          "type": "address"
        },
        {
          "internalType": "uint256",
          "name": "tokenId",
          "type": "uint256"
        }
      ],
      "name": "approve",
      "outputs": [],
      "stateMutability": "nonpayable",
      "type": "function"
    },
    {
      "inputs": [
        {
          "internalType": "address",
          "name": "owner",
          "type": "address"
        }
      ],
      "name": "balanceOf",
      "outputs": [
        {
          "internalType": "uint256",
          "name": "",
          "type": "uint256"
        }
      ],
      "stateMutability": "view",
      "type": "function"
    },
    {
      "inputs": [
        {
          "internalType": "uint256",
          "name": "tokenId",
          "type": "uint256"
        }
      ],
      "name": "getApproved",
      "outputs": [
        {
          "internalType": "address",
          "name": "",
          "type": "address"
        }
      ],
      "stateMutability": "view",
      "type": "function"
    },
    {
      "inputs": [
        {
          "internalType": "uint256",
          "name": "collectionId",
          "type": "uint256"
        }
      ],
      "name": "getCollectionExperience",
      "outputs": [
        {
          "internalType": "uint256",
          "name": "",
          "type": "uint256"
        }
      ],
      "stateMutability": "view",
      "type": "function"
    },
    {
      "inputs": [
        {
          "internalType": "address",
          "name": "owner",
          "type": "address"
        },
        {
          "internalType": "address",
          "name": "operator",
          "type": "address"
        }
      ],
      "name": "isApprovedForAll",
      "outputs": [
        {
          "internalType": "bool",
          "name": "",
          "type": "bool"
        }
      ],
      "stateMutability": "view",
      "type": "function"
    },
    {
      "inputs": [
        {
          "internalType": "address",
          "name": "to",
          "type": "address"
        }
      ],
      "name": "mint",
      "outputs": [],
      "stateMutability": "nonpayable",
      "type": "function"
    },
    {
      "inputs": [],
      "name": "name",
      "outputs": [
        {
          "internalType": "string",
          "name": "",
          "type": "string"
        }
      ],
      "stateMutability": "view",
      "type": "function"
    },
    {
      "inputs": [],
      "name": "owner",
      "outputs": [
        {
          "internalType": "address",
          "name": "",
          "type": "address"
        }
      ],
      "stateMutability": "view",
      "type": "function"
    },
    {
      "inputs": [
        {
          "internalType": "uint256",
          "name": "tokenId",
          "type": "uint256"
        }
      ],
      "name": "ownerOf",
      "outputs": [
        {
          "internalType": "address",
          "name": "",
          "type": "address"
        }
      ],
      "stateMutability": "view",
      "type": "function"
    },
    {
      "inputs": [],
      "name": "renounceOwnership",
      "outputs": [],
      "stateMutability": "nonpayable",
      "type": "function"
    },
    {
      "inputs": [
        {
          "internalType": "address",
          "name": "from",
          "type": "address"
        },
        {
          "internalType": "address",
          "name": "to",
          "type": "address"
        },
        {
          "internalType": "uint256",
          "name": "tokenId",
          "type": "uint256"
        }
      ],
      "name": "safeTransferFrom",
      "outputs": [],
      "stateMutability": "nonpayable",
      "type": "function"
    },
    {
      "inputs": [
        {
          "internalType": "address",
          "name": "from",
          "type": "address"
        },
        {
          "internalType": "address",
          "name": "to",
          "type": "address"
        },
        {
          "internalType": "uint256",
          "name": "tokenId",
          "type": "uint256"
        },
        {
          "internalType": "bytes",
          "name": "_data",
          "type": "bytes"
        }
      ],
      "name": "safeTransferFrom",
      "outputs": [],
      "stateMutability": "nonpayable",
      "type": "function"
    },
    {
      "inputs": [
        {
          "internalType": "address",
          "name": "operator",
          "type": "address"
        },
        {
          "internalType": "bool",
          "name": "approved",
          "type": "bool"
        }
      ],
      "name": "setApprovalForAll",
      "outputs": [],
      "stateMutability": "nonpayable",
      "type": "function"
    },
    {
      "inputs": [
        {
          "internalType": "uint256",
          "name": "collectionId",
          "type": "uint256"
        },
        {
          "internalType": "uint8",
          "name": "rarity",
          "type": "uint8"
        }
      ],
      "name": "setCollectionRarity",
      "outputs": [],
      "stateMutability": "nonpayable",
      "type": "function"
    },
    {
      "inputs": [
        {
          "internalType": "bytes4",
          "name": "interfaceId",
          "type": "bytes4"
        }
      ],
      "name": "supportsInterface",
      "outputs": [
        {
          "internalType": "bool",
          "name": "",
          "type": "bool"
        }
      ],
      "stateMutability": "view",
      "type": "function"
    },
    {
      "inputs": [],
      "name": "symbol",
      "outputs": [
        {
          "internalType": "string",
          "name": "",
          "type": "string"
        }
      ],
      "stateMutability": "view",
      "type": "function"
    },
    {
      "inputs": [
        {
          "internalType": "uint256",
          "name": "index",
          "type": "uint256"
        }
      ],
      "name": "tokenByIndex",
      "outputs": [
        {
          "internalType": "uint256",
          "name": "",
          "type": "uint256"
        }
      ],
      "stateMutability": "view",
      "type": "function"
    },
    {
      "inputs": [
        {
          "internalType": "address",
          "name": "owner",
          "type": "address"
        },
        {
          "internalType": "uint256",
          "name": "index",
          "type": "uint256"
        }
      ],
      "name": "tokenOfOwnerByIndex",
      "outputs": [
        {
          "internalType": "uint256",
          "name": "",
          "type": "uint256"
        }
      ],
      "stateMutability": "view",
      "type": "function"
    },
    {
      "inputs": [
        {
          "internalType": "uint256",
          "name": "tokenId",
          "type": "uint256"
        }
      ],
      "name": "tokenURI",
      "outputs": [
        {
          "internalType": "string",
          "name": "",
          "type": "string"
        }
      ],
      "stateMutability": "view",
      "type": "function"
    },
    {
      "inputs": [],
      "name": "totalSupply",
      "outputs": [
        {
          "internalType": "uint256",
          "name": "",
          "type": "uint256"
        }
      ],
      "stateMutability": "view",
      "type": "function"
    },
    {
      "inputs": [
        {
          "internalType": "address",
          "name": "from",
          "type": "address"
        },
        {
          "internalType": "address",
          "name": "to",
          "type": "address"
        },
        {
          "internalType": "uint256",
          "name": "tokenId",
          "type": "uint256"
        }
      ],
      "name": "transferFrom",
      "outputs": [],
      "stateMutability": "nonpayable",
      "type": "function"
    },
    {
      "inputs": [
        {
          "internalType": "address",
          "name": "newOwner",
          "type": "address"
        }
      ],
      "name": "transferOwnership",
      "outputs": [],
      "stateMutability": "nonpayable",
      "type": "function"
    },
    {
      "inputs": [
        {
          "internalType": "uint256",
          "name": "collectionId",
          "type": "uint256"
        }
      ],
      "name": "viewCollectionRarity",
      "outputs": [
        {
          "internalType": "uint8",
          "name": "",
          "type": "uint8"
        }
      ],
      "stateMutability": "view",
      "type": "function"
    }
  ],
  "bytecode": "0x60806040523480156200001157600080fd5b506040518060400160405280600481526020017f4c4d414f000000000000000000000000000000000000000000000000000000008152506040518060400160405280600381526020017f4c4f4c0000000000000000000000000000000000000000000000000000000000815250816000908051906020019062000096929190620001a6565b508060019080519060200190620000af929190620001a6565b505050620000d2620000c6620000d860201b60201c565b620000e060201b60201c565b620002bb565b600033905090565b6000600a60009054906101000a900473ffffffffffffffffffffffffffffffffffffffff16905081600a60006101000a81548173ffffffffffffffffffffffffffffffffffffffff021916908373ffffffffffffffffffffffffffffffffffffffff1602179055508173ffffffffffffffffffffffffffffffffffffffff168173ffffffffffffffffffffffffffffffffffffffff167f8be0079c531659141344cd1fd0a4f28419497f9722a3daafe3b4186f6b6457e060405160405180910390a35050565b828054620001b49062000256565b90600052602060002090601f016020900481019282620001d8576000855562000224565b82601f10620001f357805160ff191683800117855562000224565b8280016001018555821562000224579182015b828111156200022357825182559160200191906001019062000206565b5b50905062000233919062000237565b5090565b5b808211156200025257600081600090555060010162000238565b5090565b600060028204905060018216806200026f57607f821691505b602082108114156200028657620002856200028c565b5b50919050565b7f4e487b7100000000000000000000000000000000000000000000000000000000600052602260045260246000fd5b61357980620002cb6000396000f3fe608060405234801561001057600080fd5b50600436106101585760003560e01c806370a08231116100c3578063bef5ccd81161007c578063bef5ccd8146103d7578063c87b56dd14610407578063da98608514610437578063db4ba28b14610453578063e985e9c51461046f578063f2fde38b1461049f57610158565b806370a0823114610329578063715018a6146103595780638da5cb5b1461036357806395d89b4114610381578063a22cb4651461039f578063b88d4fde146103bb57610158565b80632f745c59116101155780632f745c59146102315780633efd73cc1461026157806342842e0e146102915780634f6ccce7146102ad5780636352211e146102dd5780636a6278421461030d57610158565b806301ffc9a71461015d57806306fdde031461018d578063081812fc146101ab578063095ea7b3146101db57806318160ddd146101f757806323b872dd14610215575b600080fd5b61017760048036038101906101729190612493565b6104bb565b6040516101849190612966565b60405180910390f35b610195610535565b6040516101a29190612981565b60405180910390f35b6101c560048036038101906101c091906124e5565b6105c7565b6040516101d291906128ff565b60405180910390f35b6101f560048036038101906101f09190612457565b61064c565b005b6101ff610764565b60405161020c9190612be3565b60405180910390f35b61022f600480360381019061022a9190612351565b610771565b005b61024b60048036038101906102469190612457565b6107d1565b6040516102589190612be3565b60405180910390f35b61027b600480360381019061027691906124e5565b610876565b6040516102889190612be3565b60405180910390f35b6102ab60048036038101906102a69190612351565b610893565b005b6102c760048036038101906102c291906124e5565b6108b3565b6040516102d49190612be3565b60405180910390f35b6102f760048036038101906102f291906124e5565b61094a565b60405161030491906128ff565b60405180910390f35b610327600480360381019061032291906122ec565b6109fc565b005b610343600480360381019061033e91906122ec565b610a23565b6040516103509190612be3565b60405180910390f35b610361610adb565b005b61036b610b63565b60405161037891906128ff565b60405180910390f35b610389610b8d565b6040516103969190612981565b60405180910390f35b6103b960048036038101906103b4919061241b565b610c1f565b005b6103d560048036038101906103d091906123a0565b610c35565b005b6103f160048036038101906103ec91906124e5565b610c97565b6040516103fe9190612bfe565b60405180910390f35b610421600480360381019061041c91906124e5565b610cc1565b60405161042e9190612981565b60405180910390f35b610451600480360381019061044c919061254a565b610d68565b005b61046d6004803603810190610468919061250e565b610d98565b005b61048960048036038101906104849190612315565b610dc6565b6040516104969190612966565b60405180910390f35b6104b960048036038101906104b491906122ec565b610e5a565b005b60007f780e9d63000000000000000000000000000000000000000000000000000000007bffffffffffffffffffffffffffffffffffffffffffffffffffffffff1916827bffffffffffffffffffffffffffffffffffffffffffffffffffffffff1916148061052e575061052d82610f52565b5b9050919050565b60606000805461054490612e30565b80601f016020809104026020016040519081016040528092919081815260200182805461057090612e30565b80156105bd5780601f10610592576101008083540402835291602001916105bd565b820191906000526020600020905b8154815290600101906020018083116105a057829003601f168201915b5050505050905090565b60006105d282611034565b610611576040517f08c379a000000000000000000000000000000000000000000000000000000000815260040161060890612b23565b60405180910390fd5b6004600083815260200190815260200160002060009054906101000a900473ffffffffffffffffffffffffffffffffffffffff169050919050565b60006106578261094a565b90508073ffffffffffffffffffffffffffffffffffffffff168373ffffffffffffffffffffffffffffffffffffffff1614156106c8576040517f08c379a00000000000000000000000000000000000000000000000000000000081526004016106bf90612b83565b60405180910390fd5b8073ffffffffffffffffffffffffffffffffffffffff166106e76110a0565b73ffffffffffffffffffffffffffffffffffffffff1614806107165750610715816107106110a0565b610dc6565b5b610755576040517f08c379a000000000000000000000000000000000000000000000000000000000815260040161074c90612aa3565b60405180910390fd5b61075f83836110a8565b505050565b6000600880549050905090565b61078261077c6110a0565b82611161565b6107c1576040517f08c379a00000000000000000000000000000000000000000000000000000000081526004016107b890612ba3565b60405180910390fd5b6107cc83838361123f565b505050565b60006107dc83610a23565b821061081d576040517f08c379a0000000000000000000000000000000000000000000000000000000008152600401610814906129a3565b60405180910390fd5b600660008473ffffffffffffffffffffffffffffffffffffffff1673ffffffffffffffffffffffffffffffffffffffff168152602001908152602001600020600083815260200190815260200160002054905092915050565b6000600c6000838152602001908152602001600020549050919050565b6108ae83838360405180602001604052806000815250610c35565b505050565b60006108bd610764565b82106108fe576040517f08c379a00000000000000000000000000000000000000000000000000000000081526004016108f590612bc3565b60405180910390fd5b60088281548110610938577f4e487b7100000000000000000000000000000000000000000000000000000000600052603260045260246000fd5b90600052602060002001549050919050565b6000806002600084815260200190815260200160002060009054906101000a900473ffffffffffffffffffffffffffffffffffffffff169050600073ffffffffffffffffffffffffffffffffffffffff168173ffffffffffffffffffffffffffffffffffffffff1614156109f3576040517f08c379a00000000000000000000000000000000000000000000000000000000081526004016109ea90612ae3565b60405180910390fd5b80915050919050565b600d6000815480929190610a0f90612e93565b9190505550610a2081600d546114a6565b50565b60008073ffffffffffffffffffffffffffffffffffffffff168273ffffffffffffffffffffffffffffffffffffffff161415610a94576040517f08c379a0000000000000000000000000000000000000000000000000000000008152600401610a8b90612ac3565b60405180910390fd5b600360008373ffffffffffffffffffffffffffffffffffffffff1673ffffffffffffffffffffffffffffffffffffffff168152602001908152602001600020549050919050565b610ae36110a0565b73ffffffffffffffffffffffffffffffffffffffff16610b01610b63565b73ffffffffffffffffffffffffffffffffffffffff1614610b57576040517f08c379a0000000000000000000000000000000000000000000000000000000008152600401610b4e90612b43565b60405180910390fd5b610b6160006114c4565b565b6000600a60009054906101000a900473ffffffffffffffffffffffffffffffffffffffff16905090565b606060018054610b9c90612e30565b80601f0160208091040260200160405190810160405280929190818152602001828054610bc890612e30565b8015610c155780601f10610bea57610100808354040283529160200191610c15565b820191906000526020600020905b815481529060010190602001808311610bf857829003601f168201915b5050505050905090565b610c31610c2a6110a0565b838361158a565b5050565b610c46610c406110a0565b83611161565b610c85576040517f08c379a0000000000000000000000000000000000000000000000000000000008152600401610c7c90612ba3565b60405180910390fd5b610c91848484846116f7565b50505050565b6000600b600083815260200190815260200160002060009054906101000a900460ff169050919050565b6060610ccc82611034565b610d0b576040517f08c379a0000000000000000000000000000000000000000000000000000000008152600401610d0290612b63565b60405180910390fd5b6000610d15611753565b90506000815111610d355760405180602001604052806000815250610d60565b80610d3f8461176a565b604051602001610d509291906128db565b6040516020818303038152906040525b915050919050565b80600b600084815260200190815260200160002060006101000a81548160ff021916908360ff1602179055505050565b80600c60008481526020019081526020016000206000828254610dbb9190612cb2565b925050819055505050565b6000600560008473ffffffffffffffffffffffffffffffffffffffff1673ffffffffffffffffffffffffffffffffffffffff16815260200190815260200160002060008373ffffffffffffffffffffffffffffffffffffffff1673ffffffffffffffffffffffffffffffffffffffff16815260200190815260200160002060009054906101000a900460ff16905092915050565b610e626110a0565b73ffffffffffffffffffffffffffffffffffffffff16610e80610b63565b73ffffffffffffffffffffffffffffffffffffffff1614610ed6576040517f08c379a0000000000000000000000000000000000000000000000000000000008152600401610ecd90612b43565b60405180910390fd5b600073ffffffffffffffffffffffffffffffffffffffff168173ffffffffffffffffffffffffffffffffffffffff161415610f46576040517f08c379a0000000000000000000000000000000000000000000000000000000008152600401610f3d906129e3565b60405180910390fd5b610f4f816114c4565b50565b60007f80ac58cd000000000000000000000000000000000000000000000000000000007bffffffffffffffffffffffffffffffffffffffffffffffffffffffff1916827bffffffffffffffffffffffffffffffffffffffffffffffffffffffff1916148061101d57507f5b5e139f000000000000000000000000000000000000000000000000000000007bffffffffffffffffffffffffffffffffffffffffffffffffffffffff1916827bffffffffffffffffffffffffffffffffffffffffffffffffffffffff1916145b8061102d575061102c82611917565b5b9050919050565b60008073ffffffffffffffffffffffffffffffffffffffff166002600084815260200190815260200160002060009054906101000a900473ffffffffffffffffffffffffffffffffffffffff1673ffffffffffffffffffffffffffffffffffffffff1614159050919050565b600033905090565b816004600083815260200190815260200160002060006101000a81548173ffffffffffffffffffffffffffffffffffffffff021916908373ffffffffffffffffffffffffffffffffffffffff160217905550808273ffffffffffffffffffffffffffffffffffffffff1661111b8361094a565b73ffffffffffffffffffffffffffffffffffffffff167f8c5be1e5ebec7d5bd14f71427d1e84f3dd0314c0f7b2291e5b200ac8c7c3b92560405160405180910390a45050565b600061116c82611034565b6111ab576040517f08c379a00000000000000000000000000000000000000000000000000000000081526004016111a290612a83565b60405180910390fd5b60006111b68361094a565b90508073ffffffffffffffffffffffffffffffffffffffff168473ffffffffffffffffffffffffffffffffffffffff1614806111f857506111f78185610dc6565b5b8061123657508373ffffffffffffffffffffffffffffffffffffffff1661121e846105c7565b73ffffffffffffffffffffffffffffffffffffffff16145b91505092915050565b8273ffffffffffffffffffffffffffffffffffffffff1661125f8261094a565b73ffffffffffffffffffffffffffffffffffffffff16146112b5576040517f08c379a00000000000000000000000000000000000000000000000000000000081526004016112ac90612a03565b60405180910390fd5b600073ffffffffffffffffffffffffffffffffffffffff168273ffffffffffffffffffffffffffffffffffffffff161415611325576040517f08c379a000000000000000000000000000000000000000000000000000000000815260040161131c90612a43565b60405180910390fd5b611330838383611981565b61133b6000826110a8565b6001600360008573ffffffffffffffffffffffffffffffffffffffff1673ffffffffffffffffffffffffffffffffffffffff168152602001908152602001600020600082825461138b9190612d39565b925050819055506001600360008473ffffffffffffffffffffffffffffffffffffffff1673ffffffffffffffffffffffffffffffffffffffff16815260200190815260200160002060008282546113e29190612cb2565b92505081905550816002600083815260200190815260200160002060006101000a81548173ffffffffffffffffffffffffffffffffffffffff021916908373ffffffffffffffffffffffffffffffffffffffff160217905550808273ffffffffffffffffffffffffffffffffffffffff168473ffffffffffffffffffffffffffffffffffffffff167fddf252ad1be2c89b69c2b068fc378daa952ba7f163c4a11628f55a4df523b3ef60405160405180910390a46114a1838383611a95565b505050565b6114c0828260405180602001604052806000815250611a9a565b5050565b6000600a60009054906101000a900473ffffffffffffffffffffffffffffffffffffffff16905081600a60006101000a81548173ffffffffffffffffffffffffffffffffffffffff021916908373ffffffffffffffffffffffffffffffffffffffff1602179055508173ffffffffffffffffffffffffffffffffffffffff168173ffffffffffffffffffffffffffffffffffffffff167f8be0079c531659141344cd1fd0a4f28419497f9722a3daafe3b4186f6b6457e060405160405180910390a35050565b8173ffffffffffffffffffffffffffffffffffffffff168373ffffffffffffffffffffffffffffffffffffffff1614156115f9576040517f08c379a00000000000000000000000000000000000000000000000000000000081526004016115f090612a63565b60405180910390fd5b80600560008573ffffffffffffffffffffffffffffffffffffffff1673ffffffffffffffffffffffffffffffffffffffff16815260200190815260200160002060008473ffffffffffffffffffffffffffffffffffffffff1673ffffffffffffffffffffffffffffffffffffffff16815260200190815260200160002060006101000a81548160ff0219169083151502179055508173ffffffffffffffffffffffffffffffffffffffff168373ffffffffffffffffffffffffffffffffffffffff167f17307eab39ab6107e8899845ad3d59bd9653f200f220920489ca2b5937696c31836040516116ea9190612966565b60405180910390a3505050565b61170284848461123f565b61170e84848484611af5565b61174d576040517f08c379a0000000000000000000000000000000000000000000000000000000008152600401611744906129c3565b60405180910390fd5b50505050565b606060405180602001604052806000815250905090565b606060008214156117b2576040518060400160405280600181526020017f30000000000000000000000000000000000000000000000000000000000000008152509050611912565b600082905060005b600082146117e45780806117cd90612e93565b915050600a826117dd9190612d08565b91506117ba565b60008167ffffffffffffffff811115611826577f4e487b7100000000000000000000000000000000000000000000000000000000600052604160045260246000fd5b6040519080825280601f01601f1916602001820160405280156118585781602001600182028036833780820191505090505b5090505b6000851461190b576001826118719190612d39565b9150600a856118809190612edc565b603061188c9190612cb2565b60f81b8183815181106118c8577f4e487b7100000000000000000000000000000000000000000000000000000000600052603260045260246000fd5b60200101907effffffffffffffffffffffffffffffffffffffffffffffffffffffffffffff1916908160001a905350600a856119049190612d08565b945061185c565b8093505050505b919050565b60007f01ffc9a7000000000000000000000000000000000000000000000000000000007bffffffffffffffffffffffffffffffffffffffffffffffffffffffff1916827bffffffffffffffffffffffffffffffffffffffffffffffffffffffff1916149050919050565b61198c838383611c8c565b600073ffffffffffffffffffffffffffffffffffffffff168373ffffffffffffffffffffffffffffffffffffffff1614156119cf576119ca81611c91565b611a0e565b8173ffffffffffffffffffffffffffffffffffffffff168373ffffffffffffffffffffffffffffffffffffffff1614611a0d57611a0c8382611cda565b5b5b600073ffffffffffffffffffffffffffffffffffffffff168273ffffffffffffffffffffffffffffffffffffffff161415611a5157611a4c81611e47565b611a90565b8273ffffffffffffffffffffffffffffffffffffffff168273ffffffffffffffffffffffffffffffffffffffff1614611a8f57611a8e8282611f8a565b5b5b505050565b505050565b611aa48383612009565b611ab16000848484611af5565b611af0576040517f08c379a0000000000000000000000000000000000000000000000000000000008152600401611ae7906129c3565b60405180910390fd5b505050565b6000611b168473ffffffffffffffffffffffffffffffffffffffff166121e3565b15611c7f578373ffffffffffffffffffffffffffffffffffffffff1663150b7a02611b3f6110a0565b8786866040518563ffffffff1660e01b8152600401611b61949392919061291a565b602060405180830381600087803b158015611b7b57600080fd5b505af1925050508015611bac57506040513d601f19601f82011682018060405250810190611ba991906124bc565b60015b611c2f573d8060008114611bdc576040519150601f19603f3d011682016040523d82523d6000602084013e611be1565b606091505b50600081511415611c27576040517f08c379a0000000000000000000000000000000000000000000000000000000008152600401611c1e906129c3565b60405180910390fd5b805181602001fd5b63150b7a0260e01b7bffffffffffffffffffffffffffffffffffffffffffffffffffffffff1916817bffffffffffffffffffffffffffffffffffffffffffffffffffffffff191614915050611c84565b600190505b949350505050565b505050565b6008805490506009600083815260200190815260200160002081905550600881908060018154018082558091505060019003906000526020600020016000909190919091505550565b60006001611ce784610a23565b611cf19190612d39565b9050600060076000848152602001908152602001600020549050818114611dd6576000600660008673ffffffffffffffffffffffffffffffffffffffff1673ffffffffffffffffffffffffffffffffffffffff168152602001908152602001600020600084815260200190815260200160002054905080600660008773ffffffffffffffffffffffffffffffffffffffff1673ffffffffffffffffffffffffffffffffffffffff168152602001908152602001600020600084815260200190815260200160002081905550816007600083815260200190815260200160002081905550505b6007600084815260200190815260200160002060009055600660008573ffffffffffffffffffffffffffffffffffffffff1673ffffffffffffffffffffffffffffffffffffffff16815260200190815260200160002060008381526020019081526020016000206000905550505050565b60006001600880549050611e5b9190612d39565b9050600060096000848152602001908152602001600020549050600060088381548110611eb1577f4e487b7100000000000000000000000000000000000000000000000000000000600052603260045260246000fd5b906000526020600020015490508060088381548110611ef9577f4e487b7100000000000000000000000000000000000000000000000000000000600052603260045260246000fd5b906000526020600020018190555081600960008381526020019081526020016000208190555060096000858152602001908152602001600020600090556008805480611f6e577f4e487b7100000000000000000000000000000000000000000000000000000000600052603160045260246000fd5b6001900381819060005260206000200160009055905550505050565b6000611f9583610a23565b905081600660008573ffffffffffffffffffffffffffffffffffffffff1673ffffffffffffffffffffffffffffffffffffffff168152602001908152602001600020600083815260200190815260200160002081905550806007600084815260200190815260200160002081905550505050565b600073ffffffffffffffffffffffffffffffffffffffff168273ffffffffffffffffffffffffffffffffffffffff161415612079576040517f08c379a000000000000000000000000000000000000000000000000000000000815260040161207090612b03565b60405180910390fd5b61208281611034565b156120c2576040517f08c379a00000000000000000000000000000000000000000000000000000000081526004016120b990612a23565b60405180910390fd5b6120ce60008383611981565b6001600360008473ffffffffffffffffffffffffffffffffffffffff1673ffffffffffffffffffffffffffffffffffffffff168152602001908152602001600020600082825461211e9190612cb2565b92505081905550816002600083815260200190815260200160002060006101000a81548173ffffffffffffffffffffffffffffffffffffffff021916908373ffffffffffffffffffffffffffffffffffffffff160217905550808273ffffffffffffffffffffffffffffffffffffffff16600073ffffffffffffffffffffffffffffffffffffffff167fddf252ad1be2c89b69c2b068fc378daa952ba7f163c4a11628f55a4df523b3ef60405160405180910390a46121df60008383611a95565b5050565b6000808273ffffffffffffffffffffffffffffffffffffffff163b119050919050565b600061221961221484612c3e565b612c19565b90508281526020810184848401111561223157600080fd5b61223c848285612dee565b509392505050565b600081359050612253816134d0565b92915050565b600081359050612268816134e7565b92915050565b60008135905061227d816134fe565b92915050565b600081519050612292816134fe565b92915050565b600082601f8301126122a957600080fd5b81356122b9848260208601612206565b91505092915050565b6000813590506122d181613515565b92915050565b6000813590506122e68161352c565b92915050565b6000602082840312156122fe57600080fd5b600061230c84828501612244565b91505092915050565b6000806040838503121561232857600080fd5b600061233685828601612244565b925050602061234785828601612244565b9150509250929050565b60008060006060848603121561236657600080fd5b600061237486828701612244565b935050602061238586828701612244565b9250506040612396868287016122c2565b9150509250925092565b600080600080608085870312156123b657600080fd5b60006123c487828801612244565b94505060206123d587828801612244565b93505060406123e6878288016122c2565b925050606085013567ffffffffffffffff81111561240357600080fd5b61240f87828801612298565b91505092959194509250565b6000806040838503121561242e57600080fd5b600061243c85828601612244565b925050602061244d85828601612259565b9150509250929050565b6000806040838503121561246a57600080fd5b600061247885828601612244565b9250506020612489858286016122c2565b9150509250929050565b6000602082840312156124a557600080fd5b60006124b38482850161226e565b91505092915050565b6000602082840312156124ce57600080fd5b60006124dc84828501612283565b91505092915050565b6000602082840312156124f757600080fd5b6000612505848285016122c2565b91505092915050565b6000806040838503121561252157600080fd5b600061252f858286016122c2565b9250506020612540858286016122c2565b9150509250929050565b6000806040838503121561255d57600080fd5b600061256b858286016122c2565b925050602061257c858286016122d7565b9150509250929050565b61258f81612d6d565b82525050565b61259e81612d7f565b82525050565b60006125af82612c6f565b6125b98185612c85565b93506125c9818560208601612dfd565b6125d281612fc9565b840191505092915050565b60006125e882612c7a565b6125f28185612c96565b9350612602818560208601612dfd565b61260b81612fc9565b840191505092915050565b600061262182612c7a565b61262b8185612ca7565b935061263b818560208601612dfd565b80840191505092915050565b6000612654602b83612c96565b915061265f82612fda565b604082019050919050565b6000612677603283612c96565b915061268282613029565b604082019050919050565b600061269a602683612c96565b91506126a582613078565b604082019050919050565b60006126bd602583612c96565b91506126c8826130c7565b604082019050919050565b60006126e0601c83612c96565b91506126eb82613116565b602082019050919050565b6000612703602483612c96565b915061270e8261313f565b604082019050919050565b6000612726601983612c96565b91506127318261318e565b602082019050919050565b6000612749602c83612c96565b9150612754826131b7565b604082019050919050565b600061276c603883612c96565b915061277782613206565b604082019050919050565b600061278f602a83612c96565b915061279a82613255565b604082019050919050565b60006127b2602983612c96565b91506127bd826132a4565b604082019050919050565b60006127d5602083612c96565b91506127e0826132f3565b602082019050919050565b60006127f8602c83612c96565b91506128038261331c565b604082019050919050565b600061281b602083612c96565b91506128268261336b565b602082019050919050565b600061283e602f83612c96565b915061284982613394565b604082019050919050565b6000612861602183612c96565b915061286c826133e3565b604082019050919050565b6000612884603183612c96565b915061288f82613432565b604082019050919050565b60006128a7602c83612c96565b91506128b282613481565b604082019050919050565b6128c681612dd7565b82525050565b6128d581612de1565b82525050565b60006128e78285612616565b91506128f38284612616565b91508190509392505050565b60006020820190506129146000830184612586565b92915050565b600060808201905061292f6000830187612586565b61293c6020830186612586565b61294960408301856128bd565b818103606083015261295b81846125a4565b905095945050505050565b600060208201905061297b6000830184612595565b92915050565b6000602082019050818103600083015261299b81846125dd565b905092915050565b600060208201905081810360008301526129bc81612647565b9050919050565b600060208201905081810360008301526129dc8161266a565b9050919050565b600060208201905081810360008301526129fc8161268d565b9050919050565b60006020820190508181036000830152612a1c816126b0565b9050919050565b60006020820190508181036000830152612a3c816126d3565b9050919050565b60006020820190508181036000830152612a5c816126f6565b9050919050565b60006020820190508181036000830152612a7c81612719565b9050919050565b60006020820190508181036000830152612a9c8161273c565b9050919050565b60006020820190508181036000830152612abc8161275f565b9050919050565b60006020820190508181036000830152612adc81612782565b9050919050565b60006020820190508181036000830152612afc816127a5565b9050919050565b60006020820190508181036000830152612b1c816127c8565b9050919050565b60006020820190508181036000830152612b3c816127eb565b9050919050565b60006020820190508181036000830152612b5c8161280e565b9050919050565b60006020820190508181036000830152612b7c81612831565b9050919050565b60006020820190508181036000830152612b9c81612854565b9050919050565b60006020820190508181036000830152612bbc81612877565b9050919050565b60006020820190508181036000830152612bdc8161289a565b9050919050565b6000602082019050612bf860008301846128bd565b92915050565b6000602082019050612c1360008301846128cc565b92915050565b6000612c23612c34565b9050612c2f8282612e62565b919050565b6000604051905090565b600067ffffffffffffffff821115612c5957612c58612f9a565b5b612c6282612fc9565b9050602081019050919050565b600081519050919050565b600081519050919050565b600082825260208201905092915050565b600082825260208201905092915050565b600081905092915050565b6000612cbd82612dd7565b9150612cc883612dd7565b9250827fffffffffffffffffffffffffffffffffffffffffffffffffffffffffffffffff03821115612cfd57612cfc612f0d565b5b828201905092915050565b6000612d1382612dd7565b9150612d1e83612dd7565b925082612d2e57612d2d612f3c565b5b828204905092915050565b6000612d4482612dd7565b9150612d4f83612dd7565b925082821015612d6257612d61612f0d565b5b828203905092915050565b6000612d7882612db7565b9050919050565b60008115159050919050565b60007fffffffff0000000000000000000000000000000000000000000000000000000082169050919050565b600073ffffffffffffffffffffffffffffffffffffffff82169050919050565b6000819050919050565b600060ff82169050919050565b82818337600083830152505050565b60005b83811015612e1b578082015181840152602081019050612e00565b83811115612e2a576000848401525b50505050565b60006002820490506001821680612e4857607f821691505b60208210811415612e5c57612e5b612f6b565b5b50919050565b612e6b82612fc9565b810181811067ffffffffffffffff82111715612e8a57612e89612f9a565b5b80604052505050565b6000612e9e82612dd7565b91507fffffffffffffffffffffffffffffffffffffffffffffffffffffffffffffffff821415612ed157612ed0612f0d565b5b600182019050919050565b6000612ee782612dd7565b9150612ef283612dd7565b925082612f0257612f01612f3c565b5b828206905092915050565b7f4e487b7100000000000000000000000000000000000000000000000000000000600052601160045260246000fd5b7f4e487b7100000000000000000000000000000000000000000000000000000000600052601260045260246000fd5b7f4e487b7100000000000000000000000000000000000000000000000000000000600052602260045260246000fd5b7f4e487b7100000000000000000000000000000000000000000000000000000000600052604160045260246000fd5b6000601f19601f8301169050919050565b7f455243373231456e756d657261626c653a206f776e657220696e646578206f7560008201527f74206f6620626f756e6473000000000000000000000000000000000000000000602082015250565b7f4552433732313a207472616e7366657220746f206e6f6e20455243373231526560008201527f63656976657220696d706c656d656e7465720000000000000000000000000000602082015250565b7f4f776e61626c653a206e6577206f776e657220697320746865207a65726f206160008201527f6464726573730000000000000000000000000000000000000000000000000000602082015250565b7f4552433732313a207472616e736665722066726f6d20696e636f72726563742060008201527f6f776e6572000000000000000000000000000000000000000000000000000000602082015250565b7f4552433732313a20746f6b656e20616c7265616479206d696e74656400000000600082015250565b7f4552433732313a207472616e7366657220746f20746865207a65726f2061646460008201527f7265737300000000000000000000000000000000000000000000000000000000602082015250565b7f4552433732313a20617070726f766520746f2063616c6c657200000000000000600082015250565b7f4552433732313a206f70657261746f7220717565727920666f72206e6f6e657860008201527f697374656e7420746f6b656e0000000000000000000000000000000000000000602082015250565b7f4552433732313a20617070726f76652063616c6c6572206973206e6f74206f7760008201527f6e6572206e6f7220617070726f76656420666f7220616c6c0000000000000000602082015250565b7f4552433732313a2062616c616e636520717565727920666f7220746865207a6560008201527f726f206164647265737300000000000000000000000000000000000000000000602082015250565b7f4552433732313a206f776e657220717565727920666f72206e6f6e657869737460008201527f656e7420746f6b656e0000000000000000000000000000000000000000000000602082015250565b7f4552433732313a206d696e7420746f20746865207a65726f2061646472657373600082015250565b7f4552433732313a20617070726f76656420717565727920666f72206e6f6e657860008201527f697374656e7420746f6b656e0000000000000000000000000000000000000000602082015250565b7f4f776e61626c653a2063616c6c6572206973206e6f7420746865206f776e6572600082015250565b7f4552433732314d657461646174613a2055524920717565727920666f72206e6f60008201527f6e6578697374656e7420746f6b656e0000000000000000000000000000000000602082015250565b7f4552433732313a20617070726f76616c20746f2063757272656e74206f776e6560008201527f7200000000000000000000000000000000000000000000000000000000000000602082015250565b7f4552433732313a207472616e736665722063616c6c6572206973206e6f74206f60008201527f776e6572206e6f7220617070726f766564000000000000000000000000000000602082015250565b7f455243373231456e756d657261626c653a20676c6f62616c20696e646578206f60008201527f7574206f6620626f756e64730000000000000000000000000000000000000000602082015250565b6134d981612d6d565b81146134e457600080fd5b50565b6134f081612d7f565b81146134fb57600080fd5b50565b61350781612d8b565b811461351257600080fd5b50565b61351e81612dd7565b811461352957600080fd5b50565b61353581612de1565b811461354057600080fd5b5056fea2646970667358221220325a523b334847190df8d257549681382e7473f37d00c40adaf85f59b3c7f52664736f6c63430008040033",
  "linkReferences": {},
  "deployedLinkReferences": {}
}