{
  "_format": "hh-sol-artifact-1",
  "contractName": "FarmingBasedEXP",
  "sourceName": "contracts/FarmingBasedEXP.sol",
  "abi": [
    {
      "anonymous": false,
      "inputs": [
        {
          "indexed": true,
          "internalType": "address",
          "name": "user",
          "type": "address"
        },
        {
          "indexed": false,
          "internalType": "uint256[]",
          "name": "nftIds",
          "type": "uint256[]"
        },
        {
          "indexed": true,
          "internalType": "uint128",
          "name": "level",
          "type": "uint128"
        },
        {
          "indexed": false,
          "internalType": "uint256",
          "name": "amout",
          "type": "uint256"
        }
      ],
      "name": "ClaimReward",
      "type": "event"
    },
    {
      "anonymous": false,
      "inputs": [
        {
          "indexed": false,
          "internalType": "uint8",
          "name": "version",
          "type": "uint8"
        }
      ],
      "name": "Initialized",
      "type": "event"
    },
    {
      "anonymous": false,
      "inputs": [
        {
          "indexed": true,
          "internalType": "uint256",
          "name": "nft",
          "type": "uint256"
        },
        {
          "indexed": true,
          "internalType": "uint128",
          "name": "poolNumber",
          "type": "uint128"
        },
        {
          "indexed": false,
          "internalType": "uint256",
          "name": "index",
          "type": "uint256"
        }
      ],
      "name": "NFTIndexUpdated",
      "type": "event"
    },
    {
      "anonymous": false,
      "inputs": [
        {
          "indexed": true,
          "internalType": "address",
          "name": "previousOwner",
          "type": "address"
        },
        {
          "indexed": true,
          "internalType": "address",
          "name": "newOwner",
          "type": "address"
        }
      ],
      "name": "OwnershipTransferred",
      "type": "event"
    },
    {
      "anonymous": false,
      "inputs": [
        {
          "indexed": true,
          "internalType": "address",
          "name": "user",
          "type": "address"
        },
        {
          "indexed": false,
          "internalType": "uint256[]",
          "name": "nftIds",
          "type": "uint256[]"
        },
        {
          "indexed": false,
          "internalType": "uint128",
          "name": "level",
          "type": "uint128"
        }
      ],
      "name": "PolishNFT",
      "type": "event"
    },
    {
      "anonymous": false,
      "inputs": [
        {
          "indexed": true,
          "internalType": "uint128",
          "name": "poolNumber",
          "type": "uint128"
        },
        {
          "indexed": false,
          "internalType": "uint256",
          "name": "index",
          "type": "uint256"
        }
      ],
      "name": "PoolIndexUpdated",
      "type": "event"
    },
    {
      "anonymous": false,
      "inputs": [
        {
          "indexed": true,
          "internalType": "address",
          "name": "user",
          "type": "address"
        },
        {
          "indexed": false,
          "internalType": "uint256[]",
          "name": "nftIds",
          "type": "uint256[]"
        },
        {
          "indexed": true,
          "internalType": "uint256",
          "name": "level",
          "type": "uint256"
        },
        {
          "indexed": false,
          "internalType": "uint256",
          "name": "amount",
          "type": "uint256"
        }
      ],
      "name": "RedeemAndClaim",
      "type": "event"
    },
    {
      "anonymous": false,
      "inputs": [
        {
          "indexed": true,
          "internalType": "address",
          "name": "user",
          "type": "address"
        },
        {
          "indexed": false,
          "internalType": "uint256[]",
          "name": "nftIds",
          "type": "uint256[]"
        },
        {
          "indexed": false,
          "internalType": "uint128",
          "name": "level",
          "type": "uint128"
        }
      ],
      "name": "Stake",
      "type": "event"
    },
    {
      "inputs": [],
      "name": "PRECISION",
      "outputs": [
        {
          "internalType": "uint8",
          "name": "",
          "type": "uint8"
        }
      ],
      "stateMutability": "view",
      "type": "function"
    },
    {
      "inputs": [
        {
          "internalType": "address",
          "name": "",
          "type": "address"
        },
        {
          "internalType": "uint128",
          "name": "",
          "type": "uint128"
        }
      ],
      "name": "balances",
      "outputs": [
        {
          "internalType": "uint256",
          "name": "",
          "type": "uint256"
        }
      ],
      "stateMutability": "view",
      "type": "function"
    },
    {
      "inputs": [
        {
          "internalType": "uint256[]",
          "name": "_ids",
          "type": "uint256[]"
        },
        {
          "internalType": "uint128",
          "name": "_level",
          "type": "uint128"
        }
      ],
      "name": "claimReward",
      "outputs": [],
      "stateMutability": "nonpayable",
      "type": "function"
    },
    {
      "inputs": [],
      "name": "cooldownTime",
      "outputs": [
        {
          "internalType": "uint256",
          "name": "",
          "type": "uint256"
        }
      ],
      "stateMutability": "view",
      "type": "function"
    },
    {
      "inputs": [],
      "name": "distributionEnd",
      "outputs": [
        {
          "internalType": "uint256",
          "name": "",
          "type": "uint256"
        }
      ],
      "stateMutability": "view",
      "type": "function"
    },
    {
      "inputs": [
        {
          "internalType": "uint128",
          "name": "",
          "type": "uint128"
        }
      ],
      "name": "emissionParameters",
      "outputs": [
        {
          "internalType": "uint64",
          "name": "coefficientX",
          "type": "uint64"
        },
        {
          "internalType": "uint64",
          "name": "coefficientY",
          "type": "uint64"
        },
        {
          "internalType": "uint64",
          "name": "coefficientZ",
          "type": "uint64"
        },
        {
          "internalType": "uint64",
          "name": "coefficientM",
          "type": "uint64"
        }
      ],
      "stateMutability": "view",
      "type": "function"
    },
    {
      "inputs": [
        {
          "internalType": "uint128",
          "name": "_level",
          "type": "uint128"
        }
      ],
      "name": "getEmissionPerSecond",
      "outputs": [
        {
          "internalType": "uint256",
          "name": "",
          "type": "uint256"
        }
      ],
      "stateMutability": "view",
      "type": "function"
    },
    {
      "inputs": [
        {
          "internalType": "uint256",
          "name": "_id",
          "type": "uint256"
        }
      ],
      "name": "getExpEarnedAndValueEarned",
      "outputs": [
        {
          "internalType": "uint256",
          "name": "",
          "type": "uint256"
        },
        {
          "internalType": "uint128",
          "name": "",
          "type": "uint128"
        }
      ],
      "stateMutability": "view",
      "type": "function"
    },
    {
      "inputs": [
        {
          "internalType": "uint256",
          "name": "nft",
          "type": "uint256"
        },
        {
          "internalType": "uint128",
          "name": "poolNumber",
          "type": "uint128"
        }
      ],
      "name": "getNFTPoolData",
      "outputs": [
        {
          "internalType": "uint256",
          "name": "",
          "type": "uint256"
        }
      ],
      "stateMutability": "view",
      "type": "function"
    },
    {
      "inputs": [
        {
          "internalType": "address",
          "name": "_user",
          "type": "address"
        },
        {
          "internalType": "uint128",
          "name": "_level",
          "type": "uint128"
        }
      ],
      "name": "getStakingNFTinALevel",
      "outputs": [
        {
          "internalType": "uint256[]",
          "name": "",
          "type": "uint256[]"
        }
      ],
      "stateMutability": "view",
      "type": "function"
    },
    {
      "inputs": [
        {
          "internalType": "uint256[]",
          "name": "_ids",
          "type": "uint256[]"
        }
      ],
      "name": "getTotalRewardsBalance",
      "outputs": [
        {
          "internalType": "uint256",
          "name": "",
          "type": "uint256"
        }
      ],
      "stateMutability": "view",
      "type": "function"
    },
    {
      "inputs": [
        {
          "internalType": "uint256",
          "name": "distributionDuration",
          "type": "uint256"
        }
      ],
      "name": "increaseDistribution",
      "outputs": [],
      "stateMutability": "nonpayable",
      "type": "function"
    },
    {
      "inputs": [
        {
          "internalType": "uint256",
          "name": "_distributionDuration",
          "type": "uint256"
        },
        {
          "internalType": "uint256",
          "name": "_cooldownTime",
          "type": "uint256"
        },
        {
          "internalType": "uint256",
          "name": "_percentageFee",
          "type": "uint256"
        },
        {
          "internalType": "contract INFTCollection",
          "name": "_nftContract",
          "type": "address"
        },
        {
          "internalType": "contract IStakedToken",
          "name": "_stakingToken",
          "type": "address"
        }
      ],
      "name": "initialize",
      "outputs": [],
      "stateMutability": "nonpayable",
      "type": "function"
    },
    {
      "inputs": [
        {
          "internalType": "uint256",
          "name": "",
          "type": "uint256"
        }
      ],
      "name": "nftInfos",
      "outputs": [
        {
          "internalType": "address",
          "name": "owner",
          "type": "address"
        },
        {
          "internalType": "uint128",
          "name": "value",
          "type": "uint128"
        },
        {
          "internalType": "uint128",
          "name": "level",
          "type": "uint128"
        },
        {
          "internalType": "uint128",
          "name": "lastPolishTime",
          "type": "uint128"
        },
        {
          "internalType": "uint128",
          "name": "depositTime",
          "type": "uint128"
        }
      ],
      "stateMutability": "view",
      "type": "function"
    },
    {
      "inputs": [
        {
          "internalType": "uint256",
          "name": "",
          "type": "uint256"
        }
      ],
      "name": "nftRewardsToClaim",
      "outputs": [
        {
          "internalType": "uint256",
          "name": "",
          "type": "uint256"
        }
      ],
      "stateMutability": "view",
      "type": "function"
    },
    {
      "inputs": [
        {
          "internalType": "address",
          "name": "operator",
          "type": "address"
        },
        {
          "internalType": "address",
          "name": "from",
          "type": "address"
        },
        {
          "internalType": "uint256",
          "name": "tokenId",
          "type": "uint256"
        },
        {
          "internalType": "bytes",
          "name": "data",
          "type": "bytes"
        }
      ],
      "name": "onERC721Received",
      "outputs": [
        {
          "internalType": "bytes4",
          "name": "",
          "type": "bytes4"
        }
      ],
      "stateMutability": "nonpayable",
      "type": "function"
    },
    {
      "inputs": [],
      "name": "owner",
      "outputs": [
        {
          "internalType": "address",
          "name": "",
          "type": "address"
        }
      ],
      "stateMutability": "view",
      "type": "function"
    },
    {
      "inputs": [],
      "name": "percentageFee",
      "outputs": [
        {
          "internalType": "uint256",
          "name": "",
          "type": "uint256"
        }
      ],
      "stateMutability": "view",
      "type": "function"
    },
    {
      "inputs": [
        {
          "internalType": "uint256[]",
          "name": "_ids",
          "type": "uint256[]"
        },
        {
          "internalType": "uint128",
          "name": "_level",
          "type": "uint128"
        }
      ],
      "name": "polishNFT",
      "outputs": [],
      "stateMutability": "nonpayable",
      "type": "function"
    },
    {
      "inputs": [
        {
          "internalType": "uint128",
          "name": "",
          "type": "uint128"
        }
      ],
      "name": "poolInfos",
      "outputs": [
        {
          "internalType": "uint128",
          "name": "totalValue",
          "type": "uint128"
        },
        {
          "internalType": "uint128",
          "name": "nftCount",
          "type": "uint128"
        }
      ],
      "stateMutability": "view",
      "type": "function"
    },
    {
      "inputs": [
        {
          "internalType": "uint128",
          "name": "",
          "type": "uint128"
        }
      ],
      "name": "pools",
      "outputs": [
        {
          "internalType": "uint256",
          "name": "lastUpdateTimestamp",
          "type": "uint256"
        },
        {
          "internalType": "uint256",
          "name": "index",
          "type": "uint256"
        }
      ],
      "stateMutability": "view",
      "type": "function"
    },
    {
      "inputs": [
        {
          "internalType": "uint256[]",
          "name": "_ids",
          "type": "uint256[]"
        },
        {
          "internalType": "uint128",
          "name": "_level",
          "type": "uint128"
        }
      ],
      "name": "redeemAndClaim",
      "outputs": [],
      "stateMutability": "nonpayable",
      "type": "function"
    },
    {
      "inputs": [],
      "name": "renounceOwnership",
      "outputs": [],
      "stateMutability": "nonpayable",
      "type": "function"
    },
    {
      "inputs": [
        {
          "internalType": "uint128[]",
          "name": "_level",
          "type": "uint128[]"
        },
        {
          "internalType": "uint64[]",
          "name": "_x",
          "type": "uint64[]"
        },
        {
          "internalType": "uint64[]",
          "name": "_y",
          "type": "uint64[]"
        },
        {
          "internalType": "uint64[]",
          "name": "_z",
          "type": "uint64[]"
        },
        {
          "internalType": "uint64[]",
          "name": "_m",
          "type": "uint64[]"
        }
      ],
      "name": "setCoefficient",
      "outputs": [],
      "stateMutability": "nonpayable",
      "type": "function"
    },
    {
      "inputs": [
        {
          "internalType": "uint256",
          "name": "_cooldownTime",
          "type": "uint256"
        }
      ],
      "name": "setCooldownTime",
      "outputs": [],
      "stateMutability": "nonpayable",
      "type": "function"
    },
    {
      "inputs": [
        {
          "internalType": "uint256",
          "name": "_percentageFee",
          "type": "uint256"
        }
      ],
      "name": "setPercentageFee",
      "outputs": [],
      "stateMutability": "nonpayable",
      "type": "function"
    },
    {
      "inputs": [
        {
          "internalType": "contract IStakedToken",
          "name": "_stakingToken",
          "type": "address"
        }
      ],
      "name": "setStakingToken",
      "outputs": [],
      "stateMutability": "nonpayable",
      "type": "function"
    },
    {
      "inputs": [
        {
          "internalType": "uint256[]",
          "name": "_ids",
          "type": "uint256[]"
        },
        {
          "internalType": "uint128",
          "name": "_level",
          "type": "uint128"
        }
      ],
      "name": "stake",
      "outputs": [],
      "stateMutability": "nonpayable",
      "type": "function"
    },
    {
      "inputs": [
        {
          "internalType": "address",
          "name": "_receiver",
          "type": "address"
        },
        {
          "internalType": "contract IStakedToken",
          "name": "_token",
          "type": "address"
        }
      ],
      "name": "transferAllToken",
      "outputs": [],
      "stateMutability": "nonpayable",
      "type": "function"
    },
    {
      "inputs": [
        {
          "internalType": "address",
          "name": "newOwner",
          "type": "address"
        }
      ],
      "name": "transferOwnership",
      "outputs": [],
      "stateMutability": "nonpayable",
      "type": "function"
    }
  ],
  "bytecode": "0x608060405234801561001057600080fd5b50616fe080620000216000396000f3fe608060405234801561001057600080fd5b50600436106101da5760003560e01c80636ff7320111610104578063a861e113116100a2578063b319c6b711610071578063b319c6b7146105a5578063e482d822146105c3578063efa90b54146105df578063f2fde38b146105fd576101da565b8063a861e1131461051f578063aab954d01461053b578063aaf5eb6814610557578063b19873ae14610575576101da565b80637c43d737116100de5780637c43d737146104995780638a45f48e146104b55780638da5cb5b146104e5578063a1215f1314610503576101da565b80636ff7320114610455578063715018a614610471578063780a7ff01461047b576101da565b80633e54cadb1161017c57806359bcc9871161014b57806359bcc987146103ba5780635b93f201146103d65780635f77449814610406578063663ecbcf14610439576101da565b80633e54cadb146102f55780634a57e1da146103255780634bc834eb14610356578063573cfaa01461038a576101da565b80631e9b12ef116101b85780631e9b12ef1461025c5780632739a44f146102785780632e8d3e98146102945780633c27e8d3146102c4576101da565b806304e16ede146101df5780630921e7ef14610210578063150b7a021461022c575b600080fd5b6101f960048036038101906101f49190615a9a565b610619565b6040516102079291906164d9565b60405180910390f35b61022a6004803603810190610225919061582e565b61063d565b005b610246600480360381019061024191906157ae565b610770565b60405161025391906161d4565b60405180910390f35b61027660048036038101906102719190615a71565b610785565b005b610292600480360381019061028d91906159f0565b6108b5565b005b6102ae60048036038101906102a99190615b15565b611104565b6040516102bb9190616495565b60405180910390f35b6102de60048036038101906102d99190615a9a565b61115a565b6040516102ec92919061646c565b60405180910390f35b61030f600480360381019061030a91906159ab565b6111b6565b60405161031c9190616495565b60405180910390f35b61033f600480360381019061033a9190615ac3565b6115bc565b60405161034d9291906164b0565b60405180910390f35b610370600480360381019061036b9190615ac3565b6117b2565b6040516103819594939291906160d2565b60405180910390f35b6103a4600480360381019061039f919061586a565b611878565b6040516103b191906161b2565b60405180910390f35b6103d460048036038101906103cf91906159f0565b611d8d565b005b6103f060048036038101906103eb919061586a565b612781565b6040516103fd9190616495565b60405180910390f35b610420600480360381019061041b9190615a9a565b6127a6565b6040516104309493929190616502565b60405180910390f35b610453600480360381019061044e91906159f0565b612826565b005b61046f600480360381019061046a9190615ac3565b612e19565b005b610479612e9f565b005b610483612f27565b6040516104909190616495565b60405180910390f35b6104b360048036038101906104ae9190615ac3565b612f2d565b005b6104cf60048036038101906104ca9190615ac3565b612fc0565b6040516104dc9190616495565b60405180910390f35b6104ed612fd8565b6040516104fa9190616057565b60405180910390f35b61051d60048036038101906105189190615ac3565b613002565b005b610539600480360381019061053491906159f0565b6130da565b005b61055560048036038101906105509190615b51565b613997565b005b61055f613ccc565b60405161056c9190616547565b60405180910390f35b61058f600480360381019061058a9190615a9a565b613cd1565b60405161059c9190616495565b60405180910390f35b6105ad613dc8565b6040516105ba9190616495565b60405180910390f35b6105dd60048036038101906105d891906158a6565b613dce565b005b6105e76141bf565b6040516105f49190616495565b60405180910390f35b6106176004803603810190610612919061575c565b6141c5565b005b60666020528060005260406000206000915090508060000154908060010154905082565b6106456142bd565b73ffffffffffffffffffffffffffffffffffffffff16610663612fd8565b73ffffffffffffffffffffffffffffffffffffffff16146106b9576040517f08c379a00000000000000000000000000000000000000000000000000000000081526004016106b09061632c565b60405180910390fd5b61076c828273ffffffffffffffffffffffffffffffffffffffff166370a08231306040518263ffffffff1660e01b81526004016106f69190616057565b60206040518083038186803b15801561070e57600080fd5b505afa158015610722573d6000803e3d6000fd5b505050506040513d601f19601f820116820180604052508101906107469190615aec565b8373ffffffffffffffffffffffffffffffffffffffff166142c59092919063ffffffff16565b5050565b600063150b7a0260e01b905095945050505050565b61078d6142bd565b73ffffffffffffffffffffffffffffffffffffffff166107ab612fd8565b73ffffffffffffffffffffffffffffffffffffffff1614610801576040517f08c379a00000000000000000000000000000000000000000000000000000000081526004016107f89061632c565b60405180910390fd5b600073ffffffffffffffffffffffffffffffffffffffff168173ffffffffffffffffffffffffffffffffffffffff161415610871576040517f08c379a0000000000000000000000000000000000000000000000000000000008152600401610868906163ac565b60405180910390fd5b80606c60006101000a81548173ffffffffffffffffffffffffffffffffffffffff021916908373ffffffffffffffffffffffffffffffffffffffff16021790555050565b3273ffffffffffffffffffffffffffffffffffffffff163373ffffffffffffffffffffffffffffffffffffffff1614610923576040517f08c379a000000000000000000000000000000000000000000000000000000000815260040161091a9061628c565b60405180910390fd5b600080606b6000846fffffffffffffffffffffffffffffffff166fffffffffffffffffffffffffffffffff1681526020019081526020016000206040518060400160405290816000820160009054906101000a90046fffffffffffffffffffffffffffffffff166fffffffffffffffffffffffffffffffff166fffffffffffffffffffffffffffffffff1681526020016000820160109054906101000a90046fffffffffffffffffffffffffffffffff166fffffffffffffffffffffffffffffffff166fffffffffffffffffffffffffffffffff1681525050905060008160000151905060008260200151905060005b87879050811015610ee0576000888883818110610a59577f4e487b7100000000000000000000000000000000000000000000000000000000600052603260045260246000fd5b905060200201359050606d60009054906101000a900473ffffffffffffffffffffffffffffffffffffffff1673ffffffffffffffffffffffffffffffffffffffff166323b872dd3330846040518463ffffffff1660e01b8152600401610ac19392919061609b565b600060405180830381600087803b158015610adb57600080fd5b505af1158015610aef573d6000803e3d6000fd5b505050506000606d60009054906101000a900473ffffffffffffffffffffffffffffffffffffffff1673ffffffffffffffffffffffffffffffffffffffff1663bef5ccd8836040518263ffffffff1660e01b8152600401610b509190616495565b60206040518083038186803b158015610b6857600080fd5b505afa158015610b7c573d6000803e3d6000fd5b505050506040513d601f19601f82011682018060405250810190610ba09190615bf1565b60ff169050876fffffffffffffffffffffffffffffffff16816fffffffffffffffffffffffffffffffff161015610c0c576040517f08c379a0000000000000000000000000000000000000000000000000000000008152600401610c03906162cc565b60405180910390fd5b6000606d60009054906101000a900473ffffffffffffffffffffffffffffffffffffffff1673ffffffffffffffffffffffffffffffffffffffff16633efd73cc846040518263ffffffff1660e01b8152600401610c699190616495565b60206040518083038186803b158015610c8157600080fd5b505afa158015610c95573d6000803e3d6000fd5b505050506040513d601f19601f82011682018060405250810190610cb99190615aec565b90506000610cc68261434b565b90508089610cd491906165cd565b985060006040518060a001604052803373ffffffffffffffffffffffffffffffffffffffff168152602001836fffffffffffffffffffffffffffffffff1681526020018c6fffffffffffffffffffffffffffffffff168152602001426fffffffffffffffffffffffffffffffff168152602001426fffffffffffffffffffffffffffffffff168152509050806068600087815260200190815260200160002060008201518160000160006101000a81548173ffffffffffffffffffffffffffffffffffffffff021916908373ffffffffffffffffffffffffffffffffffffffff16021790555060208201518160010160006101000a8154816fffffffffffffffffffffffffffffffff02191690836fffffffffffffffffffffffffffffffff16021790555060408201518160010160106101000a8154816fffffffffffffffffffffffffffffffff02191690836fffffffffffffffffffffffffffffffff16021790555060608201518160020160006101000a8154816fffffffffffffffffffffffffffffffff02191690836fffffffffffffffffffffffffffffffff16021790555060808201518160020160106101000a8154816fffffffffffffffffffffffffffffffff02191690836fffffffffffffffffffffffffffffffff160217905550905050610ec7858c60008a8c61436f565b5050505050508080610ed890616a41565b915050610a13565b5086869050606a60003373ffffffffffffffffffffffffffffffffffffffff1673ffffffffffffffffffffffffffffffffffffffff1681526020019081526020016000206000876fffffffffffffffffffffffffffffffff166fffffffffffffffffffffffffffffffff1681526020019081526020016000206000828254610f689190616613565b925050819055508383600001818151610f8191906165cd565b9150906fffffffffffffffffffffffffffffffff1690816fffffffffffffffffffffffffffffffff16815250508686905083602001818151610fc391906165cd565b9150906fffffffffffffffffffffffffffffffff1690816fffffffffffffffffffffffffffffffff168152505082606b6000876fffffffffffffffffffffffffffffffff166fffffffffffffffffffffffffffffffff16815260200190815260200160002060008201518160000160006101000a8154816fffffffffffffffffffffffffffffffff02191690836fffffffffffffffffffffffffffffffff16021790555060208201518160000160106101000a8154816fffffffffffffffffffffffffffffffff02191690836fffffffffffffffffffffffffffffffff1602179055509050503373ffffffffffffffffffffffffffffffffffffffff167f2af7fcd1c399223822bcb259c91eda30e4f212e30c40bba913f93c5960964f168888886040516110f39392919061614e565b60405180910390a250505050505050565b600060666000836fffffffffffffffffffffffffffffffff166fffffffffffffffffffffffffffffffff168152602001908152602001600020600201600084815260200190815260200160002054905092915050565b606b6020528060005260406000206000915090508060000160009054906101000a90046fffffffffffffffffffffffffffffffff16908060000160109054906101000a90046fffffffffffffffffffffffffffffffff16905082565b60008060005b848490508110156115b1576000858583818110611202577f4e487b7100000000000000000000000000000000000000000000000000000000600052603260045260246000fd5b9050602002013590506000606860008381526020019081526020016000206040518060a00160405290816000820160009054906101000a900473ffffffffffffffffffffffffffffffffffffffff1673ffffffffffffffffffffffffffffffffffffffff1673ffffffffffffffffffffffffffffffffffffffff1681526020016001820160009054906101000a90046fffffffffffffffffffffffffffffffff166fffffffffffffffffffffffffffffffff166fffffffffffffffffffffffffffffffff1681526020016001820160109054906101000a90046fffffffffffffffffffffffffffffffff166fffffffffffffffffffffffffffffffff166fffffffffffffffffffffffffffffffff1681526020016002820160009054906101000a90046fffffffffffffffffffffffffffffffff166fffffffffffffffffffffffffffffffff166fffffffffffffffffffffffffffffffff1681526020016002820160109054906101000a90046fffffffffffffffffffffffffffffffff166fffffffffffffffffffffffffffffffff166fffffffffffffffffffffffffffffffff168152505090506000816040015190506000826020015190506000836080015190506000606b6000856fffffffffffffffffffffffffffffffff166fffffffffffffffffffffffffffffffff1681526020019081526020016000206040518060400160405290816000820160009054906101000a90046fffffffffffffffffffffffffffffffff166fffffffffffffffffffffffffffffffff166fffffffffffffffffffffffffffffffff1681526020016000820160109054906101000a90046fffffffffffffffffffffffffffffffff166fffffffffffffffffffffffffffffffff166fffffffffffffffffffffffffffffffff1681525050905060008160000151905060008260200151905060006040518060800160405280886fffffffffffffffffffffffffffffffff168152602001836fffffffffffffffffffffffffffffffff168152602001876fffffffffffffffffffffffffffffffff168152602001846fffffffffffffffffffffffffffffffff168152509050600061152b8a8361448d565b9050606960008b8152602001908152602001600020548161154c9190616613565b9050606e54866fffffffffffffffffffffffffffffffff1661156e9190616613565b42101561158657606f54816115839190616856565b90505b808c6115929190616613565b9b505050505050505050505080806115a990616a41565b9150506111bc565b508091505092915050565b6000806000606860008581526020019081526020016000206040518060a00160405290816000820160009054906101000a900473ffffffffffffffffffffffffffffffffffffffff1673ffffffffffffffffffffffffffffffffffffffff1673ffffffffffffffffffffffffffffffffffffffff1681526020016001820160009054906101000a90046fffffffffffffffffffffffffffffffff166fffffffffffffffffffffffffffffffff166fffffffffffffffffffffffffffffffff1681526020016001820160109054906101000a90046fffffffffffffffffffffffffffffffff166fffffffffffffffffffffffffffffffff166fffffffffffffffffffffffffffffffff1681526020016002820160009054906101000a90046fffffffffffffffffffffffffffffffff166fffffffffffffffffffffffffffffffff166fffffffffffffffffffffffffffffffff1681526020016002820160109054906101000a90046fffffffffffffffffffffffffffffffff166fffffffffffffffffffffffffffffffff166fffffffffffffffffffffffffffffffff16815250509050600081606001516fffffffffffffffffffffffffffffffff16905060006003824261178a91906168e4565b6117949190616669565b905060006117a18261434b565b905081819550955050505050915091565b60686020528060005260406000206000915090508060000160009054906101000a900473ffffffffffffffffffffffffffffffffffffffff16908060010160009054906101000a90046fffffffffffffffffffffffffffffffff16908060010160109054906101000a90046fffffffffffffffffffffffffffffffff16908060020160009054906101000a90046fffffffffffffffffffffffffffffffff16908060020160109054906101000a90046fffffffffffffffffffffffffffffffff16905085565b60606000606d60009054906101000a900473ffffffffffffffffffffffffffffffffffffffff1673ffffffffffffffffffffffffffffffffffffffff166370a08231306040518263ffffffff1660e01b81526004016118d79190616057565b60206040518083038186803b1580156118ef57600080fd5b505afa158015611903573d6000803e3d6000fd5b505050506040513d601f19601f820116820180604052508101906119279190615aec565b90506000606a60008673ffffffffffffffffffffffffffffffffffffffff1673ffffffffffffffffffffffffffffffffffffffff1681526020019081526020016000206000856fffffffffffffffffffffffffffffffff166fffffffffffffffffffffffffffffffff16815260200190815260200160002054905060008167ffffffffffffffff8111156119e4577f4e487b7100000000000000000000000000000000000000000000000000000000600052604160045260246000fd5b604051908082528060200260200182016040528015611a125781602001602082028036833780820191505090505b5090506000821415611a2957809350505050611d87565b6000805b84811015611d7e576000606d60009054906101000a900473ffffffffffffffffffffffffffffffffffffffff1673ffffffffffffffffffffffffffffffffffffffff16632f745c5930846040518363ffffffff1660e01b8152600401611a94929190616125565b60206040518083038186803b158015611aac57600080fd5b505afa158015611ac0573d6000803e3d6000fd5b505050506040513d601f19601f82011682018060405250810190611ae49190615aec565b90506000606860008381526020019081526020016000206040518060a00160405290816000820160009054906101000a900473ffffffffffffffffffffffffffffffffffffffff1673ffffffffffffffffffffffffffffffffffffffff1673ffffffffffffffffffffffffffffffffffffffff1681526020016001820160009054906101000a90046fffffffffffffffffffffffffffffffff166fffffffffffffffffffffffffffffffff166fffffffffffffffffffffffffffffffff1681526020016001820160109054906101000a90046fffffffffffffffffffffffffffffffff166fffffffffffffffffffffffffffffffff166fffffffffffffffffffffffffffffffff1681526020016002820160009054906101000a90046fffffffffffffffffffffffffffffffff166fffffffffffffffffffffffffffffffff166fffffffffffffffffffffffffffffffff1681526020016002820160109054906101000a90046fffffffffffffffffffffffffffffffff166fffffffffffffffffffffffffffffffff166fffffffffffffffffffffffffffffffff168152505090508973ffffffffffffffffffffffffffffffffffffffff16816000015173ffffffffffffffffffffffffffffffffffffffff16148015611cec5750886fffffffffffffffffffffffffffffffff1681604001516fffffffffffffffffffffffffffffffff16145b15611d69578380611cfc90616a41565b9450508185600186611d0e91906168e4565b81518110611d45577f4e487b7100000000000000000000000000000000000000000000000000000000600052603260045260246000fd5b60200260200101818152505085841415611d685784975050505050505050611d87565b5b50508080611d7690616a41565b915050611a2d565b50819450505050505b92915050565b3273ffffffffffffffffffffffffffffffffffffffff163373ffffffffffffffffffffffffffffffffffffffff1614611dfb576040517f08c379a0000000000000000000000000000000000000000000000000000000008152600401611df29061628c565b60405180910390fd5b6000806000606b6000856fffffffffffffffffffffffffffffffff166fffffffffffffffffffffffffffffffff1681526020019081526020016000206040518060400160405290816000820160009054906101000a90046fffffffffffffffffffffffffffffffff166fffffffffffffffffffffffffffffffff166fffffffffffffffffffffffffffffffff1681526020016000820160109054906101000a90046fffffffffffffffffffffffffffffffff166fffffffffffffffffffffffffffffffff166fffffffffffffffffffffffffffffffff1681525050905060008160000151905060008260200151905060005b888890508110156124ba576000898983818110611f33577f4e487b7100000000000000000000000000000000000000000000000000000000600052603260045260246000fd5b9050602002013590506000606860008381526020019081526020016000206040518060a00160405290816000820160009054906101000a900473ffffffffffffffffffffffffffffffffffffffff1673ffffffffffffffffffffffffffffffffffffffff1673ffffffffffffffffffffffffffffffffffffffff1681526020016001820160009054906101000a90046fffffffffffffffffffffffffffffffff166fffffffffffffffffffffffffffffffff166fffffffffffffffffffffffffffffffff1681526020016001820160109054906101000a90046fffffffffffffffffffffffffffffffff166fffffffffffffffffffffffffffffffff166fffffffffffffffffffffffffffffffff1681526020016002820160009054906101000a90046fffffffffffffffffffffffffffffffff166fffffffffffffffffffffffffffffffff166fffffffffffffffffffffffffffffffff1681526020016002820160109054906101000a90046fffffffffffffffffffffffffffffffff166fffffffffffffffffffffffffffffffff166fffffffffffffffffffffffffffffffff1681525050905060686000838152602001908152602001600020600080820160006101000a81549073ffffffffffffffffffffffffffffffffffffffff02191690556001820160006101000a8154906fffffffffffffffffffffffffffffffff02191690556001820160106101000a8154906fffffffffffffffffffffffffffffffff02191690556002820160006101000a8154906fffffffffffffffffffffffffffffffff02191690556002820160106101000a8154906fffffffffffffffffffffffffffffffff021916905550506000816000015190508073ffffffffffffffffffffffffffffffffffffffff163373ffffffffffffffffffffffffffffffffffffffff161461221c576040517f08c379a0000000000000000000000000000000000000000000000000000000008152600401612213906163ec565b60405180910390fd5b6000826040015190508a6fffffffffffffffffffffffffffffffff16816fffffffffffffffffffffffffffffffff161461228b576040517f08c379a00000000000000000000000000000000000000000000000000000000081526004016122829061642c565b60405180910390fd5b600083602001519050808a6122a091906165cd565b995060006122b186848a858d61436f565b90506069600087815260200190815260200160002054816122d29190616613565b90506069600087815260200190815260200160002060009055600085608001519050606e54816fffffffffffffffffffffffffffffffff166123149190616613565b42101561233957612710606f548361232c9190616856565b6123369190616669565b91505b818d6123459190616613565b9c5060008660600151905060006003826fffffffffffffffffffffffffffffffff164261237291906168e4565b61237c9190616669565b9050606d60009054906101000a900473ffffffffffffffffffffffffffffffffffffffff1673ffffffffffffffffffffffffffffffffffffffff1663db4ba28b8a836040518363ffffffff1660e01b81526004016123db9291906164d9565b600060405180830381600087803b1580156123f557600080fd5b505af1158015612409573d6000803e3d6000fd5b50505050606d60009054906101000a900473ffffffffffffffffffffffffffffffffffffffff1673ffffffffffffffffffffffffffffffffffffffff166323b872dd30338c6040518463ffffffff1660e01b815260040161246c9392919061609b565b600060405180830381600087803b15801561248657600080fd5b505af115801561249a573d6000803e3d6000fd5b5050505050505050505050505080806124b290616a41565b915050611eed565b50606c60009054906101000a900473ffffffffffffffffffffffffffffffffffffffff1673ffffffffffffffffffffffffffffffffffffffff1663adc9772e33876040518363ffffffff1660e01b8152600401612518929190616125565b600060405180830381600087803b15801561253257600080fd5b505af1158015612546573d6000803e3d6000fd5b5050505087879050606a60003373ffffffffffffffffffffffffffffffffffffffff1673ffffffffffffffffffffffffffffffffffffffff1681526020019081526020016000206000886fffffffffffffffffffffffffffffffff166fffffffffffffffffffffffffffffffff16815260200190815260200160002060008282546125d191906168e4565b9250508190555083836000018181516125ea91906168b0565b9150906fffffffffffffffffffffffffffffffff1690816fffffffffffffffffffffffffffffffff1681525050878790508360200181815161262c91906168b0565b9150906fffffffffffffffffffffffffffffffff1690816fffffffffffffffffffffffffffffffff168152505082606b6000886fffffffffffffffffffffffffffffffff166fffffffffffffffffffffffffffffffff16815260200190815260200160002060008201518160000160006101000a8154816fffffffffffffffffffffffffffffffff02191690836fffffffffffffffffffffffffffffffff16021790555060208201518160000160106101000a8154816fffffffffffffffffffffffffffffffff02191690836fffffffffffffffffffffffffffffffff160217905550905050856fffffffffffffffffffffffffffffffff163373ffffffffffffffffffffffffffffffffffffffff167ffe981155bc011ab160f7378975865460b843956ee11f408af8a23396bf25ae758a8a8960405161276f93929190616180565b60405180910390a35050505050505050565b606a602052816000526040600020602052806000526040600020600091509150505481565b60676020528060005260406000206000915090508060000160009054906101000a900467ffffffffffffffff16908060000160089054906101000a900467ffffffffffffffff16908060000160109054906101000a900467ffffffffffffffff16908060000160189054906101000a900467ffffffffffffffff16905084565b3273ffffffffffffffffffffffffffffffffffffffff163373ffffffffffffffffffffffffffffffffffffffff1614612894576040517f08c379a000000000000000000000000000000000000000000000000000000000815260040161288b9061628c565b60405180910390fd5b600080606b6000846fffffffffffffffffffffffffffffffff166fffffffffffffffffffffffffffffffff1681526020019081526020016000206040518060400160405290816000820160009054906101000a90046fffffffffffffffffffffffffffffffff166fffffffffffffffffffffffffffffffff166fffffffffffffffffffffffffffffffff1681526020016000820160109054906101000a90046fffffffffffffffffffffffffffffffff166fffffffffffffffffffffffffffffffff166fffffffffffffffffffffffffffffffff1681525050905060008160000151905060008260200151905060005b87879050811015612d1b5760008888838181106129ca577f4e487b7100000000000000000000000000000000000000000000000000000000600052603260045260246000fd5b9050602002013590506000606860008381526020019081526020016000206040518060a00160405290816000820160009054906101000a900473ffffffffffffffffffffffffffffffffffffffff1673ffffffffffffffffffffffffffffffffffffffff1673ffffffffffffffffffffffffffffffffffffffff1681526020016001820160009054906101000a90046fffffffffffffffffffffffffffffffff166fffffffffffffffffffffffffffffffff166fffffffffffffffffffffffffffffffff1681526020016001820160109054906101000a90046fffffffffffffffffffffffffffffffff166fffffffffffffffffffffffffffffffff166fffffffffffffffffffffffffffffffff1681526020016002820160009054906101000a90046fffffffffffffffffffffffffffffffff166fffffffffffffffffffffffffffffffff166fffffffffffffffffffffffffffffffff1681526020016002820160109054906101000a90046fffffffffffffffffffffffffffffffff166fffffffffffffffffffffffffffffffff166fffffffffffffffffffffffffffffffff168152505090506000816000015190508073ffffffffffffffffffffffffffffffffffffffff163373ffffffffffffffffffffffffffffffffffffffff1614612bea576040517f08c379a0000000000000000000000000000000000000000000000000000000008152600401612be1906163ec565b60405180910390fd5b600082604001519050896fffffffffffffffffffffffffffffffff16816fffffffffffffffffffffffffffffffff1614612c59576040517f08c379a0000000000000000000000000000000000000000000000000000000008152600401612c509061624c565b60405180910390fd5b6000612c6c85838987602001518c61436f565b9050606960008681526020019081526020016000205481612c8d9190616613565b90506069600086815260200190815260200160002060009055600084608001519050606e54816fffffffffffffffffffffffffffffffff16612ccf9190616613565b421015612cf457612710606f5483612ce79190616856565b612cf19190616669565b91505b818b612d009190616613565b9a505050505050508080612d1390616a41565b915050612984565b50606c60009054906101000a900473ffffffffffffffffffffffffffffffffffffffff1673ffffffffffffffffffffffffffffffffffffffff1663adc9772e33866040518363ffffffff1660e01b8152600401612d79929190616125565b600060405180830381600087803b158015612d9357600080fd5b505af1158015612da7573d6000803e3d6000fd5b50505050846fffffffffffffffffffffffffffffffff163373ffffffffffffffffffffffffffffffffffffffff167f6fda08360cea89f4d9faf9c364a93c02b10d63cac02e3ffb38e48cbe467dc0f6898988604051612e0893929190616180565b60405180910390a350505050505050565b612e216142bd565b73ffffffffffffffffffffffffffffffffffffffff16612e3f612fd8565b73ffffffffffffffffffffffffffffffffffffffff1614612e95576040517f08c379a0000000000000000000000000000000000000000000000000000000008152600401612e8c9061632c565b60405180910390fd5b80606e8190555050565b612ea76142bd565b73ffffffffffffffffffffffffffffffffffffffff16612ec5612fd8565b73ffffffffffffffffffffffffffffffffffffffff1614612f1b576040517f08c379a0000000000000000000000000000000000000000000000000000000008152600401612f129061632c565b60405180910390fd5b612f256000614558565b565b606f5481565b612f356142bd565b73ffffffffffffffffffffffffffffffffffffffff16612f53612fd8565b73ffffffffffffffffffffffffffffffffffffffff1614612fa9576040517f08c379a0000000000000000000000000000000000000000000000000000000008152600401612fa09061632c565b60405180910390fd5b80606554612fb79190616613565b60658190555050565b60696020528060005260406000206000915090505481565b6000603360009054906101000a900473ffffffffffffffffffffffffffffffffffffffff16905090565b61300a6142bd565b73ffffffffffffffffffffffffffffffffffffffff16613028612fd8565b73ffffffffffffffffffffffffffffffffffffffff161461307e576040517f08c379a00000000000000000000000000000000000000000000000000000000081526004016130759061632c565b60405180910390fd5b6127108111156130c3576040517f08c379a00000000000000000000000000000000000000000000000000000000081526004016130ba9061644c565b60405180910390fd5b806127106130d191906168e4565b606f8190555050565b3273ffffffffffffffffffffffffffffffffffffffff163373ffffffffffffffffffffffffffffffffffffffff1614613148576040517f08c379a000000000000000000000000000000000000000000000000000000000815260040161313f9061628c565b60405180910390fd5b600080606b6000846fffffffffffffffffffffffffffffffff166fffffffffffffffffffffffffffffffff1681526020019081526020016000206040518060400160405290816000820160009054906101000a90046fffffffffffffffffffffffffffffffff166fffffffffffffffffffffffffffffffff166fffffffffffffffffffffffffffffffff1681526020016000820160109054906101000a90046fffffffffffffffffffffffffffffffff166fffffffffffffffffffffffffffffffff166fffffffffffffffffffffffffffffffff1681525050905060008160000151905060008260200151905060005b8787905081101561384357600088888381811061327e577f4e487b7100000000000000000000000000000000000000000000000000000000600052603260045260246000fd5b9050602002013590506000606860008381526020019081526020016000206040518060a00160405290816000820160009054906101000a900473ffffffffffffffffffffffffffffffffffffffff1673ffffffffffffffffffffffffffffffffffffffff1673ffffffffffffffffffffffffffffffffffffffff1681526020016001820160009054906101000a90046fffffffffffffffffffffffffffffffff166fffffffffffffffffffffffffffffffff166fffffffffffffffffffffffffffffffff1681526020016001820160109054906101000a90046fffffffffffffffffffffffffffffffff166fffffffffffffffffffffffffffffffff166fffffffffffffffffffffffffffffffff1681526020016002820160009054906101000a90046fffffffffffffffffffffffffffffffff166fffffffffffffffffffffffffffffffff166fffffffffffffffffffffffffffffffff1681526020016002820160109054906101000a90046fffffffffffffffffffffffffffffffff166fffffffffffffffffffffffffffffffff166fffffffffffffffffffffffffffffffff16815250509050600081604001519050886fffffffffffffffffffffffffffffffff16816fffffffffffffffffffffffffffffffff1614613496576040517f08c379a000000000000000000000000000000000000000000000000000000000815260040161348d9061624c565b60405180910390fd5b6134a783828785602001518a61436f565b6069600085815260200190815260200160002060008282546134c99190616613565b9250508190555060008260600151905060006003826fffffffffffffffffffffffffffffffff16426134fb91906168e4565b6135059190616669565b9050606d60009054906101000a900473ffffffffffffffffffffffffffffffffffffffff1673ffffffffffffffffffffffffffffffffffffffff1663db4ba28b86836040518363ffffffff1660e01b81526004016135649291906164d9565b600060405180830381600087803b15801561357e57600080fd5b505af1158015613592573d6000803e3d6000fd5b505050506000606d60009054906101000a900473ffffffffffffffffffffffffffffffffffffffff1673ffffffffffffffffffffffffffffffffffffffff16633efd73cc876040518263ffffffff1660e01b81526004016135f39190616495565b60206040518083038186803b15801561360b57600080fd5b505afa15801561361f573d6000803e3d6000fd5b505050506040513d601f19601f820116820180604052508101906136439190615aec565b905060006136508261434b565b905085602001518161366291906168b0565b8c61366d91906165cd565b9b508086602001906fffffffffffffffffffffffffffffffff1690816fffffffffffffffffffffffffffffffff16815250504286606001906fffffffffffffffffffffffffffffffff1690816fffffffffffffffffffffffffffffffff1681525050856068600089815260200190815260200160002060008201518160000160006101000a81548173ffffffffffffffffffffffffffffffffffffffff021916908373ffffffffffffffffffffffffffffffffffffffff16021790555060208201518160010160006101000a8154816fffffffffffffffffffffffffffffffff02191690836fffffffffffffffffffffffffffffffff16021790555060408201518160010160106101000a8154816fffffffffffffffffffffffffffffffff02191690836fffffffffffffffffffffffffffffffff16021790555060608201518160020160006101000a8154816fffffffffffffffffffffffffffffffff02191690836fffffffffffffffffffffffffffffffff16021790555060808201518160020160106101000a8154816fffffffffffffffffffffffffffffffff02191690836fffffffffffffffffffffffffffffffff16021790555090505050505050505050808061383b90616a41565b915050613238565b50838360000181815161385691906165cd565b9150906fffffffffffffffffffffffffffffffff1690816fffffffffffffffffffffffffffffffff168152505082606b6000876fffffffffffffffffffffffffffffffff166fffffffffffffffffffffffffffffffff16815260200190815260200160002060008201518160000160006101000a8154816fffffffffffffffffffffffffffffffff02191690836fffffffffffffffffffffffffffffffff16021790555060208201518160000160106101000a8154816fffffffffffffffffffffffffffffffff02191690836fffffffffffffffffffffffffffffffff1602179055509050503373ffffffffffffffffffffffffffffffffffffffff167fc3dfba46610cbb0e00b2a2a48619ad3a9719f11df22032ca112368cb5361ae718888886040516139869392919061614e565b60405180910390a250505050505050565b60006139a3600161461e565b905080156139c7576001600060016101000a81548160ff0219169083151502179055505b600073ffffffffffffffffffffffffffffffffffffffff168373ffffffffffffffffffffffffffffffffffffffff161415613a37576040517f08c379a0000000000000000000000000000000000000000000000000000000008152600401613a2e9061622c565b60405180910390fd5b600073ffffffffffffffffffffffffffffffffffffffff168273ffffffffffffffffffffffffffffffffffffffff161415613aa7576040517f08c379a0000000000000000000000000000000000000000000000000000000008152600401613a9e9061634c565b60405180910390fd5b612710841115613aec576040517f08c379a0000000000000000000000000000000000000000000000000000000008152600401613ae39061644c565b60405180910390fd5b613af461470e565b613bbc827fffffffffffffffffffffffffffffffffffffffffffffffffffffffffffffffff8473ffffffffffffffffffffffffffffffffffffffff1663312f6b836040518163ffffffff1660e01b815260040160206040518083038186803b158015613b5f57600080fd5b505afa158015613b73573d6000803e3d6000fd5b505050506040513d601f19601f82011682018060405250810190613b979190615785565b73ffffffffffffffffffffffffffffffffffffffff166147679092919063ffffffff16565b82606d60006101000a81548173ffffffffffffffffffffffffffffffffffffffff021916908373ffffffffffffffffffffffffffffffffffffffff16021790555081606c60006101000a81548173ffffffffffffffffffffffffffffffffffffffff021916908373ffffffffffffffffffffffffffffffffffffffff16021790555084606e8190555083612710613c5391906168e4565b606f819055508542613c659190616613565b6065819055508015613cc45760008060016101000a81548160ff0219169083151502179055507f7f26b83ff96e1f2b6a682f133852f6798a09c465da95921460cefb38474024986001604051613cbb91906161ef565b60405180910390a15b505050505050565b601281565b600080606b6000846fffffffffffffffffffffffffffffffff166fffffffffffffffffffffffffffffffff1681526020019081526020016000206040518060400160405290816000820160009054906101000a90046fffffffffffffffffffffffffffffffff166fffffffffffffffffffffffffffffffff166fffffffffffffffffffffffffffffffff1681526020016000820160109054906101000a90046fffffffffffffffffffffffffffffffff166fffffffffffffffffffffffffffffffff166fffffffffffffffffffffffffffffffff16815250509050600081602001519050613dbf81856148c5565b92505050919050565b606e5481565b613dd66142bd565b73ffffffffffffffffffffffffffffffffffffffff16613df4612fd8565b73ffffffffffffffffffffffffffffffffffffffff1614613e4a576040517f08c379a0000000000000000000000000000000000000000000000000000000008152600401613e419061632c565b60405180910390fd5b878790508a8a9050148015613e6457508585905088889050145b8015613e7557508383905086869050145b8015613e8657508181905084849050145b613ec5576040517f08c379a0000000000000000000000000000000000000000000000000000000008152600401613ebc9061630c565b60405180910390fd5b60005b8a8a90508110156141b2576000606b60008d8d85818110613f12577f4e487b7100000000000000000000000000000000000000000000000000000000600052603260045260246000fd5b9050602002016020810190613f279190615a9a565b6fffffffffffffffffffffffffffffffff166fffffffffffffffffffffffffffffffff1681526020019081526020016000206040518060400160405290816000820160009054906101000a90046fffffffffffffffffffffffffffffffff166fffffffffffffffffffffffffffffffff166fffffffffffffffffffffffffffffffff1681526020016000820160109054906101000a90046fffffffffffffffffffffffffffffffff166fffffffffffffffffffffffffffffffff166fffffffffffffffffffffffffffffffff1681525050905060008160000151905060008260200151905061419c8e8e86818110614048577f4e487b7100000000000000000000000000000000000000000000000000000000600052603260045260246000fd5b905060200201602081019061405d9190615a9a565b8d8d87818110614096577f4e487b7100000000000000000000000000000000000000000000000000000000600052603260045260246000fd5b90506020020160208101906140ab9190615bc8565b8c8c888181106140e4577f4e487b7100000000000000000000000000000000000000000000000000000000600052603260045260246000fd5b90506020020160208101906140f99190615bc8565b8b8b89818110614132577f4e487b7100000000000000000000000000000000000000000000000000000000600052603260045260246000fd5b90506020020160208101906141479190615bc8565b8a8a8a818110614180577f4e487b7100000000000000000000000000000000000000000000000000000000600052603260045260246000fd5b90506020020160208101906141959190615bc8565b8688614a86565b50505080806141aa90616a41565b915050613ec8565b5050505050505050505050565b60655481565b6141cd6142bd565b73ffffffffffffffffffffffffffffffffffffffff166141eb612fd8565b73ffffffffffffffffffffffffffffffffffffffff1614614241576040517f08c379a00000000000000000000000000000000000000000000000000000000081526004016142389061632c565b60405180910390fd5b600073ffffffffffffffffffffffffffffffffffffffff168173ffffffffffffffffffffffffffffffffffffffff1614156142b1576040517f08c379a00000000000000000000000000000000000000000000000000000000081526004016142a89061626c565b60405180910390fd5b6142ba81614558565b50565b600033905090565b6143468363a9059cbb60e01b84846040516024016142e4929190616125565b604051602081830303815290604052907bffffffffffffffffffffffffffffffffffffffffffffffffffffffff19166020820180517bffffffffffffffffffffffffffffffffffffffffffffffffffffffff8381831617835250505050614d5e565b505050565b60006064620151808361435e9190616669565b6143689190616613565b9050919050565b60008060666000876fffffffffffffffffffffffffffffffff166fffffffffffffffffffffffffffffffff168152602001908152602001600020905060008160020160008981526020019081526020016000205490506000806143d489858a89614e25565b905080831461447d576000876fffffffffffffffffffffffffffffffff161461441757614414876fffffffffffffffffffffffffffffffff168285614eee565b91505b808460020160008c815260200190815260200160002081905550886fffffffffffffffffffffffffffffffff168a7f071b836fce05c94433890e1fa43bde325f7bf84311109f1d571c2d075f4361b4836040516144749190616495565b60405180910390a35b8194505050505095945050505050565b60008060006066600085600001516fffffffffffffffffffffffffffffffff166fffffffffffffffffffffffffffffffff168152602001908152602001600020905060006144e3856020015186600001516148c5565b90506000614511836001015483856000015489606001516fffffffffffffffffffffffffffffffff16614f2b565b905061454986604001516fffffffffffffffffffffffffffffffff16828560020160008b815260200190815260200160002054614eee565b93508394505050505092915050565b6000603360009054906101000a900473ffffffffffffffffffffffffffffffffffffffff16905081603360006101000a81548173ffffffffffffffffffffffffffffffffffffffff021916908373ffffffffffffffffffffffffffffffffffffffff1602179055508173ffffffffffffffffffffffffffffffffffffffff168173ffffffffffffffffffffffffffffffffffffffff167f8be0079c531659141344cd1fd0a4f28419497f9722a3daafe3b4186f6b6457e060405160405180910390a35050565b60008060019054906101000a900460ff16156146955760018260ff1614801561464d575061464b30614fd0565b155b61468c576040517f08c379a0000000000000000000000000000000000000000000000000000000008152600401614683906162ec565b60405180910390fd5b60009050614709565b8160ff1660008054906101000a900460ff1660ff16106146ea576040517f08c379a00000000000000000000000000000000000000000000000000000000081526004016146e1906162ec565b60405180910390fd5b816000806101000a81548160ff021916908360ff160217905550600190505b919050565b600060019054906101000a900460ff1661475d576040517f08c379a00000000000000000000000000000000000000000000000000000000081526004016147549061638c565b60405180910390fd5b614765614ff3565b565b6000811480614800575060008373ffffffffffffffffffffffffffffffffffffffff1663dd62ed3e30856040518363ffffffff1660e01b81526004016147ae929190616072565b60206040518083038186803b1580156147c657600080fd5b505afa1580156147da573d6000803e3d6000fd5b505050506040513d601f19601f820116820180604052508101906147fe9190615aec565b145b61483f576040517f08c379a00000000000000000000000000000000000000000000000000000000081526004016148369061640c565b60405180910390fd5b6148c08363095ea7b360e01b848460405160240161485e929190616125565b604051602081830303815290604052907bffffffffffffffffffffffffffffffffffffffffffffffffffffffff19166020820180517bffffffffffffffffffffffffffffffffffffffffffffffffffffffff8381831617835250505050614d5e565b505050565b600080836fffffffffffffffffffffffffffffffff1614156148ea5760009050614a80565b600060676000846fffffffffffffffffffffffffffffffff166fffffffffffffffffffffffffffffffff1681526020019081526020016000206040518060800160405290816000820160009054906101000a900467ffffffffffffffff1667ffffffffffffffff1667ffffffffffffffff1681526020016000820160089054906101000a900467ffffffffffffffff1667ffffffffffffffff1667ffffffffffffffff1681526020016000820160109054906101000a900467ffffffffffffffff1667ffffffffffffffff1667ffffffffffffffff1681526020016000820160189054906101000a900467ffffffffffffffff1667ffffffffffffffff1667ffffffffffffffff168152505090506000816060015167ffffffffffffffff161415614a19576000915050614a80565b614a7c816000015167ffffffffffffffff16826020015167ffffffffffffffff16836040015167ffffffffffffffff16846060015167ffffffffffffffff16886fffffffffffffffffffffffffffffffff1661505490949392919063ffffffff16565b9150505b92915050565b600060666000896fffffffffffffffffffffffffffffffff166fffffffffffffffffffffffffffffffff1681526020019081526020016000209050614acd88828585614e25565b506000606760008a6fffffffffffffffffffffffffffffffff166fffffffffffffffffffffffffffffffff1681526020019081526020016000206040518060800160405290816000820160009054906101000a900467ffffffffffffffff1667ffffffffffffffff1667ffffffffffffffff1681526020016000820160089054906101000a900467ffffffffffffffff1667ffffffffffffffff1667ffffffffffffffff1681526020016000820160109054906101000a900467ffffffffffffffff1667ffffffffffffffff1667ffffffffffffffff1681526020016000820160189054906101000a900467ffffffffffffffff1667ffffffffffffffff1667ffffffffffffffff1681525050905087816000019067ffffffffffffffff16908167ffffffffffffffff168152505086816020019067ffffffffffffffff16908167ffffffffffffffff168152505085816040019067ffffffffffffffff16908167ffffffffffffffff168152505084816060019067ffffffffffffffff16908167ffffffffffffffff168152505080606760008b6fffffffffffffffffffffffffffffffff166fffffffffffffffffffffffffffffffff16815260200190815260200160002060008201518160000160006101000a81548167ffffffffffffffff021916908367ffffffffffffffff16021790555060208201518160000160086101000a81548167ffffffffffffffff021916908367ffffffffffffffff16021790555060408201518160000160106101000a81548167ffffffffffffffff021916908367ffffffffffffffff16021790555060608201518160000160186101000a81548167ffffffffffffffff021916908367ffffffffffffffff160217905550905050505050505050505050565b6000614dc0826040518060400160405280602081526020017f5361666545524332303a206c6f772d6c6576656c2063616c6c206661696c65648152508573ffffffffffffffffffffffffffffffffffffffff166151d49092919063ffffffff16565b9050600081511115614e205780806020019051810190614de09190615a48565b614e1f576040517f08c379a0000000000000000000000000000000000000000000000000000000008152600401614e16906163cc565b60405180910390fd5b5b505050565b6000808460010154905060008560000154905080421415614e4a578192505050614ee6565b6000614e5686896148c5565b90506000614e78848385896fffffffffffffffffffffffffffffffff16614f2b565b9050838114614ed557808860010181905550886fffffffffffffffffffffffffffffffff167fcb31ffb39c83fc617c838bbe029f1c1080f496caefb2aa9636f39b06953d6b1b82604051614ecc9190616495565b60405180910390a25b428860000181905550809450505050505b949350505050565b6000601260ff16600a614f0191906166ed565b8284614f0d91906168e4565b85614f189190616856565b614f229190616669565b90509392505050565b600080841480614f3b5750600082145b80614f4557504283145b80614f5257506065548310155b15614f5f57849050614fc8565b60006065544211614f705742614f74565b6065545b905060008482614f8491906168e4565b90508684601260ff16600a614f9991906166ed565b8389614fa59190616856565b614faf9190616856565b614fb99190616669565b614fc39190616613565b925050505b949350505050565b6000808273ffffffffffffffffffffffffffffffffffffffff163b119050919050565b600060019054906101000a900460ff16615042576040517f08c379a00000000000000000000000000000000000000000000000000000000081526004016150399061638c565b60405180910390fd5b61505261504d6142bd565b614558565b565b6000806150628686866151ec565b905060006150728686848761525e565b9050600061508083866152c3565b9050600061508e848761530b565b905060008060648c6150a09190616856565b9b506064846150af9190616613565b8c11156151425760006064858e6150c691906168e4565b6150d091906168e4565b905080866150de9190616856565b92508360646002836150f09190616738565b6150fa9190616669565b6151049190616613565b91506064808b6151149190616856565b83856151209190616669565b61512a9190616613565b6151349190616669565b9750505050505050506151cb565b60008c6064866151529190616613565b61515c91906168e4565b9050808661516a9190616856565b925083606460028361517c9190616738565b6151869190616669565b6151909190616613565b9150606482846151a09190616669565b60648c6151ad9190616856565b6151b791906168e4565b6151c19190616669565b9750505050505050505b95945050505050565b60606151e3848460008561536d565b90509392505050565b60008084836151fb91906168e4565b633b9aca00848661520c91906168e4565b6152169190616856565b6152209190616669565b9050615249670de0b6b3a7640000828361523a9190616856565b61524491906168e4565b615481565b8161525491906168e4565b9150509392505050565b6000633b9aca00836152709190616613565b64174876e80060018461528391906168e4565b868861528f91906168e4565b600261529b9190616856565b6152a59190616856565b6152af9190616856565b6152b99190616669565b9050949350505050565b6000633b9aca00836152d59190616613565b6064846001856152e591906168e4565b6152ef9190616856565b6152f99190616856565b6153039190616669565b905092915050565b6000662386f26fc100006002633b9aca00856153279190616613565b670de0b6b3a764000060018661533d91906168e4565b6153479190616856565b6153519190616669565b61535b9190616738565b6153659190616669565b905092915050565b6060824710156153b2576040517f08c379a00000000000000000000000000000000000000000000000000000000081526004016153a9906162ac565b60405180910390fd5b6153bb85614fd0565b6153fa576040517f08c379a00000000000000000000000000000000000000000000000000000000081526004016153f19061636c565b60405180910390fd5b6000808673ffffffffffffffffffffffffffffffffffffffff1685876040516154239190616040565b60006040518083038185875af1925050503d8060008114615460576040519150601f19603f3d011682016040523d82523d6000602084013e615465565b606091505b50915091506154758282866154fb565b92505050949350505050565b600060038211156154e857819050600060016002846154a09190616669565b6154aa9190616613565b90505b818110156154e25780915060028182856154c79190616669565b6154d19190616613565b6154db9190616669565b90506154ad565b506154f6565b600082146154f557600190505b5b919050565b6060831561550b5782905061555b565b60008351111561551e5782518084602001fd5b816040517f08c379a0000000000000000000000000000000000000000000000000000000008152600401615552919061620a565b60405180910390fd5b9392505050565b60008135905061557181616ef2565b92915050565b60008151905061558681616ef2565b92915050565b60008083601f84011261559e57600080fd5b8235905067ffffffffffffffff8111156155b757600080fd5b6020830191508360208202830111156155cf57600080fd5b9250929050565b60008083601f8401126155e857600080fd5b8235905067ffffffffffffffff81111561560157600080fd5b60208301915083602082028301111561561957600080fd5b9250929050565b60008083601f84011261563257600080fd5b8235905067ffffffffffffffff81111561564b57600080fd5b60208301915083602082028301111561566357600080fd5b9250929050565b60008151905061567981616f09565b92915050565b60008083601f84011261569157600080fd5b8235905067ffffffffffffffff8111156156aa57600080fd5b6020830191508360018202830111156156c257600080fd5b9250929050565b6000813590506156d881616f20565b92915050565b6000813590506156ed81616f37565b92915050565b60008135905061570281616f4e565b92915050565b60008135905061571781616f65565b92915050565b60008151905061572c81616f65565b92915050565b60008135905061574181616f7c565b92915050565b60008151905061575681616f93565b92915050565b60006020828403121561576e57600080fd5b600061577c84828501615562565b91505092915050565b60006020828403121561579757600080fd5b60006157a584828501615577565b91505092915050565b6000806000806000608086880312156157c657600080fd5b60006157d488828901615562565b95505060206157e588828901615562565b94505060406157f688828901615708565b935050606086013567ffffffffffffffff81111561581357600080fd5b61581f8882890161567f565b92509250509295509295909350565b6000806040838503121561584157600080fd5b600061584f85828601615562565b9250506020615860858286016156de565b9150509250929050565b6000806040838503121561587d57600080fd5b600061588b85828601615562565b925050602061589c858286016156f3565b9150509250929050565b60008060008060008060008060008060a08b8d0312156158c557600080fd5b60008b013567ffffffffffffffff8111156158df57600080fd5b6158eb8d828e0161558c565b9a509a505060208b013567ffffffffffffffff81111561590a57600080fd5b6159168d828e01615620565b985098505060408b013567ffffffffffffffff81111561593557600080fd5b6159418d828e01615620565b965096505060608b013567ffffffffffffffff81111561596057600080fd5b61596c8d828e01615620565b945094505060808b013567ffffffffffffffff81111561598b57600080fd5b6159978d828e01615620565b92509250509295989b9194979a5092959850565b600080602083850312156159be57600080fd5b600083013567ffffffffffffffff8111156159d857600080fd5b6159e4858286016155d6565b92509250509250929050565b600080600060408486031215615a0557600080fd5b600084013567ffffffffffffffff811115615a1f57600080fd5b615a2b868287016155d6565b93509350506020615a3e868287016156f3565b9150509250925092565b600060208284031215615a5a57600080fd5b6000615a688482850161566a565b91505092915050565b600060208284031215615a8357600080fd5b6000615a91848285016156de565b91505092915050565b600060208284031215615aac57600080fd5b6000615aba848285016156f3565b91505092915050565b600060208284031215615ad557600080fd5b6000615ae384828501615708565b91505092915050565b600060208284031215615afe57600080fd5b6000615b0c8482850161571d565b91505092915050565b60008060408385031215615b2857600080fd5b6000615b3685828601615708565b9250506020615b47858286016156f3565b9150509250929050565b600080600080600060a08688031215615b6957600080fd5b6000615b7788828901615708565b9550506020615b8888828901615708565b9450506040615b9988828901615708565b9350506060615baa888289016156c9565b9250506080615bbb888289016156de565b9150509295509295909350565b600060208284031215615bda57600080fd5b6000615be884828501615732565b91505092915050565b600060208284031215615c0357600080fd5b6000615c1184828501615747565b91505092915050565b6000615c268383616004565b60208301905092915050565b615c3b81616918565b82525050565b6000615c4d83856165a0565b93507f07ffffffffffffffffffffffffffffffffffffffffffffffffffffffffffffff831115615c7c57600080fd5b602083029250615c8d8385846169ff565b82840190509392505050565b6000615ca482616572565b615cae81856165a0565b9350615cb983616562565b8060005b83811015615cea578151615cd18882615c1a565b9750615cdc83616593565b925050600181019050615cbd565b5085935050505092915050565b615d0081616936565b82525050565b6000615d118261657d565b615d1b81856165b1565b9350615d2b818560208601616a0e565b80840191505092915050565b615d40816169ed565b82525050565b6000615d5182616588565b615d5b81856165bc565b9350615d6b818560208601616a0e565b615d7481616ae8565b840191505092915050565b6000615d8c601d836165bc565b9150615d9782616b06565b602082019050919050565b6000615daf6016836165bc565b9150615dba82616b2f565b602082019050919050565b6000615dd26026836165bc565b9150615ddd82616b58565b604082019050919050565b6000615df5600d836165bc565b9150615e0082616ba7565b602082019050919050565b6000615e186026836165bc565b9150615e2382616bd0565b604082019050919050565b6000615e3b6021836165bc565b9150615e4682616c1f565b604082019050919050565b6000615e5e602e836165bc565b9150615e6982616c6e565b604082019050919050565b6000615e816016836165bc565b9150615e8c82616cbd565b602082019050919050565b6000615ea46020836165bc565b9150615eaf82616ce6565b602082019050919050565b6000615ec7601e836165bc565b9150615ed282616d0f565b602082019050919050565b6000615eea601d836165bc565b9150615ef582616d38565b602082019050919050565b6000615f0d602b836165bc565b9150615f1882616d61565b604082019050919050565b6000615f30600f836165bc565b9150615f3b82616db0565b602082019050919050565b6000615f53602a836165bc565b9150615f5e82616dd9565b604082019050919050565b6000615f766017836165bc565b9150615f8182616e28565b602082019050919050565b6000615f996036836165bc565b9150615fa482616e51565b604082019050919050565b6000615fbc6016836165bc565b9150615fc782616ea0565b602082019050919050565b6000615fdf6016836165bc565b9150615fea82616ec9565b602082019050919050565b615ffe81616986565b82525050565b61600d816169c2565b82525050565b61601c816169c2565b82525050565b61602b816169cc565b82525050565b61603a816169e0565b82525050565b600061604c8284615d06565b915081905092915050565b600060208201905061606c6000830184615c32565b92915050565b60006040820190506160876000830185615c32565b6160946020830184615c32565b9392505050565b60006060820190506160b06000830186615c32565b6160bd6020830185615c32565b6160ca6040830184616013565b949350505050565b600060a0820190506160e76000830188615c32565b6160f46020830187615ff5565b6161016040830186615ff5565b61610e6060830185615ff5565b61611b6080830184615ff5565b9695505050505050565b600060408201905061613a6000830185615c32565b6161476020830184616013565b9392505050565b60006040820190508181036000830152616169818587615c41565b90506161786020830184615ff5565b949350505050565b6000604082019050818103600083015261619b818587615c41565b90506161aa6020830184616013565b949350505050565b600060208201905081810360008301526161cc8184615c99565b905092915050565b60006020820190506161e96000830184615cf7565b92915050565b60006020820190506162046000830184615d37565b92915050565b600060208201905081810360008301526162248184615d46565b905092915050565b6000602082019050818103600083015261624581615d7f565b9050919050565b6000602082019050818103600083015261626581615da2565b9050919050565b6000602082019050818103600083015261628581615dc5565b9050919050565b600060208201905081810360008301526162a581615de8565b9050919050565b600060208201905081810360008301526162c581615e0b565b9050919050565b600060208201905081810360008301526162e581615e2e565b9050919050565b6000602082019050818103600083015261630581615e51565b9050919050565b6000602082019050818103600083015261632581615e74565b9050919050565b6000602082019050818103600083015261634581615e97565b9050919050565b6000602082019050818103600083015261636581615eba565b9050919050565b6000602082019050818103600083015261638581615edd565b9050919050565b600060208201905081810360008301526163a581615f00565b9050919050565b600060208201905081810360008301526163c581615f23565b9050919050565b600060208201905081810360008301526163e581615f46565b9050919050565b6000602082019050818103600083015261640581615f69565b9050919050565b6000602082019050818103600083015261642581615f8c565b9050919050565b6000602082019050818103600083015261644581615faf565b9050919050565b6000602082019050818103600083015261646581615fd2565b9050919050565b60006040820190506164816000830185615ff5565b61648e6020830184615ff5565b9392505050565b60006020820190506164aa6000830184616013565b92915050565b60006040820190506164c56000830185616013565b6164d26020830184615ff5565b9392505050565b60006040820190506164ee6000830185616013565b6164fb6020830184616013565b9392505050565b60006080820190506165176000830187616022565b6165246020830186616022565b6165316040830185616022565b61653e6060830184616022565b95945050505050565b600060208201905061655c6000830184616031565b92915050565b6000819050602082019050919050565b600081519050919050565b600081519050919050565b600081519050919050565b6000602082019050919050565b600082825260208201905092915050565b600081905092915050565b600082825260208201905092915050565b60006165d882616986565b91506165e383616986565b9250826fffffffffffffffffffffffffffffffff0382111561660857616607616a8a565b5b828201905092915050565b600061661e826169c2565b9150616629836169c2565b9250827fffffffffffffffffffffffffffffffffffffffffffffffffffffffffffffffff0382111561665e5761665d616a8a565b5b828201905092915050565b6000616674826169c2565b915061667f836169c2565b92508261668f5761668e616ab9565b5b828204905092915050565b6000808291508390505b60018511156166e4578086048111156166c0576166bf616a8a565b5b60018516156166cf5780820291505b80810290506166dd85616af9565b94506166a4565b94509492505050565b60006166f8826169c2565b9150616703836169c2565b92506167307fffffffffffffffffffffffffffffffffffffffffffffffffffffffffffffffff8484616783565b905092915050565b6000616743826169c2565b915061674e836169e0565b925061677b7fffffffffffffffffffffffffffffffffffffffffffffffffffffffffffffffff8484616783565b905092915050565b600082616793576001905061684f565b816167a1576000905061684f565b81600181146167b757600281146167c1576167f0565b600191505061684f565b60ff8411156167d3576167d2616a8a565b5b8360020a9150848211156167ea576167e9616a8a565b5b5061684f565b5060208310610133831016604e8410600b84101617156168255782820a9050838111156168205761681f616a8a565b5b61684f565b616832848484600161669a565b9250905081840481111561684957616848616a8a565b5b81810290505b9392505050565b6000616861826169c2565b915061686c836169c2565b9250817fffffffffffffffffffffffffffffffffffffffffffffffffffffffffffffffff04831182151516156168a5576168a4616a8a565b5b828202905092915050565b60006168bb82616986565b91506168c683616986565b9250828210156168d9576168d8616a8a565b5b828203905092915050565b60006168ef826169c2565b91506168fa836169c2565b92508282101561690d5761690c616a8a565b5b828203905092915050565b6000616923826169a2565b9050919050565b60008115159050919050565b60007fffffffff0000000000000000000000000000000000000000000000000000000082169050919050565b600061696d82616918565b9050919050565b600061697f82616918565b9050919050565b60006fffffffffffffffffffffffffffffffff82169050919050565b600073ffffffffffffffffffffffffffffffffffffffff82169050919050565b6000819050919050565b600067ffffffffffffffff82169050919050565b600060ff82169050919050565b60006169f8826169e0565b9050919050565b82818337600083830152505050565b60005b83811015616a2c578082015181840152602081019050616a11565b83811115616a3b576000848401525b50505050565b6000616a4c826169c2565b91507fffffffffffffffffffffffffffffffffffffffffffffffffffffffffffffffff821415616a7f57616a7e616a8a565b5b600182019050919050565b7f4e487b7100000000000000000000000000000000000000000000000000000000600052601160045260246000fd5b7f4e487b7100000000000000000000000000000000000000000000000000000000600052601260045260246000fd5b6000601f19601f8301169050919050565b60008160011c9050919050565b7f494e56414c494420414444524553533a205f6e6674436f6e7472616374000000600082015250565b7f506f6c697368207468652077726f6e67207661756c7400000000000000000000600082015250565b7f4f776e61626c653a206e6577206f776e657220697320746865207a65726f206160008201527f6464726573730000000000000000000000000000000000000000000000000000602082015250565b7f4e6f7420612077616c6c65742100000000000000000000000000000000000000600082015250565b7f416464726573733a20696e73756666696369656e742062616c616e636520666f60008201527f722063616c6c0000000000000000000000000000000000000000000000000000602082015250565b7f54686520726172697479206f6620746865206e667420646f65736e277420666960008201527f7400000000000000000000000000000000000000000000000000000000000000602082015250565b7f496e697469616c697a61626c653a20636f6e747261637420697320616c72656160008201527f647920696e697469616c697a6564000000000000000000000000000000000000602082015250565b7f4e6f7420696e207468652073616d65206c656e67746800000000000000000000600082015250565b7f4f776e61626c653a2063616c6c6572206973206e6f7420746865206f776e6572600082015250565b7f494e56414c494420414444524553533a205f7374616b696e67546f6b656e0000600082015250565b7f416464726573733a2063616c6c20746f206e6f6e2d636f6e7472616374000000600082015250565b7f496e697469616c697a61626c653a20636f6e7472616374206973206e6f74206960008201527f6e697469616c697a696e67000000000000000000000000000000000000000000602082015250565b7f494e56414c494420414444524553530000000000000000000000000000000000600082015250565b7f5361666545524332303a204552433230206f7065726174696f6e20646964206e60008201527f6f74207375636365656400000000000000000000000000000000000000000000602082015250565b7f596f7520646f206e6f74206f776e2074686973204e4654000000000000000000600082015250565b7f5361666545524332303a20617070726f76652066726f6d206e6f6e2d7a65726f60008201527f20746f206e6f6e2d7a65726f20616c6c6f77616e636500000000000000000000602082015250565b7f52656465656d207468652077726f6e67207661756c7400000000000000000000600082015250565b7f494e56414c49442050455243454e544147452046454500000000000000000000600082015250565b616efb81616918565b8114616f0657600080fd5b50565b616f128161692a565b8114616f1d57600080fd5b50565b616f2981616962565b8114616f3457600080fd5b50565b616f4081616974565b8114616f4b57600080fd5b50565b616f5781616986565b8114616f6257600080fd5b50565b616f6e816169c2565b8114616f7957600080fd5b50565b616f85816169cc565b8114616f9057600080fd5b50565b616f9c816169e0565b8114616fa757600080fd5b5056fea26469706673582212206eb4269f397606ea59022c81ff69543b2e61a4698c4852aa8617dd698c55f92264736f6c63430008040033",
  "linkReferences": {},
  "deployedLinkReferences": {}
}