{
  "_format": "hh-sol-artifact-1",
  "contractName": "FarmingBasedEXP",
  "sourceName": "contracts/FarmingBasedEXP.sol",
  "abi": [
    {
      "anonymous": false,
      "inputs": [
        {
          "indexed": true,
          "internalType": "address",
          "name": "user",
          "type": "address"
        },
        {
          "indexed": false,
          "internalType": "uint256[]",
          "name": "nftIds",
          "type": "uint256[]"
        },
        {
          "indexed": true,
          "internalType": "uint128",
          "name": "level",
          "type": "uint128"
        },
        {
          "indexed": false,
          "internalType": "uint256",
          "name": "amout",
          "type": "uint256"
        }
      ],
      "name": "ClaimReward",
      "type": "event"
    },
    {
      "anonymous": false,
      "inputs": [
        {
          "indexed": false,
          "internalType": "uint8",
          "name": "version",
          "type": "uint8"
        }
      ],
      "name": "Initialized",
      "type": "event"
    },
    {
      "anonymous": false,
      "inputs": [
        {
          "indexed": true,
          "internalType": "uint256",
          "name": "nft",
          "type": "uint256"
        },
        {
          "indexed": true,
          "internalType": "uint128",
          "name": "poolNumber",
          "type": "uint128"
        },
        {
          "indexed": false,
          "internalType": "uint256",
          "name": "index",
          "type": "uint256"
        }
      ],
      "name": "NFTIndexUpdated",
      "type": "event"
    },
    {
      "anonymous": false,
      "inputs": [
        {
          "indexed": true,
          "internalType": "address",
          "name": "previousOwner",
          "type": "address"
        },
        {
          "indexed": true,
          "internalType": "address",
          "name": "newOwner",
          "type": "address"
        }
      ],
      "name": "OwnershipTransferred",
      "type": "event"
    },
    {
      "anonymous": false,
      "inputs": [
        {
          "indexed": true,
          "internalType": "address",
          "name": "user",
          "type": "address"
        },
        {
          "indexed": false,
          "internalType": "uint256[]",
          "name": "nftIds",
          "type": "uint256[]"
        },
        {
          "indexed": false,
          "internalType": "uint128",
          "name": "level",
          "type": "uint128"
        }
      ],
      "name": "PolishNFT",
      "type": "event"
    },
    {
      "anonymous": false,
      "inputs": [
        {
          "indexed": true,
          "internalType": "uint128",
          "name": "poolNumber",
          "type": "uint128"
        },
        {
          "indexed": false,
          "internalType": "uint256",
          "name": "index",
          "type": "uint256"
        }
      ],
      "name": "PoolIndexUpdated",
      "type": "event"
    },
    {
      "anonymous": false,
      "inputs": [
        {
          "indexed": true,
          "internalType": "address",
          "name": "user",
          "type": "address"
        },
        {
          "indexed": false,
          "internalType": "uint256[]",
          "name": "nftIds",
          "type": "uint256[]"
        },
        {
          "indexed": true,
          "internalType": "uint256",
          "name": "level",
          "type": "uint256"
        },
        {
          "indexed": false,
          "internalType": "uint256",
          "name": "amount",
          "type": "uint256"
        }
      ],
      "name": "RedeemAndClaim",
      "type": "event"
    },
    {
      "anonymous": false,
      "inputs": [
        {
          "indexed": true,
          "internalType": "address",
          "name": "user",
          "type": "address"
        },
        {
          "indexed": false,
          "internalType": "uint256[]",
          "name": "nftIds",
          "type": "uint256[]"
        },
        {
          "indexed": false,
          "internalType": "uint128",
          "name": "level",
          "type": "uint128"
        }
      ],
      "name": "Stake",
      "type": "event"
    },
    {
      "inputs": [],
      "name": "PRECISION",
      "outputs": [
        {
          "internalType": "uint8",
          "name": "",
          "type": "uint8"
        }
      ],
      "stateMutability": "view",
      "type": "function"
    },
    {
      "inputs": [
        {
          "internalType": "address",
          "name": "",
          "type": "address"
        },
        {
          "internalType": "uint128",
          "name": "",
          "type": "uint128"
        }
      ],
      "name": "balances",
      "outputs": [
        {
          "internalType": "uint256",
          "name": "",
          "type": "uint256"
        }
      ],
      "stateMutability": "view",
      "type": "function"
    },
    {
      "inputs": [
        {
          "internalType": "uint256[]",
          "name": "_ids",
          "type": "uint256[]"
        },
        {
          "internalType": "uint128",
          "name": "_level",
          "type": "uint128"
        }
      ],
      "name": "claimReward",
      "outputs": [],
      "stateMutability": "nonpayable",
      "type": "function"
    },
    {
      "inputs": [],
      "name": "cooldownTime",
      "outputs": [
        {
          "internalType": "uint256",
          "name": "",
          "type": "uint256"
        }
      ],
      "stateMutability": "view",
      "type": "function"
    },
    {
      "inputs": [],
      "name": "distributionEnd",
      "outputs": [
        {
          "internalType": "uint256",
          "name": "",
          "type": "uint256"
        }
      ],
      "stateMutability": "view",
      "type": "function"
    },
    {
      "inputs": [
        {
          "internalType": "uint128",
          "name": "",
          "type": "uint128"
        }
      ],
      "name": "emissionParameters",
      "outputs": [
        {
          "internalType": "uint64",
          "name": "coefficientX",
          "type": "uint64"
        },
        {
          "internalType": "uint64",
          "name": "coefficientY",
          "type": "uint64"
        },
        {
          "internalType": "uint64",
          "name": "coefficientZ",
          "type": "uint64"
        },
        {
          "internalType": "uint64",
          "name": "coefficientM",
          "type": "uint64"
        }
      ],
      "stateMutability": "view",
      "type": "function"
    },
    {
      "inputs": [
        {
          "internalType": "uint128",
          "name": "_level",
          "type": "uint128"
        }
      ],
      "name": "getEmissionPerSecond",
      "outputs": [
        {
          "internalType": "uint256",
          "name": "",
          "type": "uint256"
        }
      ],
      "stateMutability": "view",
      "type": "function"
    },
    {
      "inputs": [
        {
          "internalType": "uint256",
          "name": "_id",
          "type": "uint256"
        }
      ],
      "name": "getExpEarnedAndValueEarned",
      "outputs": [
        {
          "internalType": "uint256",
          "name": "",
          "type": "uint256"
        },
        {
          "internalType": "uint128",
          "name": "",
          "type": "uint128"
        }
      ],
      "stateMutability": "view",
      "type": "function"
    },
    {
      "inputs": [
        {
          "internalType": "uint256",
          "name": "nft",
          "type": "uint256"
        },
        {
          "internalType": "uint128",
          "name": "poolNumber",
          "type": "uint128"
        }
      ],
      "name": "getNFTPoolData",
      "outputs": [
        {
          "internalType": "uint256",
          "name": "",
          "type": "uint256"
        }
      ],
      "stateMutability": "view",
      "type": "function"
    },
    {
      "inputs": [
        {
          "internalType": "address",
          "name": "_user",
          "type": "address"
        },
        {
          "internalType": "uint128",
          "name": "_level",
          "type": "uint128"
        }
      ],
      "name": "getStakingNFTinALevel",
      "outputs": [
        {
          "internalType": "uint256[]",
          "name": "",
          "type": "uint256[]"
        }
      ],
      "stateMutability": "view",
      "type": "function"
    },
    {
      "inputs": [
        {
          "internalType": "uint256[]",
          "name": "_ids",
          "type": "uint256[]"
        }
      ],
      "name": "getTotalRewardsBalance",
      "outputs": [
        {
          "internalType": "uint256",
          "name": "",
          "type": "uint256"
        }
      ],
      "stateMutability": "view",
      "type": "function"
    },
    {
      "inputs": [
        {
          "internalType": "uint256",
          "name": "distributionDuration",
          "type": "uint256"
        }
      ],
      "name": "increaseDistribution",
      "outputs": [],
      "stateMutability": "nonpayable",
      "type": "function"
    },
    {
      "inputs": [
        {
          "internalType": "uint256",
          "name": "_distributionDuration",
          "type": "uint256"
        },
        {
          "internalType": "uint256",
          "name": "_cooldownTime",
          "type": "uint256"
        },
        {
          "internalType": "uint256",
          "name": "_percentageFee",
          "type": "uint256"
        },
        {
          "internalType": "contract INFTCollection",
          "name": "_nftContract",
          "type": "address"
        },
        {
          "internalType": "contract IERC20Upgradeable",
          "name": "_rewardToken",
          "type": "address"
        },
        {
          "internalType": "address",
          "name": "_receiveVault",
          "type": "address"
        },
        {
          "internalType": "address",
          "name": "_rewardsVault",
          "type": "address"
        }
      ],
      "name": "initialize",
      "outputs": [],
      "stateMutability": "nonpayable",
      "type": "function"
    },
    {
      "inputs": [
        {
          "internalType": "uint256",
          "name": "",
          "type": "uint256"
        }
      ],
      "name": "nftInfos",
      "outputs": [
        {
          "internalType": "address",
          "name": "owner",
          "type": "address"
        },
        {
          "internalType": "uint128",
          "name": "value",
          "type": "uint128"
        },
        {
          "internalType": "uint128",
          "name": "level",
          "type": "uint128"
        },
        {
          "internalType": "uint128",
          "name": "lastPolishTime",
          "type": "uint128"
        },
        {
          "internalType": "uint128",
          "name": "depositTime",
          "type": "uint128"
        }
      ],
      "stateMutability": "view",
      "type": "function"
    },
    {
      "inputs": [
        {
          "internalType": "uint256",
          "name": "",
          "type": "uint256"
        }
      ],
      "name": "nftRewardsToClaim",
      "outputs": [
        {
          "internalType": "uint256",
          "name": "",
          "type": "uint256"
        }
      ],
      "stateMutability": "view",
      "type": "function"
    },
    {
      "inputs": [
        {
          "internalType": "address",
          "name": "operator",
          "type": "address"
        },
        {
          "internalType": "address",
          "name": "from",
          "type": "address"
        },
        {
          "internalType": "uint256",
          "name": "tokenId",
          "type": "uint256"
        },
        {
          "internalType": "bytes",
          "name": "data",
          "type": "bytes"
        }
      ],
      "name": "onERC721Received",
      "outputs": [
        {
          "internalType": "bytes4",
          "name": "",
          "type": "bytes4"
        }
      ],
      "stateMutability": "nonpayable",
      "type": "function"
    },
    {
      "inputs": [],
      "name": "owner",
      "outputs": [
        {
          "internalType": "address",
          "name": "",
          "type": "address"
        }
      ],
      "stateMutability": "view",
      "type": "function"
    },
    {
      "inputs": [],
      "name": "percentageFee",
      "outputs": [
        {
          "internalType": "uint256",
          "name": "",
          "type": "uint256"
        }
      ],
      "stateMutability": "view",
      "type": "function"
    },
    {
      "inputs": [
        {
          "internalType": "uint256[]",
          "name": "_ids",
          "type": "uint256[]"
        },
        {
          "internalType": "uint128",
          "name": "_level",
          "type": "uint128"
        }
      ],
      "name": "polishNFT",
      "outputs": [],
      "stateMutability": "nonpayable",
      "type": "function"
    },
    {
      "inputs": [
        {
          "internalType": "uint128",
          "name": "",
          "type": "uint128"
        }
      ],
      "name": "poolInfos",
      "outputs": [
        {
          "internalType": "uint128",
          "name": "totalValue",
          "type": "uint128"
        },
        {
          "internalType": "uint128",
          "name": "nftCount",
          "type": "uint128"
        }
      ],
      "stateMutability": "view",
      "type": "function"
    },
    {
      "inputs": [
        {
          "internalType": "uint128",
          "name": "",
          "type": "uint128"
        }
      ],
      "name": "pools",
      "outputs": [
        {
          "internalType": "uint256",
          "name": "lastUpdateTimestamp",
          "type": "uint256"
        },
        {
          "internalType": "uint256",
          "name": "index",
          "type": "uint256"
        }
      ],
      "stateMutability": "view",
      "type": "function"
    },
    {
      "inputs": [
        {
          "internalType": "uint256[]",
          "name": "_ids",
          "type": "uint256[]"
        },
        {
          "internalType": "uint128",
          "name": "_level",
          "type": "uint128"
        }
      ],
      "name": "redeemAndClaim",
      "outputs": [],
      "stateMutability": "nonpayable",
      "type": "function"
    },
    {
      "inputs": [],
      "name": "renounceOwnership",
      "outputs": [],
      "stateMutability": "nonpayable",
      "type": "function"
    },
    {
      "inputs": [
        {
          "internalType": "uint128[]",
          "name": "_level",
          "type": "uint128[]"
        },
        {
          "internalType": "uint64[]",
          "name": "_x",
          "type": "uint64[]"
        },
        {
          "internalType": "uint64[]",
          "name": "_y",
          "type": "uint64[]"
        },
        {
          "internalType": "uint64[]",
          "name": "_z",
          "type": "uint64[]"
        },
        {
          "internalType": "uint64[]",
          "name": "_m",
          "type": "uint64[]"
        }
      ],
      "name": "setCoefficient",
      "outputs": [],
      "stateMutability": "nonpayable",
      "type": "function"
    },
    {
      "inputs": [
        {
          "internalType": "uint256",
          "name": "_cooldownTime",
          "type": "uint256"
        }
      ],
      "name": "setCooldownTime",
      "outputs": [],
      "stateMutability": "nonpayable",
      "type": "function"
    },
    {
      "inputs": [
        {
          "internalType": "uint256",
          "name": "_percentageFee",
          "type": "uint256"
        }
      ],
      "name": "setPercentageFee",
      "outputs": [],
      "stateMutability": "nonpayable",
      "type": "function"
    },
    {
      "inputs": [
        {
          "internalType": "address",
          "name": "_receiveVault",
          "type": "address"
        }
      ],
      "name": "setReceiveVault",
      "outputs": [],
      "stateMutability": "nonpayable",
      "type": "function"
    },
    {
      "inputs": [
        {
          "internalType": "contract IERC20Upgradeable",
          "name": "_rewardToken",
          "type": "address"
        }
      ],
      "name": "setRewardToken",
      "outputs": [],
      "stateMutability": "nonpayable",
      "type": "function"
    },
    {
      "inputs": [
        {
          "internalType": "address",
          "name": "_rewardsVault",
          "type": "address"
        }
      ],
      "name": "setRewardsVault",
      "outputs": [],
      "stateMutability": "nonpayable",
      "type": "function"
    },
    {
      "inputs": [
        {
          "internalType": "uint256[]",
          "name": "_ids",
          "type": "uint256[]"
        },
        {
          "internalType": "uint128",
          "name": "_level",
          "type": "uint128"
        }
      ],
      "name": "stake",
      "outputs": [],
      "stateMutability": "nonpayable",
      "type": "function"
    },
    {
      "inputs": [
        {
          "internalType": "address",
          "name": "_receiver",
          "type": "address"
        }
      ],
      "name": "transferAllRewardToken",
      "outputs": [],
      "stateMutability": "nonpayable",
      "type": "function"
    },
    {
      "inputs": [
        {
          "internalType": "address",
          "name": "newOwner",
          "type": "address"
        }
      ],
      "name": "transferOwnership",
      "outputs": [],
      "stateMutability": "nonpayable",
      "type": "function"
    }
  ],
  "bytecode": "0x608060405234801561001057600080fd5b5061774480620000216000396000f3fe608060405234801561001057600080fd5b50600436106101f05760003560e01c8063715018a61161010f578063aaf5eb68116100a2578063e482d82211610071578063e482d822146105f5578063efa90b5414610611578063f2fde38b1461062f578063f5bb3e021461064b576101f0565b8063aaf5eb681461056d578063aba7757c1461058b578063b19873ae146105a7578063b319c6b7146105d7576101f0565b80638aee8127116100de5780638aee8127146104fb5780638da5cb5b14610517578063a1215f1314610535578063a861e11314610551576101f0565b8063715018a614610487578063780a7ff0146104915780637c43d737146104af5780638a45f48e146104cb576101f0565b80634a57e1da116101875780635b93f201116101565780635b93f201146103ec5780635f7744981461041c578063663ecbcf1461044f5780636ff732011461046b576101f0565b80634a57e1da1461033b5780634bc834eb1461036c578063573cfaa0146103a057806359bcc987146103d0576101f0565b80632739a44f116101c35780632739a44f1461028e5780632e8d3e98146102aa5780633c27e8d3146102da5780633e54cadb1461030b576101f0565b806303411282146101f557806304e16ede146102115780630fc6540714610242578063150b7a021461025e575b600080fd5b61020f600480360381019061020a9190615eb1565b610667565b005b61022b6004803603810190610226919061618a565b6107dd565b604051610239929190616c3a565b60405180910390f35b61025c60048036038101906102579190616241565b610801565b005b61027860048036038101906102739190615eda565b610bc5565b60405161028591906168e5565b60405180910390f35b6102a860048036038101906102a391906160e0565b610bda565b005b6102c460048036038101906102bf9190616205565b611429565b6040516102d19190616bf6565b60405180910390f35b6102f460048036038101906102ef919061618a565b61147f565b604051610302929190616bcd565b60405180910390f35b6103256004803603810190610320919061609b565b6114db565b6040516103329190616bf6565b60405180910390f35b610355600480360381019061035091906161b3565b61193e565b604051610363929190616c11565b60405180910390f35b610386600480360381019061038191906161b3565b611b28565b6040516103979594939291906167e3565b60405180910390f35b6103ba60048036038101906103b59190615f5a565b611bee565b6040516103c791906168c3565b60405180910390f35b6103ea60048036038101906103e591906160e0565b612103565b005b61040660048036038101906104019190615f5a565b612b81565b6040516104139190616bf6565b60405180910390f35b6104366004803603810190610431919061618a565b612ba6565b6040516104469493929190616c63565b60405180910390f35b610469600480360381019061046491906160e0565b612c26565b005b610485600480360381019061048091906161b3565b6136fb565b005b61048f613781565b005b610499613809565b6040516104a69190616bf6565b60405180910390f35b6104c960048036038101906104c491906161b3565b61380f565b005b6104e560048036038101906104e091906161b3565b6138a2565b6040516104f29190616bf6565b60405180910390f35b61051560048036038101906105109190616161565b6138ba565b005b61051f6139ea565b60405161052c9190616791565b60405180910390f35b61054f600480360381019061054a91906161b3565b613a14565b005b61056b600480360381019061056691906160e0565b613adf565b005b610575614390565b6040516105829190616ca8565b60405180910390f35b6105a560048036038101906105a09190615eb1565b614395565b005b6105c160048036038101906105bc919061618a565b6144c5565b6040516105ce9190616bf6565b60405180910390f35b6105df6145bc565b6040516105ec9190616bf6565b60405180910390f35b61060f600480360381019061060a9190615f96565b6145c2565b005b610619614875565b6040516106269190616bf6565b60405180910390f35b61064960048036038101906106449190615eb1565b61487b565b005b61066560048036038101906106609190615eb1565b614973565b005b61066f614aa3565b73ffffffffffffffffffffffffffffffffffffffff1661068d6139ea565b73ffffffffffffffffffffffffffffffffffffffff16146106e3576040517f08c379a00000000000000000000000000000000000000000000000000000000081526004016106da90616aad565b60405180910390fd5b6107da81606e60009054906101000a900473ffffffffffffffffffffffffffffffffffffffff1673ffffffffffffffffffffffffffffffffffffffff166370a08231306040518263ffffffff1660e01b81526004016107429190616791565b60206040518083038186803b15801561075a57600080fd5b505afa15801561076e573d6000803e3d6000fd5b505050506040513d601f19601f8201168201806040525081019061079291906161dc565b606e60009054906101000a900473ffffffffffffffffffffffffffffffffffffffff1673ffffffffffffffffffffffffffffffffffffffff16614aab9092919063ffffffff16565b50565b60666020528060005260406000206000915090508060000154908060010154905082565b600061080d6001614b31565b90508015610831576001600060016101000a81548160ff0219169083151502179055505b600073ffffffffffffffffffffffffffffffffffffffff168573ffffffffffffffffffffffffffffffffffffffff1614156108a1576040517f08c379a00000000000000000000000000000000000000000000000000000000081526004016108989061696d565b60405180910390fd5b600073ffffffffffffffffffffffffffffffffffffffff168473ffffffffffffffffffffffffffffffffffffffff161415610911576040517f08c379a000000000000000000000000000000000000000000000000000000000815260040161090890616a0d565b60405180910390fd5b600073ffffffffffffffffffffffffffffffffffffffff168373ffffffffffffffffffffffffffffffffffffffff161415610981576040517f08c379a000000000000000000000000000000000000000000000000000000000815260040161097890616a6d565b60405180910390fd5b600073ffffffffffffffffffffffffffffffffffffffff168273ffffffffffffffffffffffffffffffffffffffff1614156109f1576040517f08c379a00000000000000000000000000000000000000000000000000000000081526004016109e890616acd565b60405180910390fd5b612710861115610a36576040517f08c379a0000000000000000000000000000000000000000000000000000000008152600401610a2d90616bad565b60405180910390fd5b610a3e614c21565b84606f60006101000a81548173ffffffffffffffffffffffffffffffffffffffff021916908373ffffffffffffffffffffffffffffffffffffffff16021790555083606e60006101000a81548173ffffffffffffffffffffffffffffffffffffffff021916908373ffffffffffffffffffffffffffffffffffffffff16021790555082606c60006101000a81548173ffffffffffffffffffffffffffffffffffffffff021916908373ffffffffffffffffffffffffffffffffffffffff16021790555081606d60006101000a81548173ffffffffffffffffffffffffffffffffffffffff021916908373ffffffffffffffffffffffffffffffffffffffff16021790555086607081905550856071819055508742610b5c9190616d74565b6065819055508015610bbb5760008060016101000a81548160ff0219169083151502179055507f7f26b83ff96e1f2b6a682f133852f6798a09c465da95921460cefb38474024986001604051610bb29190616900565b60405180910390a15b5050505050505050565b600063150b7a0260e01b905095945050505050565b3273ffffffffffffffffffffffffffffffffffffffff163373ffffffffffffffffffffffffffffffffffffffff1614610c48576040517f08c379a0000000000000000000000000000000000000000000000000000000008152600401610c3f906169cd565b60405180910390fd5b600080606b6000846fffffffffffffffffffffffffffffffff166fffffffffffffffffffffffffffffffff1681526020019081526020016000206040518060400160405290816000820160009054906101000a90046fffffffffffffffffffffffffffffffff166fffffffffffffffffffffffffffffffff166fffffffffffffffffffffffffffffffff1681526020016000820160109054906101000a90046fffffffffffffffffffffffffffffffff166fffffffffffffffffffffffffffffffff166fffffffffffffffffffffffffffffffff1681525050905060008160000151905060008260200151905060005b87879050811015611205576000888883818110610d7e577f4e487b7100000000000000000000000000000000000000000000000000000000600052603260045260246000fd5b905060200201359050606f60009054906101000a900473ffffffffffffffffffffffffffffffffffffffff1673ffffffffffffffffffffffffffffffffffffffff166323b872dd3330846040518463ffffffff1660e01b8152600401610de6939291906167ac565b600060405180830381600087803b158015610e0057600080fd5b505af1158015610e14573d6000803e3d6000fd5b505050506000606f60009054906101000a900473ffffffffffffffffffffffffffffffffffffffff1673ffffffffffffffffffffffffffffffffffffffff1663bef5ccd8836040518263ffffffff1660e01b8152600401610e759190616bf6565b60206040518083038186803b158015610e8d57600080fd5b505afa158015610ea1573d6000803e3d6000fd5b505050506040513d601f19601f82011682018060405250810190610ec59190616308565b60ff169050876fffffffffffffffffffffffffffffffff16816fffffffffffffffffffffffffffffffff161015610f31576040517f08c379a0000000000000000000000000000000000000000000000000000000008152600401610f2890616a2d565b60405180910390fd5b6000606f60009054906101000a900473ffffffffffffffffffffffffffffffffffffffff1673ffffffffffffffffffffffffffffffffffffffff16633efd73cc846040518263ffffffff1660e01b8152600401610f8e9190616bf6565b60206040518083038186803b158015610fa657600080fd5b505afa158015610fba573d6000803e3d6000fd5b505050506040513d601f19601f82011682018060405250810190610fde91906161dc565b90506000610feb82614c7a565b90508089610ff99190616d2e565b985060006040518060a001604052803373ffffffffffffffffffffffffffffffffffffffff168152602001836fffffffffffffffffffffffffffffffff1681526020018c6fffffffffffffffffffffffffffffffff168152602001426fffffffffffffffffffffffffffffffff168152602001426fffffffffffffffffffffffffffffffff168152509050806068600087815260200190815260200160002060008201518160000160006101000a81548173ffffffffffffffffffffffffffffffffffffffff021916908373ffffffffffffffffffffffffffffffffffffffff16021790555060208201518160010160006101000a8154816fffffffffffffffffffffffffffffffff02191690836fffffffffffffffffffffffffffffffff16021790555060408201518160010160106101000a8154816fffffffffffffffffffffffffffffffff02191690836fffffffffffffffffffffffffffffffff16021790555060608201518160020160006101000a8154816fffffffffffffffffffffffffffffffff02191690836fffffffffffffffffffffffffffffffff16021790555060808201518160020160106101000a8154816fffffffffffffffffffffffffffffffff02191690836fffffffffffffffffffffffffffffffff1602179055509050506111ec858c60008a8c614c9e565b50505050505080806111fd906171a2565b915050610d38565b5086869050606a60003373ffffffffffffffffffffffffffffffffffffffff1673ffffffffffffffffffffffffffffffffffffffff1681526020019081526020016000206000876fffffffffffffffffffffffffffffffff166fffffffffffffffffffffffffffffffff168152602001908152602001600020600082825461128d9190616d74565b9250508190555083836000018181516112a69190616d2e565b9150906fffffffffffffffffffffffffffffffff1690816fffffffffffffffffffffffffffffffff168152505086869050836020018181516112e89190616d2e565b9150906fffffffffffffffffffffffffffffffff1690816fffffffffffffffffffffffffffffffff168152505082606b6000876fffffffffffffffffffffffffffffffff166fffffffffffffffffffffffffffffffff16815260200190815260200160002060008201518160000160006101000a8154816fffffffffffffffffffffffffffffffff02191690836fffffffffffffffffffffffffffffffff16021790555060208201518160000160106101000a8154816fffffffffffffffffffffffffffffffff02191690836fffffffffffffffffffffffffffffffff1602179055509050503373ffffffffffffffffffffffffffffffffffffffff167f2af7fcd1c399223822bcb259c91eda30e4f212e30c40bba913f93c5960964f168888886040516114189392919061685f565b60405180910390a250505050505050565b600060666000836fffffffffffffffffffffffffffffffff166fffffffffffffffffffffffffffffffff168152602001908152602001600020600201600084815260200190815260200160002054905092915050565b606b6020528060005260406000206000915090508060000160009054906101000a90046fffffffffffffffffffffffffffffffff16908060000160109054906101000a90046fffffffffffffffffffffffffffffffff16905082565b60008060005b84849050811015611933576000858583818110611527577f4e487b7100000000000000000000000000000000000000000000000000000000600052603260045260246000fd5b9050602002013590506000606860008381526020019081526020016000206040518060a00160405290816000820160009054906101000a900473ffffffffffffffffffffffffffffffffffffffff1673ffffffffffffffffffffffffffffffffffffffff1673ffffffffffffffffffffffffffffffffffffffff1681526020016001820160009054906101000a90046fffffffffffffffffffffffffffffffff166fffffffffffffffffffffffffffffffff166fffffffffffffffffffffffffffffffff1681526020016001820160109054906101000a90046fffffffffffffffffffffffffffffffff166fffffffffffffffffffffffffffffffff166fffffffffffffffffffffffffffffffff1681526020016002820160009054906101000a90046fffffffffffffffffffffffffffffffff166fffffffffffffffffffffffffffffffff166fffffffffffffffffffffffffffffffff1681526020016002820160109054906101000a90046fffffffffffffffffffffffffffffffff166fffffffffffffffffffffffffffffffff166fffffffffffffffffffffffffffffffff168152505090506000816040015190506000826020015190506000836080015190506000606b6000856fffffffffffffffffffffffffffffffff166fffffffffffffffffffffffffffffffff1681526020019081526020016000206040518060400160405290816000820160009054906101000a90046fffffffffffffffffffffffffffffffff166fffffffffffffffffffffffffffffffff166fffffffffffffffffffffffffffffffff1681526020016000820160109054906101000a90046fffffffffffffffffffffffffffffffff166fffffffffffffffffffffffffffffffff166fffffffffffffffffffffffffffffffff1681525050905060008160000151905060008260200151905060006040518060800160405280886fffffffffffffffffffffffffffffffff168152602001836fffffffffffffffffffffffffffffffff168152602001876fffffffffffffffffffffffffffffffff168152602001846fffffffffffffffffffffffffffffffff16815250905060006118508a83614dbc565b9050606960008b815260200190815260200160002054816118719190616d74565b90506118b26040518060400160405280600f81526020017f616d6f756e74546f436c61696d3a20000000000000000000000000000000000081525082614e87565b607054866fffffffffffffffffffffffffffffffff166118d29190616d74565b421015611908576000612710607154836118ec9190616fb7565b6118f69190616dca565b905080826119049190617045565b9150505b808c6119149190616d74565b9b5050505050505050505050808061192b906171a2565b9150506114e1565b508091505092915050565b6000806000606860008581526020019081526020016000206040518060a00160405290816000820160009054906101000a900473ffffffffffffffffffffffffffffffffffffffff1673ffffffffffffffffffffffffffffffffffffffff1673ffffffffffffffffffffffffffffffffffffffff1681526020016001820160009054906101000a90046fffffffffffffffffffffffffffffffff166fffffffffffffffffffffffffffffffff166fffffffffffffffffffffffffffffffff1681526020016001820160109054906101000a90046fffffffffffffffffffffffffffffffff166fffffffffffffffffffffffffffffffff166fffffffffffffffffffffffffffffffff1681526020016002820160009054906101000a90046fffffffffffffffffffffffffffffffff166fffffffffffffffffffffffffffffffff166fffffffffffffffffffffffffffffffff1681526020016002820160109054906101000a90046fffffffffffffffffffffffffffffffff166fffffffffffffffffffffffffffffffff166fffffffffffffffffffffffffffffffff16815250509050600081606001516fffffffffffffffffffffffffffffffff16905060008142611b0a9190617045565b90506000611b1782614c7a565b905081819550955050505050915091565b60686020528060005260406000206000915090508060000160009054906101000a900473ffffffffffffffffffffffffffffffffffffffff16908060010160009054906101000a90046fffffffffffffffffffffffffffffffff16908060010160109054906101000a90046fffffffffffffffffffffffffffffffff16908060020160009054906101000a90046fffffffffffffffffffffffffffffffff16908060020160109054906101000a90046fffffffffffffffffffffffffffffffff16905085565b60606000606f60009054906101000a900473ffffffffffffffffffffffffffffffffffffffff1673ffffffffffffffffffffffffffffffffffffffff166370a08231306040518263ffffffff1660e01b8152600401611c4d9190616791565b60206040518083038186803b158015611c6557600080fd5b505afa158015611c79573d6000803e3d6000fd5b505050506040513d601f19601f82011682018060405250810190611c9d91906161dc565b90506000606a60008673ffffffffffffffffffffffffffffffffffffffff1673ffffffffffffffffffffffffffffffffffffffff1681526020019081526020016000206000856fffffffffffffffffffffffffffffffff166fffffffffffffffffffffffffffffffff16815260200190815260200160002054905060008167ffffffffffffffff811115611d5a577f4e487b7100000000000000000000000000000000000000000000000000000000600052604160045260246000fd5b604051908082528060200260200182016040528015611d885781602001602082028036833780820191505090505b5090506000821415611d9f578093505050506120fd565b6000805b848110156120f4576000606f60009054906101000a900473ffffffffffffffffffffffffffffffffffffffff1673ffffffffffffffffffffffffffffffffffffffff16632f745c5930846040518363ffffffff1660e01b8152600401611e0a929190616836565b60206040518083038186803b158015611e2257600080fd5b505afa158015611e36573d6000803e3d6000fd5b505050506040513d601f19601f82011682018060405250810190611e5a91906161dc565b90506000606860008381526020019081526020016000206040518060a00160405290816000820160009054906101000a900473ffffffffffffffffffffffffffffffffffffffff1673ffffffffffffffffffffffffffffffffffffffff1673ffffffffffffffffffffffffffffffffffffffff1681526020016001820160009054906101000a90046fffffffffffffffffffffffffffffffff166fffffffffffffffffffffffffffffffff166fffffffffffffffffffffffffffffffff1681526020016001820160109054906101000a90046fffffffffffffffffffffffffffffffff166fffffffffffffffffffffffffffffffff166fffffffffffffffffffffffffffffffff1681526020016002820160009054906101000a90046fffffffffffffffffffffffffffffffff166fffffffffffffffffffffffffffffffff166fffffffffffffffffffffffffffffffff1681526020016002820160109054906101000a90046fffffffffffffffffffffffffffffffff166fffffffffffffffffffffffffffffffff166fffffffffffffffffffffffffffffffff168152505090508973ffffffffffffffffffffffffffffffffffffffff16816000015173ffffffffffffffffffffffffffffffffffffffff161480156120625750886fffffffffffffffffffffffffffffffff1681604001516fffffffffffffffffffffffffffffffff16145b156120df578380612072906171a2565b94505081856001866120849190617045565b815181106120bb577f4e487b7100000000000000000000000000000000000000000000000000000000600052603260045260246000fd5b602002602001018181525050858414156120de57849750505050505050506120fd565b5b505080806120ec906171a2565b915050611da3565b50819450505050505b92915050565b3273ffffffffffffffffffffffffffffffffffffffff163373ffffffffffffffffffffffffffffffffffffffff1614612171576040517f08c379a0000000000000000000000000000000000000000000000000000000008152600401612168906169cd565b60405180910390fd5b600080600080606b6000866fffffffffffffffffffffffffffffffff166fffffffffffffffffffffffffffffffff1681526020019081526020016000206040518060400160405290816000820160009054906101000a90046fffffffffffffffffffffffffffffffff166fffffffffffffffffffffffffffffffff166fffffffffffffffffffffffffffffffff1681526020016000820160109054906101000a90046fffffffffffffffffffffffffffffffff166fffffffffffffffffffffffffffffffff166fffffffffffffffffffffffffffffffff1681525050905060008160000151905060008260200151905060005b898990508110156128445760008a8a838181106122aa577f4e487b7100000000000000000000000000000000000000000000000000000000600052603260045260246000fd5b9050602002013590506000606860008381526020019081526020016000206040518060a00160405290816000820160009054906101000a900473ffffffffffffffffffffffffffffffffffffffff1673ffffffffffffffffffffffffffffffffffffffff1673ffffffffffffffffffffffffffffffffffffffff1681526020016001820160009054906101000a90046fffffffffffffffffffffffffffffffff166fffffffffffffffffffffffffffffffff166fffffffffffffffffffffffffffffffff1681526020016001820160109054906101000a90046fffffffffffffffffffffffffffffffff166fffffffffffffffffffffffffffffffff166fffffffffffffffffffffffffffffffff1681526020016002820160009054906101000a90046fffffffffffffffffffffffffffffffff166fffffffffffffffffffffffffffffffff166fffffffffffffffffffffffffffffffff1681526020016002820160109054906101000a90046fffffffffffffffffffffffffffffffff166fffffffffffffffffffffffffffffffff166fffffffffffffffffffffffffffffffff1681525050905060686000838152602001908152602001600020600080820160006101000a81549073ffffffffffffffffffffffffffffffffffffffff02191690556001820160006101000a8154906fffffffffffffffffffffffffffffffff02191690556001820160106101000a8154906fffffffffffffffffffffffffffffffff02191690556002820160006101000a8154906fffffffffffffffffffffffffffffffff02191690556002820160106101000a8154906fffffffffffffffffffffffffffffffff021916905550506000816000015190508073ffffffffffffffffffffffffffffffffffffffff163373ffffffffffffffffffffffffffffffffffffffff1614612593576040517f08c379a000000000000000000000000000000000000000000000000000000000815260040161258a90616b6d565b60405180910390fd5b6000826040015190508b6fffffffffffffffffffffffffffffffff16816fffffffffffffffffffffffffffffffff1614612602576040517f08c379a00000000000000000000000000000000000000000000000000000000081526004016125f990616b8d565b60405180910390fd5b600083602001519050808a6126179190616d2e565b9950600061262886848a858d614c9e565b90506069600087815260200190815260200160002054816126499190616d74565b90506069600087815260200190815260200160002060009055600085608001519050607054816fffffffffffffffffffffffffffffffff1661268b9190616d74565b4210156126cf576000612710607154846126a59190616fb7565b6126af9190616dca565b905080836126bd9190617045565b9250808e6126cb9190616d74565b9d50505b818e6126db9190616d74565b9d506000866060015190506000816fffffffffffffffffffffffffffffffff16426127069190617045565b9050606f60009054906101000a900473ffffffffffffffffffffffffffffffffffffffff1673ffffffffffffffffffffffffffffffffffffffff1663db4ba28b8a836040518363ffffffff1660e01b8152600401612765929190616c3a565b600060405180830381600087803b15801561277f57600080fd5b505af1158015612793573d6000803e3d6000fd5b50505050606f60009054906101000a900473ffffffffffffffffffffffffffffffffffffffff1673ffffffffffffffffffffffffffffffffffffffff166323b872dd30338c6040518463ffffffff1660e01b81526004016127f6939291906167ac565b600060405180830381600087803b15801561281057600080fd5b505af1158015612824573d6000803e3d6000fd5b50505050505050505050505050808061283c906171a2565b915050612264565b506128b6606d60009054906101000a900473ffffffffffffffffffffffffffffffffffffffff163388606e60009054906101000a900473ffffffffffffffffffffffffffffffffffffffff1673ffffffffffffffffffffffffffffffffffffffff16614f23909392919063ffffffff16565b612949606d60009054906101000a900473ffffffffffffffffffffffffffffffffffffffff16606c60009054906101000a900473ffffffffffffffffffffffffffffffffffffffff1687606e60009054906101000a900473ffffffffffffffffffffffffffffffffffffffff1673ffffffffffffffffffffffffffffffffffffffff16614f23909392919063ffffffff16565b88889050606a60003373ffffffffffffffffffffffffffffffffffffffff1673ffffffffffffffffffffffffffffffffffffffff1681526020019081526020016000206000896fffffffffffffffffffffffffffffffff166fffffffffffffffffffffffffffffffff16815260200190815260200160002060008282546129d09190617045565b9250508190555083836000018181516129e99190617011565b9150906fffffffffffffffffffffffffffffffff1690816fffffffffffffffffffffffffffffffff16815250508888905083602001818151612a2b9190617011565b9150906fffffffffffffffffffffffffffffffff1690816fffffffffffffffffffffffffffffffff168152505082606b6000896fffffffffffffffffffffffffffffffff166fffffffffffffffffffffffffffffffff16815260200190815260200160002060008201518160000160006101000a8154816fffffffffffffffffffffffffffffffff02191690836fffffffffffffffffffffffffffffffff16021790555060208201518160000160106101000a8154816fffffffffffffffffffffffffffffffff02191690836fffffffffffffffffffffffffffffffff160217905550905050866fffffffffffffffffffffffffffffffff163373ffffffffffffffffffffffffffffffffffffffff167ffe981155bc011ab160f7378975865460b843956ee11f408af8a23396bf25ae758b8b8a604051612b6e93929190616891565b60405180910390a3505050505050505050565b606a602052816000526040600020602052806000526040600020600091509150505481565b60676020528060005260406000206000915090508060000160009054906101000a900467ffffffffffffffff16908060000160089054906101000a900467ffffffffffffffff16908060000160109054906101000a900467ffffffffffffffff16908060000160189054906101000a900467ffffffffffffffff16905084565b3273ffffffffffffffffffffffffffffffffffffffff163373ffffffffffffffffffffffffffffffffffffffff1614612c94576040517f08c379a0000000000000000000000000000000000000000000000000000000008152600401612c8b906169cd565b60405180910390fd5b600080600080606b6000866fffffffffffffffffffffffffffffffff166fffffffffffffffffffffffffffffffff1681526020019081526020016000206040518060400160405290816000820160009054906101000a90046fffffffffffffffffffffffffffffffff166fffffffffffffffffffffffffffffffff166fffffffffffffffffffffffffffffffff1681526020016000820160109054906101000a90046fffffffffffffffffffffffffffffffff166fffffffffffffffffffffffffffffffff166fffffffffffffffffffffffffffffffff1681525050905060008160000151905060008260200151905060005b8989905081101561348e5760008a8a83818110612dcd577f4e487b7100000000000000000000000000000000000000000000000000000000600052603260045260246000fd5b9050602002013590506000606860008381526020019081526020016000206040518060a00160405290816000820160009054906101000a900473ffffffffffffffffffffffffffffffffffffffff1673ffffffffffffffffffffffffffffffffffffffff1673ffffffffffffffffffffffffffffffffffffffff1681526020016001820160009054906101000a90046fffffffffffffffffffffffffffffffff166fffffffffffffffffffffffffffffffff166fffffffffffffffffffffffffffffffff1681526020016001820160109054906101000a90046fffffffffffffffffffffffffffffffff166fffffffffffffffffffffffffffffffff166fffffffffffffffffffffffffffffffff1681526020016002820160009054906101000a90046fffffffffffffffffffffffffffffffff166fffffffffffffffffffffffffffffffff166fffffffffffffffffffffffffffffffff1681526020016002820160109054906101000a90046fffffffffffffffffffffffffffffffff166fffffffffffffffffffffffffffffffff166fffffffffffffffffffffffffffffffff168152505090506000816000015190508073ffffffffffffffffffffffffffffffffffffffff163373ffffffffffffffffffffffffffffffffffffffff1614612fed576040517f08c379a0000000000000000000000000000000000000000000000000000000008152600401612fe490616b6d565b60405180910390fd5b6000826040015190508b6fffffffffffffffffffffffffffffffff16816fffffffffffffffffffffffffffffffff161461305c576040517f08c379a00000000000000000000000000000000000000000000000000000000081526004016130539061698d565b60405180910390fd5b600061306f85838987602001518c614c9e565b90506069600086815260200190815260200160002054816130909190616d74565b90506069600086815260200190815260200160002060009055600084608001519050607054816fffffffffffffffffffffffffffffffff166130d29190616d74565b421015613116576000612710607154846130ec9190616fb7565b6130f69190616dca565b905080836131049190617045565b9250808d6131129190616d74565b9c50505b818d6131229190616d74565b9c506000856060015190506000816fffffffffffffffffffffffffffffffff164261314d9190617045565b9050606f60009054906101000a900473ffffffffffffffffffffffffffffffffffffffff1673ffffffffffffffffffffffffffffffffffffffff1663db4ba28b89836040518363ffffffff1660e01b81526004016131ac929190616c3a565b600060405180830381600087803b1580156131c657600080fd5b505af11580156131da573d6000803e3d6000fd5b505050506000606f60009054906101000a900473ffffffffffffffffffffffffffffffffffffffff1673ffffffffffffffffffffffffffffffffffffffff16633efd73cc8a6040518263ffffffff1660e01b815260040161323b9190616bf6565b60206040518083038186803b15801561325357600080fd5b505afa158015613267573d6000803e3d6000fd5b505050506040513d601f19601f8201168201806040525081019061328b91906161dc565b9050600061329882614c7a565b90508860200151816132aa9190617011565b8f6132b59190616d2e565b9e508089602001906fffffffffffffffffffffffffffffffff1690816fffffffffffffffffffffffffffffffff16815250504289606001906fffffffffffffffffffffffffffffffff1690816fffffffffffffffffffffffffffffffff168152505088606860008c815260200190815260200160002060008201518160000160006101000a81548173ffffffffffffffffffffffffffffffffffffffff021916908373ffffffffffffffffffffffffffffffffffffffff16021790555060208201518160010160006101000a8154816fffffffffffffffffffffffffffffffff02191690836fffffffffffffffffffffffffffffffff16021790555060408201518160010160106101000a8154816fffffffffffffffffffffffffffffffff02191690836fffffffffffffffffffffffffffffffff16021790555060608201518160020160006101000a8154816fffffffffffffffffffffffffffffffff02191690836fffffffffffffffffffffffffffffffff16021790555060808201518160020160106101000a8154816fffffffffffffffffffffffffffffffff02191690836fffffffffffffffffffffffffffffffff160217905550905050505050505050505050508080613486906171a2565b915050612d87565b50613500606d60009054906101000a900473ffffffffffffffffffffffffffffffffffffffff163388606e60009054906101000a900473ffffffffffffffffffffffffffffffffffffffff1673ffffffffffffffffffffffffffffffffffffffff16614f23909392919063ffffffff16565b613593606d60009054906101000a900473ffffffffffffffffffffffffffffffffffffffff16606c60009054906101000a900473ffffffffffffffffffffffffffffffffffffffff1687606e60009054906101000a900473ffffffffffffffffffffffffffffffffffffffff1673ffffffffffffffffffffffffffffffffffffffff16614f23909392919063ffffffff16565b83836000018181516135a59190616d2e565b9150906fffffffffffffffffffffffffffffffff1690816fffffffffffffffffffffffffffffffff168152505082606b6000896fffffffffffffffffffffffffffffffff166fffffffffffffffffffffffffffffffff16815260200190815260200160002060008201518160000160006101000a8154816fffffffffffffffffffffffffffffffff02191690836fffffffffffffffffffffffffffffffff16021790555060208201518160000160106101000a8154816fffffffffffffffffffffffffffffffff02191690836fffffffffffffffffffffffffffffffff160217905550905050866fffffffffffffffffffffffffffffffff163373ffffffffffffffffffffffffffffffffffffffff167f6fda08360cea89f4d9faf9c364a93c02b10d63cac02e3ffb38e48cbe467dc0f68b8b8a6040516136e893929190616891565b60405180910390a3505050505050505050565b613703614aa3565b73ffffffffffffffffffffffffffffffffffffffff166137216139ea565b73ffffffffffffffffffffffffffffffffffffffff1614613777576040517f08c379a000000000000000000000000000000000000000000000000000000000815260040161376e90616aad565b60405180910390fd5b8060708190555050565b613789614aa3565b73ffffffffffffffffffffffffffffffffffffffff166137a76139ea565b73ffffffffffffffffffffffffffffffffffffffff16146137fd576040517f08c379a00000000000000000000000000000000000000000000000000000000081526004016137f490616aad565b60405180910390fd5b6138076000614fac565b565b60715481565b613817614aa3565b73ffffffffffffffffffffffffffffffffffffffff166138356139ea565b73ffffffffffffffffffffffffffffffffffffffff161461388b576040517f08c379a000000000000000000000000000000000000000000000000000000000815260040161388290616aad565b60405180910390fd5b806065546138999190616d74565b60658190555050565b60696020528060005260406000206000915090505481565b6138c2614aa3565b73ffffffffffffffffffffffffffffffffffffffff166138e06139ea565b73ffffffffffffffffffffffffffffffffffffffff1614613936576040517f08c379a000000000000000000000000000000000000000000000000000000000815260040161392d90616aad565b60405180910390fd5b600073ffffffffffffffffffffffffffffffffffffffff168173ffffffffffffffffffffffffffffffffffffffff1614156139a6576040517f08c379a000000000000000000000000000000000000000000000000000000000815260040161399d90616b2d565b60405180910390fd5b80606e60006101000a81548173ffffffffffffffffffffffffffffffffffffffff021916908373ffffffffffffffffffffffffffffffffffffffff16021790555050565b6000603360009054906101000a900473ffffffffffffffffffffffffffffffffffffffff16905090565b613a1c614aa3565b73ffffffffffffffffffffffffffffffffffffffff16613a3a6139ea565b73ffffffffffffffffffffffffffffffffffffffff1614613a90576040517f08c379a0000000000000000000000000000000000000000000000000000000008152600401613a8790616aad565b60405180910390fd5b612710811115613ad5576040517f08c379a0000000000000000000000000000000000000000000000000000000008152600401613acc90616bad565b60405180910390fd5b8060718190555050565b3273ffffffffffffffffffffffffffffffffffffffff163373ffffffffffffffffffffffffffffffffffffffff1614613b4d576040517f08c379a0000000000000000000000000000000000000000000000000000000008152600401613b44906169cd565b60405180910390fd5b600080606b6000846fffffffffffffffffffffffffffffffff166fffffffffffffffffffffffffffffffff1681526020019081526020016000206040518060400160405290816000820160009054906101000a90046fffffffffffffffffffffffffffffffff166fffffffffffffffffffffffffffffffff166fffffffffffffffffffffffffffffffff1681526020016000820160109054906101000a90046fffffffffffffffffffffffffffffffff166fffffffffffffffffffffffffffffffff166fffffffffffffffffffffffffffffffff1681525050905060008160000151905060008260200151905060005b8787905081101561423c576000888883818110613c83577f4e487b7100000000000000000000000000000000000000000000000000000000600052603260045260246000fd5b9050602002013590506000606860008381526020019081526020016000206040518060a00160405290816000820160009054906101000a900473ffffffffffffffffffffffffffffffffffffffff1673ffffffffffffffffffffffffffffffffffffffff1673ffffffffffffffffffffffffffffffffffffffff1681526020016001820160009054906101000a90046fffffffffffffffffffffffffffffffff166fffffffffffffffffffffffffffffffff166fffffffffffffffffffffffffffffffff1681526020016001820160109054906101000a90046fffffffffffffffffffffffffffffffff166fffffffffffffffffffffffffffffffff166fffffffffffffffffffffffffffffffff1681526020016002820160009054906101000a90046fffffffffffffffffffffffffffffffff166fffffffffffffffffffffffffffffffff166fffffffffffffffffffffffffffffffff1681526020016002820160109054906101000a90046fffffffffffffffffffffffffffffffff166fffffffffffffffffffffffffffffffff166fffffffffffffffffffffffffffffffff16815250509050600081604001519050886fffffffffffffffffffffffffffffffff16816fffffffffffffffffffffffffffffffff1614613e9b576040517f08c379a0000000000000000000000000000000000000000000000000000000008152600401613e929061698d565b60405180910390fd5b613eac83828785602001518a614c9e565b606960008581526020019081526020016000206000828254613ece9190616d74565b925050819055506000826060015190506000816fffffffffffffffffffffffffffffffff1642613efe9190617045565b9050606f60009054906101000a900473ffffffffffffffffffffffffffffffffffffffff1673ffffffffffffffffffffffffffffffffffffffff1663db4ba28b86836040518363ffffffff1660e01b8152600401613f5d929190616c3a565b600060405180830381600087803b158015613f7757600080fd5b505af1158015613f8b573d6000803e3d6000fd5b505050506000606f60009054906101000a900473ffffffffffffffffffffffffffffffffffffffff1673ffffffffffffffffffffffffffffffffffffffff16633efd73cc876040518263ffffffff1660e01b8152600401613fec9190616bf6565b60206040518083038186803b15801561400457600080fd5b505afa158015614018573d6000803e3d6000fd5b505050506040513d601f19601f8201168201806040525081019061403c91906161dc565b9050600061404982614c7a565b905085602001518161405b9190617011565b8c6140669190616d2e565b9b508086602001906fffffffffffffffffffffffffffffffff1690816fffffffffffffffffffffffffffffffff16815250504286606001906fffffffffffffffffffffffffffffffff1690816fffffffffffffffffffffffffffffffff1681525050856068600089815260200190815260200160002060008201518160000160006101000a81548173ffffffffffffffffffffffffffffffffffffffff021916908373ffffffffffffffffffffffffffffffffffffffff16021790555060208201518160010160006101000a8154816fffffffffffffffffffffffffffffffff02191690836fffffffffffffffffffffffffffffffff16021790555060408201518160010160106101000a8154816fffffffffffffffffffffffffffffffff02191690836fffffffffffffffffffffffffffffffff16021790555060608201518160020160006101000a8154816fffffffffffffffffffffffffffffffff02191690836fffffffffffffffffffffffffffffffff16021790555060808201518160020160106101000a8154816fffffffffffffffffffffffffffffffff02191690836fffffffffffffffffffffffffffffffff160217905550905050505050505050508080614234906171a2565b915050613c3d565b50838360000181815161424f9190616d2e565b9150906fffffffffffffffffffffffffffffffff1690816fffffffffffffffffffffffffffffffff168152505082606b6000876fffffffffffffffffffffffffffffffff166fffffffffffffffffffffffffffffffff16815260200190815260200160002060008201518160000160006101000a8154816fffffffffffffffffffffffffffffffff02191690836fffffffffffffffffffffffffffffffff16021790555060208201518160000160106101000a8154816fffffffffffffffffffffffffffffffff02191690836fffffffffffffffffffffffffffffffff1602179055509050503373ffffffffffffffffffffffffffffffffffffffff167fc3dfba46610cbb0e00b2a2a48619ad3a9719f11df22032ca112368cb5361ae7188888860405161437f9392919061685f565b60405180910390a250505050505050565b601281565b61439d614aa3565b73ffffffffffffffffffffffffffffffffffffffff166143bb6139ea565b73ffffffffffffffffffffffffffffffffffffffff1614614411576040517f08c379a000000000000000000000000000000000000000000000000000000000815260040161440890616aad565b60405180910390fd5b600073ffffffffffffffffffffffffffffffffffffffff168173ffffffffffffffffffffffffffffffffffffffff161415614481576040517f08c379a000000000000000000000000000000000000000000000000000000000815260040161447890616b2d565b60405180910390fd5b80606c60006101000a81548173ffffffffffffffffffffffffffffffffffffffff021916908373ffffffffffffffffffffffffffffffffffffffff16021790555050565b600080606b6000846fffffffffffffffffffffffffffffffff166fffffffffffffffffffffffffffffffff1681526020019081526020016000206040518060400160405290816000820160009054906101000a90046fffffffffffffffffffffffffffffffff166fffffffffffffffffffffffffffffffff166fffffffffffffffffffffffffffffffff1681526020016000820160109054906101000a90046fffffffffffffffffffffffffffffffff166fffffffffffffffffffffffffffffffff166fffffffffffffffffffffffffffffffff168152505090506000816020015190506145b38185615072565b92505050919050565b60705481565b6145ca614aa3565b73ffffffffffffffffffffffffffffffffffffffff166145e86139ea565b73ffffffffffffffffffffffffffffffffffffffff161461463e576040517f08c379a000000000000000000000000000000000000000000000000000000000815260040161463590616aad565b60405180910390fd5b878790508a8a905014801561465857508585905088889050145b801561466957508383905086869050145b801561467a57508181905084849050145b6146b9576040517f08c379a00000000000000000000000000000000000000000000000000000000081526004016146b090616a8d565b60405180910390fd5b60005b8a8a9050811015614868576148558b8b83818110614703577f4e487b7100000000000000000000000000000000000000000000000000000000600052603260045260246000fd5b9050602002016020810190614718919061618a565b8a8a84818110614751577f4e487b7100000000000000000000000000000000000000000000000000000000600052603260045260246000fd5b905060200201602081019061476691906162df565b89898581811061479f577f4e487b7100000000000000000000000000000000000000000000000000000000600052603260045260246000fd5b90506020020160208101906147b491906162df565b8888868181106147ed577f4e487b7100000000000000000000000000000000000000000000000000000000600052603260045260246000fd5b905060200201602081019061480291906162df565b87878781811061483b577f4e487b7100000000000000000000000000000000000000000000000000000000600052603260045260246000fd5b905060200201602081019061485091906162df565b615212565b8080614860906171a2565b9150506146bc565b5050505050505050505050565b60655481565b614883614aa3565b73ffffffffffffffffffffffffffffffffffffffff166148a16139ea565b73ffffffffffffffffffffffffffffffffffffffff16146148f7576040517f08c379a00000000000000000000000000000000000000000000000000000000081526004016148ee90616aad565b60405180910390fd5b600073ffffffffffffffffffffffffffffffffffffffff168173ffffffffffffffffffffffffffffffffffffffff161415614967576040517f08c379a000000000000000000000000000000000000000000000000000000000815260040161495e906169ad565b60405180910390fd5b61497081614fac565b50565b61497b614aa3565b73ffffffffffffffffffffffffffffffffffffffff166149996139ea565b73ffffffffffffffffffffffffffffffffffffffff16146149ef576040517f08c379a00000000000000000000000000000000000000000000000000000000081526004016149e690616aad565b60405180910390fd5b600073ffffffffffffffffffffffffffffffffffffffff168173ffffffffffffffffffffffffffffffffffffffff161415614a5f576040517f08c379a0000000000000000000000000000000000000000000000000000000008152600401614a5690616b2d565b60405180910390fd5b80606d60006101000a81548173ffffffffffffffffffffffffffffffffffffffff021916908373ffffffffffffffffffffffffffffffffffffffff16021790555050565b600033905090565b614b2c8363a9059cbb60e01b8484604051602401614aca929190616836565b604051602081830303815290604052907bffffffffffffffffffffffffffffffffffffffffffffffffffffffff19166020820180517bffffffffffffffffffffffffffffffffffffffffffffffffffffffff838183161783525050505061549f565b505050565b60008060019054906101000a900460ff1615614ba85760018260ff16148015614b605750614b5e30615566565b155b614b9f576040517f08c379a0000000000000000000000000000000000000000000000000000000008152600401614b9690616a4d565b60405180910390fd5b60009050614c1c565b8160ff1660008054906101000a900460ff1660ff1610614bfd576040517f08c379a0000000000000000000000000000000000000000000000000000000008152600401614bf490616a4d565b60405180910390fd5b816000806101000a81548160ff021916908360ff160217905550600190505b919050565b600060019054906101000a900460ff16614c70576040517f08c379a0000000000000000000000000000000000000000000000000000000008152600401614c6790616b0d565b60405180910390fd5b614c78615589565b565b60006064620186a083614c8d9190616dca565b614c979190616d74565b9050919050565b60008060666000876fffffffffffffffffffffffffffffffff166fffffffffffffffffffffffffffffffff16815260200190815260200160002090506000816002016000898152602001908152602001600020549050600080614d0389858a896155ea565b9050808314614dac576000876fffffffffffffffffffffffffffffffff1614614d4657614d43876fffffffffffffffffffffffffffffffff1682856156b3565b91505b808460020160008c815260200190815260200160002081905550886fffffffffffffffffffffffffffffffff168a7f071b836fce05c94433890e1fa43bde325f7bf84311109f1d571c2d075f4361b483604051614da39190616bf6565b60405180910390a35b8194505050505095945050505050565b60008060006066600085600001516fffffffffffffffffffffffffffffffff166fffffffffffffffffffffffffffffffff16815260200190815260200160002090506000614e1285602001518660000151615072565b90506000614e40836001015483856000015489606001516fffffffffffffffffffffffffffffffff166156f0565b9050614e7886604001516fffffffffffffffffffffffffffffffff16828560020160008b8152602001908152602001600020546156b3565b93508394505050505092915050565b614f1f8282604051602401614e9d92919061693d565b6040516020818303038152906040527f9710a9d0000000000000000000000000000000000000000000000000000000007bffffffffffffffffffffffffffffffffffffffffffffffffffffffff19166020820180517bffffffffffffffffffffffffffffffffffffffffffffffffffffffff8381831617835250505050615795565b5050565b614fa6846323b872dd60e01b858585604051602401614f44939291906167ac565b604051602081830303815290604052907bffffffffffffffffffffffffffffffffffffffffffffffffffffffff19166020820180517bffffffffffffffffffffffffffffffffffffffffffffffffffffffff838183161783525050505061549f565b50505050565b6000603360009054906101000a900473ffffffffffffffffffffffffffffffffffffffff16905081603360006101000a81548173ffffffffffffffffffffffffffffffffffffffff021916908373ffffffffffffffffffffffffffffffffffffffff1602179055508173ffffffffffffffffffffffffffffffffffffffff168173ffffffffffffffffffffffffffffffffffffffff167f8be0079c531659141344cd1fd0a4f28419497f9722a3daafe3b4186f6b6457e060405160405180910390a35050565b600080836fffffffffffffffffffffffffffffffff161415615097576000905061520c565b600060676000846fffffffffffffffffffffffffffffffff166fffffffffffffffffffffffffffffffff1681526020019081526020016000206040518060800160405290816000820160009054906101000a900467ffffffffffffffff1667ffffffffffffffff1667ffffffffffffffff1681526020016000820160089054906101000a900467ffffffffffffffff1667ffffffffffffffff1667ffffffffffffffff1681526020016000820160109054906101000a900467ffffffffffffffff1667ffffffffffffffff1667ffffffffffffffff1681526020016000820160189054906101000a900467ffffffffffffffff1667ffffffffffffffff1667ffffffffffffffff16815250509050615208816000015167ffffffffffffffff16826020015167ffffffffffffffff16836040015167ffffffffffffffff16846060015167ffffffffffffffff16886fffffffffffffffffffffffffffffffff166157be90949392919063ffffffff16565b9150505b92915050565b600060676000876fffffffffffffffffffffffffffffffff166fffffffffffffffffffffffffffffffff1681526020019081526020016000206040518060800160405290816000820160009054906101000a900467ffffffffffffffff1667ffffffffffffffff1667ffffffffffffffff1681526020016000820160089054906101000a900467ffffffffffffffff1667ffffffffffffffff1667ffffffffffffffff1681526020016000820160109054906101000a900467ffffffffffffffff1667ffffffffffffffff1667ffffffffffffffff1681526020016000820160189054906101000a900467ffffffffffffffff1667ffffffffffffffff1667ffffffffffffffff1681525050905084816000019067ffffffffffffffff16908167ffffffffffffffff168152505083816020019067ffffffffffffffff16908167ffffffffffffffff168152505082816040019067ffffffffffffffff16908167ffffffffffffffff168152505081816060019067ffffffffffffffff16908167ffffffffffffffff16815250508060676000886fffffffffffffffffffffffffffffffff166fffffffffffffffffffffffffffffffff16815260200190815260200160002060008201518160000160006101000a81548167ffffffffffffffff021916908367ffffffffffffffff16021790555060208201518160000160086101000a81548167ffffffffffffffff021916908367ffffffffffffffff16021790555060408201518160000160106101000a81548167ffffffffffffffff021916908367ffffffffffffffff16021790555060608201518160000160186101000a81548167ffffffffffffffff021916908367ffffffffffffffff160217905550905050505050505050565b6000615501826040518060400160405280602081526020017f5361666545524332303a206c6f772d6c6576656c2063616c6c206661696c65648152508573ffffffffffffffffffffffffffffffffffffffff1661593e9092919063ffffffff16565b905060008151111561556157808060200190518101906155219190616138565b615560576040517f08c379a000000000000000000000000000000000000000000000000000000000815260040161555790616b4d565b60405180910390fd5b5b505050565b6000808273ffffffffffffffffffffffffffffffffffffffff163b119050919050565b600060019054906101000a900460ff166155d8576040517f08c379a00000000000000000000000000000000000000000000000000000000081526004016155cf90616b0d565b60405180910390fd5b6155e86155e3614aa3565b614fac565b565b600080846001015490506000856000015490508042141561560f5781925050506156ab565b600061561b8689615072565b9050600061563d848385896fffffffffffffffffffffffffffffffff166156f0565b905083811461569a57808860010181905550886fffffffffffffffffffffffffffffffff167fcb31ffb39c83fc617c838bbe029f1c1080f496caefb2aa9636f39b06953d6b1b826040516156919190616bf6565b60405180910390a25b428860000181905550809450505050505b949350505050565b6000601260ff16600a6156c69190616e4e565b82846156d29190617045565b856156dd9190616fb7565b6156e79190616dca565b90509392505050565b6000808414806157005750600082145b8061570a57504283145b8061571757506065548310155b156157245784905061578d565b600060655442116157355742615739565b6065545b9050600084826157499190617045565b90508684601260ff16600a61575e9190616e4e565b838961576a9190616fb7565b6157749190616fb7565b61577e9190616dca565b6157889190616d74565b925050505b949350505050565b60008151905060006a636f6e736f6c652e6c6f679050602083016000808483855afa5050505050565b6000806157cc868686615956565b905060006157dc868684876159c8565b905060006157ea8386615a2d565b905060006157f88487615a75565b905060008060648c61580a9190616fb7565b9b506064846158199190616d74565b8c11156158ac5760006064858e6158309190617045565b61583a9190617045565b905080866158489190616fb7565b925083606460028361585a9190616e99565b6158649190616dca565b61586e9190616d74565b91506064808b61587e9190616fb7565b838561588a9190616dca565b6158949190616d74565b61589e9190616dca565b975050505050505050615935565b60008c6064866158bc9190616d74565b6158c69190617045565b905080866158d49190616fb7565b92508360646002836158e69190616e99565b6158f09190616dca565b6158fa9190616d74565b91506064828461590a9190616dca565b60648c6159179190616fb7565b6159219190617045565b61592b9190616dca565b9750505050505050505b95945050505050565b606061594d8484600085615ad7565b90509392505050565b60008084836159659190617045565b633b9aca0084866159769190617045565b6159809190616fb7565b61598a9190616dca565b90506159b3670de0b6b3a764000082836159a49190616fb7565b6159ae9190617045565b615beb565b816159be9190617045565b9150509392505050565b6000633b9aca00836159da9190616d74565b64174876e8006001846159ed9190617045565b86886159f99190617045565b6002615a059190616fb7565b615a0f9190616fb7565b615a199190616fb7565b615a239190616dca565b9050949350505050565b6000633b9aca0083615a3f9190616d74565b606484600185615a4f9190617045565b615a599190616fb7565b615a639190616fb7565b615a6d9190616dca565b905092915050565b6000662386f26fc100006002633b9aca0085615a919190616d74565b670de0b6b3a7640000600186615aa79190617045565b615ab19190616fb7565b615abb9190616dca565b615ac59190616e99565b615acf9190616dca565b905092915050565b606082471015615b1c576040517f08c379a0000000000000000000000000000000000000000000000000000000008152600401615b13906169ed565b60405180910390fd5b615b2585615566565b615b64576040517f08c379a0000000000000000000000000000000000000000000000000000000008152600401615b5b90616aed565b60405180910390fd5b6000808673ffffffffffffffffffffffffffffffffffffffff168587604051615b8d919061677a565b60006040518083038185875af1925050503d8060008114615bca576040519150601f19603f3d011682016040523d82523d6000602084013e615bcf565b606091505b5091509150615bdf828286615c65565b92505050949350505050565b60006003821115615c525781905060006001600284615c0a9190616dca565b615c149190616d74565b90505b81811015615c4c578091506002818285615c319190616dca565b615c3b9190616d74565b615c459190616dca565b9050615c17565b50615c60565b60008214615c5f57600190505b5b919050565b60608315615c7557829050615cc5565b600083511115615c885782518084602001fd5b816040517f08c379a0000000000000000000000000000000000000000000000000000000008152600401615cbc919061691b565b60405180910390fd5b9392505050565b600081359050615cdb81617656565b92915050565b60008083601f840112615cf357600080fd5b8235905067ffffffffffffffff811115615d0c57600080fd5b602083019150836020820283011115615d2457600080fd5b9250929050565b60008083601f840112615d3d57600080fd5b8235905067ffffffffffffffff811115615d5657600080fd5b602083019150836020820283011115615d6e57600080fd5b9250929050565b60008083601f840112615d8757600080fd5b8235905067ffffffffffffffff811115615da057600080fd5b602083019150836020820283011115615db857600080fd5b9250929050565b600081519050615dce8161766d565b92915050565b60008083601f840112615de657600080fd5b8235905067ffffffffffffffff811115615dff57600080fd5b602083019150836001820283011115615e1757600080fd5b9250929050565b600081359050615e2d81617684565b92915050565b600081359050615e428161769b565b92915050565b600081359050615e57816176b2565b92915050565b600081359050615e6c816176c9565b92915050565b600081519050615e81816176c9565b92915050565b600081359050615e96816176e0565b92915050565b600081519050615eab816176f7565b92915050565b600060208284031215615ec357600080fd5b6000615ed184828501615ccc565b91505092915050565b600080600080600060808688031215615ef257600080fd5b6000615f0088828901615ccc565b9550506020615f1188828901615ccc565b9450506040615f2288828901615e5d565b935050606086013567ffffffffffffffff811115615f3f57600080fd5b615f4b88828901615dd4565b92509250509295509295909350565b60008060408385031215615f6d57600080fd5b6000615f7b85828601615ccc565b9250506020615f8c85828601615e48565b9150509250929050565b60008060008060008060008060008060a08b8d031215615fb557600080fd5b60008b013567ffffffffffffffff811115615fcf57600080fd5b615fdb8d828e01615ce1565b9a509a505060208b013567ffffffffffffffff811115615ffa57600080fd5b6160068d828e01615d75565b985098505060408b013567ffffffffffffffff81111561602557600080fd5b6160318d828e01615d75565b965096505060608b013567ffffffffffffffff81111561605057600080fd5b61605c8d828e01615d75565b945094505060808b013567ffffffffffffffff81111561607b57600080fd5b6160878d828e01615d75565b92509250509295989b9194979a5092959850565b600080602083850312156160ae57600080fd5b600083013567ffffffffffffffff8111156160c857600080fd5b6160d485828601615d2b565b92509250509250929050565b6000806000604084860312156160f557600080fd5b600084013567ffffffffffffffff81111561610f57600080fd5b61611b86828701615d2b565b9350935050602061612e86828701615e48565b9150509250925092565b60006020828403121561614a57600080fd5b600061615884828501615dbf565b91505092915050565b60006020828403121561617357600080fd5b600061618184828501615e1e565b91505092915050565b60006020828403121561619c57600080fd5b60006161aa84828501615e48565b91505092915050565b6000602082840312156161c557600080fd5b60006161d384828501615e5d565b91505092915050565b6000602082840312156161ee57600080fd5b60006161fc84828501615e72565b91505092915050565b6000806040838503121561621857600080fd5b600061622685828601615e5d565b925050602061623785828601615e48565b9150509250929050565b600080600080600080600060e0888a03121561625c57600080fd5b600061626a8a828b01615e5d565b975050602061627b8a828b01615e5d565b965050604061628c8a828b01615e5d565b955050606061629d8a828b01615e33565b94505060806162ae8a828b01615e1e565b93505060a06162bf8a828b01615ccc565b92505060c06162d08a828b01615ccc565b91505092959891949750929550565b6000602082840312156162f157600080fd5b60006162ff84828501615e87565b91505092915050565b60006020828403121561631a57600080fd5b600061632884828501615e9c565b91505092915050565b600061633d838361673e565b60208301905092915050565b61635281617079565b82525050565b60006163648385616d01565b93507f07ffffffffffffffffffffffffffffffffffffffffffffffffffffffffffffff83111561639357600080fd5b6020830292506163a4838584617160565b82840190509392505050565b60006163bb82616cd3565b6163c58185616d01565b93506163d083616cc3565b8060005b838110156164015781516163e88882616331565b97506163f383616cf4565b9250506001810190506163d4565b5085935050505092915050565b61641781617097565b82525050565b600061642882616cde565b6164328185616d12565b935061644281856020860161716f565b80840191505092915050565b6164578161714e565b82525050565b600061646882616ce9565b6164728185616d1d565b935061648281856020860161716f565b61648b81617249565b840191505092915050565b60006164a3601d83616d1d565b91506164ae82617267565b602082019050919050565b60006164c6601683616d1d565b91506164d182617290565b602082019050919050565b60006164e9602683616d1d565b91506164f4826172b9565b604082019050919050565b600061650c600d83616d1d565b915061651782617308565b602082019050919050565b600061652f602683616d1d565b915061653a82617331565b604082019050919050565b6000616552601d83616d1d565b915061655d82617380565b602082019050919050565b6000616575602183616d1d565b9150616580826173a9565b604082019050919050565b6000616598602e83616d1d565b91506165a3826173f8565b604082019050919050565b60006165bb601e83616d1d565b91506165c682617447565b602082019050919050565b60006165de601683616d1d565b91506165e982617470565b602082019050919050565b6000616601602083616d1d565b915061660c82617499565b602082019050919050565b6000616624601e83616d1d565b915061662f826174c2565b602082019050919050565b6000616647601d83616d1d565b9150616652826174eb565b602082019050919050565b600061666a602b83616d1d565b915061667582617514565b604082019050919050565b600061668d600f83616d1d565b915061669882617563565b602082019050919050565b60006166b0602a83616d1d565b91506166bb8261758c565b604082019050919050565b60006166d3601783616d1d565b91506166de826175db565b602082019050919050565b60006166f6601683616d1d565b915061670182617604565b602082019050919050565b6000616719601683616d1d565b91506167248261762d565b602082019050919050565b616738816170e7565b82525050565b61674781617123565b82525050565b61675681617123565b82525050565b6167658161712d565b82525050565b61677481617141565b82525050565b6000616786828461641d565b915081905092915050565b60006020820190506167a66000830184616349565b92915050565b60006060820190506167c16000830186616349565b6167ce6020830185616349565b6167db604083018461674d565b949350505050565b600060a0820190506167f86000830188616349565b616805602083018761672f565b616812604083018661672f565b61681f606083018561672f565b61682c608083018461672f565b9695505050505050565b600060408201905061684b6000830185616349565b616858602083018461674d565b9392505050565b6000604082019050818103600083015261687a818587616358565b9050616889602083018461672f565b949350505050565b600060408201905081810360008301526168ac818587616358565b90506168bb602083018461674d565b949350505050565b600060208201905081810360008301526168dd81846163b0565b905092915050565b60006020820190506168fa600083018461640e565b92915050565b6000602082019050616915600083018461644e565b92915050565b60006020820190508181036000830152616935818461645d565b905092915050565b60006040820190508181036000830152616957818561645d565b9050616966602083018461674d565b9392505050565b6000602082019050818103600083015261698681616496565b9050919050565b600060208201905081810360008301526169a6816164b9565b9050919050565b600060208201905081810360008301526169c6816164dc565b9050919050565b600060208201905081810360008301526169e6816164ff565b9050919050565b60006020820190508181036000830152616a0681616522565b9050919050565b60006020820190508181036000830152616a2681616545565b9050919050565b60006020820190508181036000830152616a4681616568565b9050919050565b60006020820190508181036000830152616a668161658b565b9050919050565b60006020820190508181036000830152616a86816165ae565b9050919050565b60006020820190508181036000830152616aa6816165d1565b9050919050565b60006020820190508181036000830152616ac6816165f4565b9050919050565b60006020820190508181036000830152616ae681616617565b9050919050565b60006020820190508181036000830152616b068161663a565b9050919050565b60006020820190508181036000830152616b268161665d565b9050919050565b60006020820190508181036000830152616b4681616680565b9050919050565b60006020820190508181036000830152616b66816166a3565b9050919050565b60006020820190508181036000830152616b86816166c6565b9050919050565b60006020820190508181036000830152616ba6816166e9565b9050919050565b60006020820190508181036000830152616bc68161670c565b9050919050565b6000604082019050616be2600083018561672f565b616bef602083018461672f565b9392505050565b6000602082019050616c0b600083018461674d565b92915050565b6000604082019050616c26600083018561674d565b616c33602083018461672f565b9392505050565b6000604082019050616c4f600083018561674d565b616c5c602083018461674d565b9392505050565b6000608082019050616c78600083018761675c565b616c85602083018661675c565b616c92604083018561675c565b616c9f606083018461675c565b95945050505050565b6000602082019050616cbd600083018461676b565b92915050565b6000819050602082019050919050565b600081519050919050565b600081519050919050565b600081519050919050565b6000602082019050919050565b600082825260208201905092915050565b600081905092915050565b600082825260208201905092915050565b6000616d39826170e7565b9150616d44836170e7565b9250826fffffffffffffffffffffffffffffffff03821115616d6957616d686171eb565b5b828201905092915050565b6000616d7f82617123565b9150616d8a83617123565b9250827fffffffffffffffffffffffffffffffffffffffffffffffffffffffffffffffff03821115616dbf57616dbe6171eb565b5b828201905092915050565b6000616dd582617123565b9150616de083617123565b925082616df057616def61721a565b5b828204905092915050565b6000808291508390505b6001851115616e4557808604811115616e2157616e206171eb565b5b6001851615616e305780820291505b8081029050616e3e8561725a565b9450616e05565b94509492505050565b6000616e5982617123565b9150616e6483617123565b9250616e917fffffffffffffffffffffffffffffffffffffffffffffffffffffffffffffffff8484616ee4565b905092915050565b6000616ea482617123565b9150616eaf83617141565b9250616edc7fffffffffffffffffffffffffffffffffffffffffffffffffffffffffffffffff8484616ee4565b905092915050565b600082616ef45760019050616fb0565b81616f025760009050616fb0565b8160018114616f185760028114616f2257616f51565b6001915050616fb0565b60ff841115616f3457616f336171eb565b5b8360020a915084821115616f4b57616f4a6171eb565b5b50616fb0565b5060208310610133831016604e8410600b8410161715616f865782820a905083811115616f8157616f806171eb565b5b616fb0565b616f938484846001616dfb565b92509050818404811115616faa57616fa96171eb565b5b81810290505b9392505050565b6000616fc282617123565b9150616fcd83617123565b9250817fffffffffffffffffffffffffffffffffffffffffffffffffffffffffffffffff0483118215151615617006576170056171eb565b5b828202905092915050565b600061701c826170e7565b9150617027836170e7565b92508282101561703a576170396171eb565b5b828203905092915050565b600061705082617123565b915061705b83617123565b92508282101561706e5761706d6171eb565b5b828203905092915050565b600061708482617103565b9050919050565b60008115159050919050565b60007fffffffff0000000000000000000000000000000000000000000000000000000082169050919050565b60006170ce82617079565b9050919050565b60006170e082617079565b9050919050565b60006fffffffffffffffffffffffffffffffff82169050919050565b600073ffffffffffffffffffffffffffffffffffffffff82169050919050565b6000819050919050565b600067ffffffffffffffff82169050919050565b600060ff82169050919050565b600061715982617141565b9050919050565b82818337600083830152505050565b60005b8381101561718d578082015181840152602081019050617172565b8381111561719c576000848401525b50505050565b60006171ad82617123565b91507fffffffffffffffffffffffffffffffffffffffffffffffffffffffffffffffff8214156171e0576171df6171eb565b5b600182019050919050565b7f4e487b7100000000000000000000000000000000000000000000000000000000600052601160045260246000fd5b7f4e487b7100000000000000000000000000000000000000000000000000000000600052601260045260246000fd5b6000601f19601f8301169050919050565b60008160011c9050919050565b7f494e56414c494420414444524553533a205f6e6674436f6e7472616374000000600082015250565b7f506f6c697368207468652077726f6e67207661756c7400000000000000000000600082015250565b7f4f776e61626c653a206e6577206f776e657220697320746865207a65726f206160008201527f6464726573730000000000000000000000000000000000000000000000000000602082015250565b7f4e6f7420612077616c6c65742100000000000000000000000000000000000000600082015250565b7f416464726573733a20696e73756666696369656e742062616c616e636520666f60008201527f722063616c6c0000000000000000000000000000000000000000000000000000602082015250565b7f494e56414c494420414444524553533a205f726577617264546f6b656e000000600082015250565b7f54686520726172697479206f6620746865206e667420646f65736e277420666960008201527f7400000000000000000000000000000000000000000000000000000000000000602082015250565b7f496e697469616c697a61626c653a20636f6e747261637420697320616c72656160008201527f647920696e697469616c697a6564000000000000000000000000000000000000602082015250565b7f494e56414c494420414444524553533a205f726563656976655661756c740000600082015250565b7f4e6f7420696e207468652073616d65206c656e67746800000000000000000000600082015250565b7f4f776e61626c653a2063616c6c6572206973206e6f7420746865206f776e6572600082015250565b7f494e56414c494420414444524553533a205f726577617264735661756c740000600082015250565b7f416464726573733a2063616c6c20746f206e6f6e2d636f6e7472616374000000600082015250565b7f496e697469616c697a61626c653a20636f6e7472616374206973206e6f74206960008201527f6e697469616c697a696e67000000000000000000000000000000000000000000602082015250565b7f494e56414c494420414444524553530000000000000000000000000000000000600082015250565b7f5361666545524332303a204552433230206f7065726174696f6e20646964206e60008201527f6f74207375636365656400000000000000000000000000000000000000000000602082015250565b7f596f7520646f206e6f74206f776e2074686973204e4654000000000000000000600082015250565b7f52656465656d207468652077726f6e67207661756c7400000000000000000000600082015250565b7f494e56414c49442050455243454e544147452046454500000000000000000000600082015250565b61765f81617079565b811461766a57600080fd5b50565b6176768161708b565b811461768157600080fd5b50565b61768d816170c3565b811461769857600080fd5b50565b6176a4816170d5565b81146176af57600080fd5b50565b6176bb816170e7565b81146176c657600080fd5b50565b6176d281617123565b81146176dd57600080fd5b50565b6176e98161712d565b81146176f457600080fd5b50565b61770081617141565b811461770b57600080fd5b5056fea264697066735822122092130b8711f304cf6e25b73258fd2c0a3535901b44091bc88c3e1d412c96e94264736f6c63430008040033",
  "linkReferences": {},
  "deployedLinkReferences": {}
}