{
  "_format": "hh-sol-artifact-1",
  "contractName": "FarmingBasedEXP",
  "sourceName": "contracts/FarmingBasedEXP.sol",
  "abi": [
    {
      "anonymous": false,
      "inputs": [
        {
          "indexed": true,
          "internalType": "address",
          "name": "user",
          "type": "address"
        },
        {
          "indexed": false,
          "internalType": "uint256[]",
          "name": "nftIds",
          "type": "uint256[]"
        },
        {
          "indexed": true,
          "internalType": "uint128",
          "name": "level",
          "type": "uint128"
        },
        {
          "indexed": false,
          "internalType": "uint256",
          "name": "amout",
          "type": "uint256"
        }
      ],
      "name": "ClaimReward",
      "type": "event"
    },
    {
      "anonymous": false,
      "inputs": [
        {
          "indexed": false,
          "internalType": "uint8",
          "name": "version",
          "type": "uint8"
        }
      ],
      "name": "Initialized",
      "type": "event"
    },
    {
      "anonymous": false,
      "inputs": [
        {
          "indexed": true,
          "internalType": "uint256",
          "name": "nft",
          "type": "uint256"
        },
        {
          "indexed": true,
          "internalType": "uint128",
          "name": "poolNumber",
          "type": "uint128"
        },
        {
          "indexed": false,
          "internalType": "uint256",
          "name": "index",
          "type": "uint256"
        }
      ],
      "name": "NFTIndexUpdated",
      "type": "event"
    },
    {
      "anonymous": false,
      "inputs": [
        {
          "indexed": true,
          "internalType": "address",
          "name": "previousOwner",
          "type": "address"
        },
        {
          "indexed": true,
          "internalType": "address",
          "name": "newOwner",
          "type": "address"
        }
      ],
      "name": "OwnershipTransferred",
      "type": "event"
    },
    {
      "anonymous": false,
      "inputs": [
        {
          "indexed": true,
          "internalType": "address",
          "name": "user",
          "type": "address"
        },
        {
          "indexed": false,
          "internalType": "uint256[]",
          "name": "nftIds",
          "type": "uint256[]"
        },
        {
          "indexed": false,
          "internalType": "uint128",
          "name": "level",
          "type": "uint128"
        }
      ],
      "name": "PolishNFT",
      "type": "event"
    },
    {
      "anonymous": false,
      "inputs": [
        {
          "indexed": true,
          "internalType": "uint128",
          "name": "poolNumber",
          "type": "uint128"
        },
        {
          "indexed": false,
          "internalType": "uint256",
          "name": "index",
          "type": "uint256"
        }
      ],
      "name": "PoolIndexUpdated",
      "type": "event"
    },
    {
      "anonymous": false,
      "inputs": [
        {
          "indexed": true,
          "internalType": "address",
          "name": "user",
          "type": "address"
        },
        {
          "indexed": false,
          "internalType": "uint256[]",
          "name": "nftIds",
          "type": "uint256[]"
        },
        {
          "indexed": true,
          "internalType": "uint256",
          "name": "level",
          "type": "uint256"
        },
        {
          "indexed": false,
          "internalType": "uint256",
          "name": "amount",
          "type": "uint256"
        }
      ],
      "name": "RedeemAndClaim",
      "type": "event"
    },
    {
      "anonymous": false,
      "inputs": [
        {
          "indexed": true,
          "internalType": "address",
          "name": "user",
          "type": "address"
        },
        {
          "indexed": false,
          "internalType": "uint256[]",
          "name": "nftIds",
          "type": "uint256[]"
        },
        {
          "indexed": false,
          "internalType": "uint128",
          "name": "level",
          "type": "uint128"
        }
      ],
      "name": "Stake",
      "type": "event"
    },
    {
      "inputs": [],
      "name": "PRECISION",
      "outputs": [
        {
          "internalType": "uint8",
          "name": "",
          "type": "uint8"
        }
      ],
      "stateMutability": "view",
      "type": "function"
    },
    {
      "inputs": [
        {
          "internalType": "address",
          "name": "",
          "type": "address"
        },
        {
          "internalType": "uint128",
          "name": "",
          "type": "uint128"
        }
      ],
      "name": "balances",
      "outputs": [
        {
          "internalType": "uint256",
          "name": "",
          "type": "uint256"
        }
      ],
      "stateMutability": "view",
      "type": "function"
    },
    {
      "inputs": [
        {
          "internalType": "uint256[]",
          "name": "_ids",
          "type": "uint256[]"
        },
        {
          "internalType": "uint128",
          "name": "_level",
          "type": "uint128"
        }
      ],
      "name": "claimReward",
      "outputs": [],
      "stateMutability": "nonpayable",
      "type": "function"
    },
    {
      "inputs": [],
      "name": "cooldownTime",
      "outputs": [
        {
          "internalType": "uint256",
          "name": "",
          "type": "uint256"
        }
      ],
      "stateMutability": "view",
      "type": "function"
    },
    {
      "inputs": [],
      "name": "distributionEnd",
      "outputs": [
        {
          "internalType": "uint256",
          "name": "",
          "type": "uint256"
        }
      ],
      "stateMutability": "view",
      "type": "function"
    },
    {
      "inputs": [
        {
          "internalType": "uint128",
          "name": "",
          "type": "uint128"
        }
      ],
      "name": "emissionParameters",
      "outputs": [
        {
          "internalType": "uint64",
          "name": "coefficientX",
          "type": "uint64"
        },
        {
          "internalType": "uint64",
          "name": "coefficientY",
          "type": "uint64"
        },
        {
          "internalType": "uint64",
          "name": "coefficientZ",
          "type": "uint64"
        },
        {
          "internalType": "uint64",
          "name": "coefficientM",
          "type": "uint64"
        }
      ],
      "stateMutability": "view",
      "type": "function"
    },
    {
      "inputs": [
        {
          "internalType": "uint128",
          "name": "_level",
          "type": "uint128"
        }
      ],
      "name": "getEmissionPerSecond",
      "outputs": [
        {
          "internalType": "uint256",
          "name": "",
          "type": "uint256"
        }
      ],
      "stateMutability": "view",
      "type": "function"
    },
    {
      "inputs": [
        {
          "internalType": "uint256",
          "name": "_id",
          "type": "uint256"
        }
      ],
      "name": "getExpEarnedAndValueEarned",
      "outputs": [
        {
          "internalType": "uint256",
          "name": "",
          "type": "uint256"
        },
        {
          "internalType": "uint128",
          "name": "",
          "type": "uint128"
        }
      ],
      "stateMutability": "view",
      "type": "function"
    },
    {
      "inputs": [
        {
          "internalType": "uint256",
          "name": "nft",
          "type": "uint256"
        },
        {
          "internalType": "uint128",
          "name": "poolNumber",
          "type": "uint128"
        }
      ],
      "name": "getNFTPoolData",
      "outputs": [
        {
          "internalType": "uint256",
          "name": "",
          "type": "uint256"
        }
      ],
      "stateMutability": "view",
      "type": "function"
    },
    {
      "inputs": [
        {
          "internalType": "address",
          "name": "_user",
          "type": "address"
        },
        {
          "internalType": "uint128",
          "name": "_level",
          "type": "uint128"
        }
      ],
      "name": "getStakingNFTinALevel",
      "outputs": [
        {
          "internalType": "uint256[]",
          "name": "",
          "type": "uint256[]"
        }
      ],
      "stateMutability": "view",
      "type": "function"
    },
    {
      "inputs": [
        {
          "internalType": "uint256[]",
          "name": "_ids",
          "type": "uint256[]"
        }
      ],
      "name": "getTotalRewardsBalance",
      "outputs": [
        {
          "internalType": "uint256",
          "name": "",
          "type": "uint256"
        }
      ],
      "stateMutability": "view",
      "type": "function"
    },
    {
      "inputs": [
        {
          "internalType": "uint256",
          "name": "distributionDuration",
          "type": "uint256"
        }
      ],
      "name": "increaseDistribution",
      "outputs": [],
      "stateMutability": "nonpayable",
      "type": "function"
    },
    {
      "inputs": [
        {
          "internalType": "uint256",
          "name": "_distributionDuration",
          "type": "uint256"
        },
        {
          "internalType": "uint256",
          "name": "_cooldownTime",
          "type": "uint256"
        },
        {
          "internalType": "uint256",
          "name": "_percentageFee",
          "type": "uint256"
        },
        {
          "internalType": "contract INFTCollection",
          "name": "_nftContract",
          "type": "address"
        },
        {
          "internalType": "contract IERC20Upgradeable",
          "name": "_rewardToken",
          "type": "address"
        },
        {
          "internalType": "address",
          "name": "_receiveVault",
          "type": "address"
        },
        {
          "internalType": "address",
          "name": "_rewardsVault",
          "type": "address"
        }
      ],
      "name": "initialize",
      "outputs": [],
      "stateMutability": "nonpayable",
      "type": "function"
    },
    {
      "inputs": [
        {
          "internalType": "uint256",
          "name": "",
          "type": "uint256"
        }
      ],
      "name": "nftInfos",
      "outputs": [
        {
          "internalType": "address",
          "name": "owner",
          "type": "address"
        },
        {
          "internalType": "uint128",
          "name": "value",
          "type": "uint128"
        },
        {
          "internalType": "uint128",
          "name": "level",
          "type": "uint128"
        },
        {
          "internalType": "uint128",
          "name": "lastPolishTime",
          "type": "uint128"
        },
        {
          "internalType": "uint128",
          "name": "depositTime",
          "type": "uint128"
        }
      ],
      "stateMutability": "view",
      "type": "function"
    },
    {
      "inputs": [
        {
          "internalType": "uint256",
          "name": "",
          "type": "uint256"
        }
      ],
      "name": "nftRewardsToClaim",
      "outputs": [
        {
          "internalType": "uint256",
          "name": "",
          "type": "uint256"
        }
      ],
      "stateMutability": "view",
      "type": "function"
    },
    {
      "inputs": [
        {
          "internalType": "address",
          "name": "operator",
          "type": "address"
        },
        {
          "internalType": "address",
          "name": "from",
          "type": "address"
        },
        {
          "internalType": "uint256",
          "name": "tokenId",
          "type": "uint256"
        },
        {
          "internalType": "bytes",
          "name": "data",
          "type": "bytes"
        }
      ],
      "name": "onERC721Received",
      "outputs": [
        {
          "internalType": "bytes4",
          "name": "",
          "type": "bytes4"
        }
      ],
      "stateMutability": "nonpayable",
      "type": "function"
    },
    {
      "inputs": [],
      "name": "owner",
      "outputs": [
        {
          "internalType": "address",
          "name": "",
          "type": "address"
        }
      ],
      "stateMutability": "view",
      "type": "function"
    },
    {
      "inputs": [],
      "name": "percentageFee",
      "outputs": [
        {
          "internalType": "uint256",
          "name": "",
          "type": "uint256"
        }
      ],
      "stateMutability": "view",
      "type": "function"
    },
    {
      "inputs": [
        {
          "internalType": "uint256[]",
          "name": "_ids",
          "type": "uint256[]"
        },
        {
          "internalType": "uint128",
          "name": "_level",
          "type": "uint128"
        }
      ],
      "name": "polishNFT",
      "outputs": [],
      "stateMutability": "nonpayable",
      "type": "function"
    },
    {
      "inputs": [
        {
          "internalType": "uint128",
          "name": "",
          "type": "uint128"
        }
      ],
      "name": "poolInfos",
      "outputs": [
        {
          "internalType": "uint128",
          "name": "totalValue",
          "type": "uint128"
        },
        {
          "internalType": "uint128",
          "name": "nftCount",
          "type": "uint128"
        }
      ],
      "stateMutability": "view",
      "type": "function"
    },
    {
      "inputs": [
        {
          "internalType": "uint128",
          "name": "",
          "type": "uint128"
        }
      ],
      "name": "pools",
      "outputs": [
        {
          "internalType": "uint256",
          "name": "lastUpdateTimestamp",
          "type": "uint256"
        },
        {
          "internalType": "uint256",
          "name": "index",
          "type": "uint256"
        }
      ],
      "stateMutability": "view",
      "type": "function"
    },
    {
      "inputs": [
        {
          "internalType": "uint256[]",
          "name": "_ids",
          "type": "uint256[]"
        },
        {
          "internalType": "uint128",
          "name": "_level",
          "type": "uint128"
        }
      ],
      "name": "redeemAndClaim",
      "outputs": [],
      "stateMutability": "nonpayable",
      "type": "function"
    },
    {
      "inputs": [],
      "name": "renounceOwnership",
      "outputs": [],
      "stateMutability": "nonpayable",
      "type": "function"
    },
    {
      "inputs": [
        {
          "internalType": "uint128[]",
          "name": "_level",
          "type": "uint128[]"
        },
        {
          "internalType": "uint64[]",
          "name": "_x",
          "type": "uint64[]"
        },
        {
          "internalType": "uint64[]",
          "name": "_y",
          "type": "uint64[]"
        },
        {
          "internalType": "uint64[]",
          "name": "_z",
          "type": "uint64[]"
        },
        {
          "internalType": "uint64[]",
          "name": "_m",
          "type": "uint64[]"
        }
      ],
      "name": "setCoefficient",
      "outputs": [],
      "stateMutability": "nonpayable",
      "type": "function"
    },
    {
      "inputs": [
        {
          "internalType": "uint256",
          "name": "_cooldownTime",
          "type": "uint256"
        }
      ],
      "name": "setCooldownTime",
      "outputs": [],
      "stateMutability": "nonpayable",
      "type": "function"
    },
    {
      "inputs": [
        {
          "internalType": "uint256",
          "name": "_percentageFee",
          "type": "uint256"
        }
      ],
      "name": "setPercentageFee",
      "outputs": [],
      "stateMutability": "nonpayable",
      "type": "function"
    },
    {
      "inputs": [
        {
          "internalType": "address",
          "name": "_receiveVault",
          "type": "address"
        }
      ],
      "name": "setReceiveVault",
      "outputs": [],
      "stateMutability": "nonpayable",
      "type": "function"
    },
    {
      "inputs": [
        {
          "internalType": "contract IERC20Upgradeable",
          "name": "_rewardToken",
          "type": "address"
        }
      ],
      "name": "setRewardToken",
      "outputs": [],
      "stateMutability": "nonpayable",
      "type": "function"
    },
    {
      "inputs": [
        {
          "internalType": "address",
          "name": "_rewardsVault",
          "type": "address"
        }
      ],
      "name": "setRewardsVault",
      "outputs": [],
      "stateMutability": "nonpayable",
      "type": "function"
    },
    {
      "inputs": [
        {
          "internalType": "uint256[]",
          "name": "_ids",
          "type": "uint256[]"
        },
        {
          "internalType": "uint128",
          "name": "_level",
          "type": "uint128"
        }
      ],
      "name": "stake",
      "outputs": [],
      "stateMutability": "nonpayable",
      "type": "function"
    },
    {
      "inputs": [
        {
          "internalType": "address",
          "name": "_receiver",
          "type": "address"
        }
      ],
      "name": "transferAllRewardToken",
      "outputs": [],
      "stateMutability": "nonpayable",
      "type": "function"
    },
    {
      "inputs": [
        {
          "internalType": "address",
          "name": "newOwner",
          "type": "address"
        }
      ],
      "name": "transferOwnership",
      "outputs": [],
      "stateMutability": "nonpayable",
      "type": "function"
    }
  ],
  "bytecode": "0x608060405234801561001057600080fd5b5061761080620000216000396000f3fe608060405234801561001057600080fd5b50600436106101f05760003560e01c8063715018a61161010f578063aaf5eb68116100a2578063e482d82211610071578063e482d822146105f5578063efa90b5414610611578063f2fde38b1461062f578063f5bb3e021461064b576101f0565b8063aaf5eb681461056d578063aba7757c1461058b578063b19873ae146105a7578063b319c6b7146105d7576101f0565b80638aee8127116100de5780638aee8127146104fb5780638da5cb5b14610517578063a1215f1314610535578063a861e11314610551576101f0565b8063715018a614610487578063780a7ff0146104915780637c43d737146104af5780638a45f48e146104cb576101f0565b80634a57e1da116101875780635b93f201116101565780635b93f201146103ec5780635f7744981461041c578063663ecbcf1461044f5780636ff732011461046b576101f0565b80634a57e1da1461033b5780634bc834eb1461036c578063573cfaa0146103a057806359bcc987146103d0576101f0565b80632739a44f116101c35780632739a44f1461028e5780632e8d3e98146102aa5780633c27e8d3146102da5780633e54cadb1461030b576101f0565b806303411282146101f557806304e16ede146102115780630fc6540714610242578063150b7a021461025e575b600080fd5b61020f600480360381019061020a9190615dad565b610667565b005b61022b60048036038101906102269190616086565b6107dd565b604051610239929190616b06565b60405180910390f35b61025c6004803603810190610257919061613d565b610801565b005b61027860048036038101906102739190615dd6565b610bc5565b60405161028591906167e1565b60405180910390f35b6102a860048036038101906102a39190615fdc565b610bda565b005b6102c460048036038101906102bf9190616101565b611429565b6040516102d19190616ac2565b60405180910390f35b6102f460048036038101906102ef9190616086565b61147f565b604051610302929190616a99565b60405180910390f35b61032560048036038101906103209190615f97565b6114db565b6040516103329190616ac2565b60405180910390f35b610355600480360381019061035091906160af565b6118ff565b604051610363929190616add565b60405180910390f35b610386600480360381019061038191906160af565b611ae9565b6040516103979594939291906166df565b60405180910390f35b6103ba60048036038101906103b59190615e56565b611baf565b6040516103c791906167bf565b60405180910390f35b6103ea60048036038101906103e59190615fdc565b6120c4565b005b61040660048036038101906104019190615e56565b612b42565b6040516104139190616ac2565b60405180910390f35b61043660048036038101906104319190616086565b612b67565b6040516104469493929190616b2f565b60405180910390f35b61046960048036038101906104649190615fdc565b612be7565b005b610485600480360381019061048091906160af565b6136bc565b005b61048f613742565b005b6104996137ca565b6040516104a69190616ac2565b60405180910390f35b6104c960048036038101906104c491906160af565b6137d0565b005b6104e560048036038101906104e091906160af565b613863565b6040516104f29190616ac2565b60405180910390f35b6105156004803603810190610510919061605d565b61387b565b005b61051f6139ab565b60405161052c919061668d565b60405180910390f35b61054f600480360381019061054a91906160af565b6139d5565b005b61056b60048036038101906105669190615fdc565b613aa0565b005b610575614351565b6040516105829190616b74565b60405180910390f35b6105a560048036038101906105a09190615dad565b614356565b005b6105c160048036038101906105bc9190616086565b614486565b6040516105ce9190616ac2565b60405180910390f35b6105df61457d565b6040516105ec9190616ac2565b60405180910390f35b61060f600480360381019061060a9190615e92565b614583565b005b610619614836565b6040516106269190616ac2565b60405180910390f35b61064960048036038101906106449190615dad565b61483c565b005b61066560048036038101906106609190615dad565b614934565b005b61066f614a64565b73ffffffffffffffffffffffffffffffffffffffff1661068d6139ab565b73ffffffffffffffffffffffffffffffffffffffff16146106e3576040517f08c379a00000000000000000000000000000000000000000000000000000000081526004016106da90616979565b60405180910390fd5b6107da81606e60009054906101000a900473ffffffffffffffffffffffffffffffffffffffff1673ffffffffffffffffffffffffffffffffffffffff166370a08231306040518263ffffffff1660e01b8152600401610742919061668d565b60206040518083038186803b15801561075a57600080fd5b505afa15801561076e573d6000803e3d6000fd5b505050506040513d601f19601f8201168201806040525081019061079291906160d8565b606e60009054906101000a900473ffffffffffffffffffffffffffffffffffffffff1673ffffffffffffffffffffffffffffffffffffffff16614a6c9092919063ffffffff16565b50565b60666020528060005260406000206000915090508060000154908060010154905082565b600061080d6001614af2565b90508015610831576001600060016101000a81548160ff0219169083151502179055505b600073ffffffffffffffffffffffffffffffffffffffff168573ffffffffffffffffffffffffffffffffffffffff1614156108a1576040517f08c379a000000000000000000000000000000000000000000000000000000000815260040161089890616839565b60405180910390fd5b600073ffffffffffffffffffffffffffffffffffffffff168473ffffffffffffffffffffffffffffffffffffffff161415610911576040517f08c379a0000000000000000000000000000000000000000000000000000000008152600401610908906168d9565b60405180910390fd5b600073ffffffffffffffffffffffffffffffffffffffff168373ffffffffffffffffffffffffffffffffffffffff161415610981576040517f08c379a000000000000000000000000000000000000000000000000000000000815260040161097890616939565b60405180910390fd5b600073ffffffffffffffffffffffffffffffffffffffff168273ffffffffffffffffffffffffffffffffffffffff1614156109f1576040517f08c379a00000000000000000000000000000000000000000000000000000000081526004016109e890616999565b60405180910390fd5b612710861115610a36576040517f08c379a0000000000000000000000000000000000000000000000000000000008152600401610a2d90616a79565b60405180910390fd5b610a3e614be2565b84606f60006101000a81548173ffffffffffffffffffffffffffffffffffffffff021916908373ffffffffffffffffffffffffffffffffffffffff16021790555083606e60006101000a81548173ffffffffffffffffffffffffffffffffffffffff021916908373ffffffffffffffffffffffffffffffffffffffff16021790555082606c60006101000a81548173ffffffffffffffffffffffffffffffffffffffff021916908373ffffffffffffffffffffffffffffffffffffffff16021790555081606d60006101000a81548173ffffffffffffffffffffffffffffffffffffffff021916908373ffffffffffffffffffffffffffffffffffffffff16021790555086607081905550856071819055508742610b5c9190616c40565b6065819055508015610bbb5760008060016101000a81548160ff0219169083151502179055507f7f26b83ff96e1f2b6a682f133852f6798a09c465da95921460cefb38474024986001604051610bb291906167fc565b60405180910390a15b5050505050505050565b600063150b7a0260e01b905095945050505050565b3273ffffffffffffffffffffffffffffffffffffffff163373ffffffffffffffffffffffffffffffffffffffff1614610c48576040517f08c379a0000000000000000000000000000000000000000000000000000000008152600401610c3f90616899565b60405180910390fd5b600080606b6000846fffffffffffffffffffffffffffffffff166fffffffffffffffffffffffffffffffff1681526020019081526020016000206040518060400160405290816000820160009054906101000a90046fffffffffffffffffffffffffffffffff166fffffffffffffffffffffffffffffffff166fffffffffffffffffffffffffffffffff1681526020016000820160109054906101000a90046fffffffffffffffffffffffffffffffff166fffffffffffffffffffffffffffffffff166fffffffffffffffffffffffffffffffff1681525050905060008160000151905060008260200151905060005b87879050811015611205576000888883818110610d7e577f4e487b7100000000000000000000000000000000000000000000000000000000600052603260045260246000fd5b905060200201359050606f60009054906101000a900473ffffffffffffffffffffffffffffffffffffffff1673ffffffffffffffffffffffffffffffffffffffff166323b872dd3330846040518463ffffffff1660e01b8152600401610de6939291906166a8565b600060405180830381600087803b158015610e0057600080fd5b505af1158015610e14573d6000803e3d6000fd5b505050506000606f60009054906101000a900473ffffffffffffffffffffffffffffffffffffffff1673ffffffffffffffffffffffffffffffffffffffff1663bef5ccd8836040518263ffffffff1660e01b8152600401610e759190616ac2565b60206040518083038186803b158015610e8d57600080fd5b505afa158015610ea1573d6000803e3d6000fd5b505050506040513d601f19601f82011682018060405250810190610ec59190616204565b60ff169050876fffffffffffffffffffffffffffffffff16816fffffffffffffffffffffffffffffffff161015610f31576040517f08c379a0000000000000000000000000000000000000000000000000000000008152600401610f28906168f9565b60405180910390fd5b6000606f60009054906101000a900473ffffffffffffffffffffffffffffffffffffffff1673ffffffffffffffffffffffffffffffffffffffff16633efd73cc846040518263ffffffff1660e01b8152600401610f8e9190616ac2565b60206040518083038186803b158015610fa657600080fd5b505afa158015610fba573d6000803e3d6000fd5b505050506040513d601f19601f82011682018060405250810190610fde91906160d8565b90506000610feb82614c3b565b90508089610ff99190616bfa565b985060006040518060a001604052803373ffffffffffffffffffffffffffffffffffffffff168152602001836fffffffffffffffffffffffffffffffff1681526020018c6fffffffffffffffffffffffffffffffff168152602001426fffffffffffffffffffffffffffffffff168152602001426fffffffffffffffffffffffffffffffff168152509050806068600087815260200190815260200160002060008201518160000160006101000a81548173ffffffffffffffffffffffffffffffffffffffff021916908373ffffffffffffffffffffffffffffffffffffffff16021790555060208201518160010160006101000a8154816fffffffffffffffffffffffffffffffff02191690836fffffffffffffffffffffffffffffffff16021790555060408201518160010160106101000a8154816fffffffffffffffffffffffffffffffff02191690836fffffffffffffffffffffffffffffffff16021790555060608201518160020160006101000a8154816fffffffffffffffffffffffffffffffff02191690836fffffffffffffffffffffffffffffffff16021790555060808201518160020160106101000a8154816fffffffffffffffffffffffffffffffff02191690836fffffffffffffffffffffffffffffffff1602179055509050506111ec858c60008a8c614c5f565b50505050505080806111fd9061706e565b915050610d38565b5086869050606a60003373ffffffffffffffffffffffffffffffffffffffff1673ffffffffffffffffffffffffffffffffffffffff1681526020019081526020016000206000876fffffffffffffffffffffffffffffffff166fffffffffffffffffffffffffffffffff168152602001908152602001600020600082825461128d9190616c40565b9250508190555083836000018181516112a69190616bfa565b9150906fffffffffffffffffffffffffffffffff1690816fffffffffffffffffffffffffffffffff168152505086869050836020018181516112e89190616bfa565b9150906fffffffffffffffffffffffffffffffff1690816fffffffffffffffffffffffffffffffff168152505082606b6000876fffffffffffffffffffffffffffffffff166fffffffffffffffffffffffffffffffff16815260200190815260200160002060008201518160000160006101000a8154816fffffffffffffffffffffffffffffffff02191690836fffffffffffffffffffffffffffffffff16021790555060208201518160000160106101000a8154816fffffffffffffffffffffffffffffffff02191690836fffffffffffffffffffffffffffffffff1602179055509050503373ffffffffffffffffffffffffffffffffffffffff167f2af7fcd1c399223822bcb259c91eda30e4f212e30c40bba913f93c5960964f168888886040516114189392919061675b565b60405180910390a250505050505050565b600060666000836fffffffffffffffffffffffffffffffff166fffffffffffffffffffffffffffffffff168152602001908152602001600020600201600084815260200190815260200160002054905092915050565b606b6020528060005260406000206000915090508060000160009054906101000a90046fffffffffffffffffffffffffffffffff16908060000160109054906101000a90046fffffffffffffffffffffffffffffffff16905082565b60008060005b848490508110156118f4576000858583818110611527577f4e487b7100000000000000000000000000000000000000000000000000000000600052603260045260246000fd5b9050602002013590506000606860008381526020019081526020016000206040518060a00160405290816000820160009054906101000a900473ffffffffffffffffffffffffffffffffffffffff1673ffffffffffffffffffffffffffffffffffffffff1673ffffffffffffffffffffffffffffffffffffffff1681526020016001820160009054906101000a90046fffffffffffffffffffffffffffffffff166fffffffffffffffffffffffffffffffff166fffffffffffffffffffffffffffffffff1681526020016001820160109054906101000a90046fffffffffffffffffffffffffffffffff166fffffffffffffffffffffffffffffffff166fffffffffffffffffffffffffffffffff1681526020016002820160009054906101000a90046fffffffffffffffffffffffffffffffff166fffffffffffffffffffffffffffffffff166fffffffffffffffffffffffffffffffff1681526020016002820160109054906101000a90046fffffffffffffffffffffffffffffffff166fffffffffffffffffffffffffffffffff166fffffffffffffffffffffffffffffffff168152505090506000816040015190506000826020015190506000836080015190506000606b6000856fffffffffffffffffffffffffffffffff166fffffffffffffffffffffffffffffffff1681526020019081526020016000206040518060400160405290816000820160009054906101000a90046fffffffffffffffffffffffffffffffff166fffffffffffffffffffffffffffffffff166fffffffffffffffffffffffffffffffff1681526020016000820160109054906101000a90046fffffffffffffffffffffffffffffffff166fffffffffffffffffffffffffffffffff166fffffffffffffffffffffffffffffffff1681525050905060008160000151905060008260200151905060006040518060800160405280886fffffffffffffffffffffffffffffffff168152602001836fffffffffffffffffffffffffffffffff168152602001876fffffffffffffffffffffffffffffffff168152602001846fffffffffffffffffffffffffffffffff16815250905060006118508a83614d7d565b9050606960008b815260200190815260200160002054816118719190616c40565b9050607054866fffffffffffffffffffffffffffffffff166118939190616c40565b4210156118c9576000612710607154836118ad9190616e83565b6118b79190616c96565b905080826118c59190616f11565b9150505b808c6118d59190616c40565b9b505050505050505050505080806118ec9061706e565b9150506114e1565b508091505092915050565b6000806000606860008581526020019081526020016000206040518060a00160405290816000820160009054906101000a900473ffffffffffffffffffffffffffffffffffffffff1673ffffffffffffffffffffffffffffffffffffffff1673ffffffffffffffffffffffffffffffffffffffff1681526020016001820160009054906101000a90046fffffffffffffffffffffffffffffffff166fffffffffffffffffffffffffffffffff166fffffffffffffffffffffffffffffffff1681526020016001820160109054906101000a90046fffffffffffffffffffffffffffffffff166fffffffffffffffffffffffffffffffff166fffffffffffffffffffffffffffffffff1681526020016002820160009054906101000a90046fffffffffffffffffffffffffffffffff166fffffffffffffffffffffffffffffffff166fffffffffffffffffffffffffffffffff1681526020016002820160109054906101000a90046fffffffffffffffffffffffffffffffff166fffffffffffffffffffffffffffffffff166fffffffffffffffffffffffffffffffff16815250509050600081606001516fffffffffffffffffffffffffffffffff16905060008142611acb9190616f11565b90506000611ad882614c3b565b905081819550955050505050915091565b60686020528060005260406000206000915090508060000160009054906101000a900473ffffffffffffffffffffffffffffffffffffffff16908060010160009054906101000a90046fffffffffffffffffffffffffffffffff16908060010160109054906101000a90046fffffffffffffffffffffffffffffffff16908060020160009054906101000a90046fffffffffffffffffffffffffffffffff16908060020160109054906101000a90046fffffffffffffffffffffffffffffffff16905085565b60606000606f60009054906101000a900473ffffffffffffffffffffffffffffffffffffffff1673ffffffffffffffffffffffffffffffffffffffff166370a08231306040518263ffffffff1660e01b8152600401611c0e919061668d565b60206040518083038186803b158015611c2657600080fd5b505afa158015611c3a573d6000803e3d6000fd5b505050506040513d601f19601f82011682018060405250810190611c5e91906160d8565b90506000606a60008673ffffffffffffffffffffffffffffffffffffffff1673ffffffffffffffffffffffffffffffffffffffff1681526020019081526020016000206000856fffffffffffffffffffffffffffffffff166fffffffffffffffffffffffffffffffff16815260200190815260200160002054905060008167ffffffffffffffff811115611d1b577f4e487b7100000000000000000000000000000000000000000000000000000000600052604160045260246000fd5b604051908082528060200260200182016040528015611d495781602001602082028036833780820191505090505b5090506000821415611d60578093505050506120be565b6000805b848110156120b5576000606f60009054906101000a900473ffffffffffffffffffffffffffffffffffffffff1673ffffffffffffffffffffffffffffffffffffffff16632f745c5930846040518363ffffffff1660e01b8152600401611dcb929190616732565b60206040518083038186803b158015611de357600080fd5b505afa158015611df7573d6000803e3d6000fd5b505050506040513d601f19601f82011682018060405250810190611e1b91906160d8565b90506000606860008381526020019081526020016000206040518060a00160405290816000820160009054906101000a900473ffffffffffffffffffffffffffffffffffffffff1673ffffffffffffffffffffffffffffffffffffffff1673ffffffffffffffffffffffffffffffffffffffff1681526020016001820160009054906101000a90046fffffffffffffffffffffffffffffffff166fffffffffffffffffffffffffffffffff166fffffffffffffffffffffffffffffffff1681526020016001820160109054906101000a90046fffffffffffffffffffffffffffffffff166fffffffffffffffffffffffffffffffff166fffffffffffffffffffffffffffffffff1681526020016002820160009054906101000a90046fffffffffffffffffffffffffffffffff166fffffffffffffffffffffffffffffffff166fffffffffffffffffffffffffffffffff1681526020016002820160109054906101000a90046fffffffffffffffffffffffffffffffff166fffffffffffffffffffffffffffffffff166fffffffffffffffffffffffffffffffff168152505090508973ffffffffffffffffffffffffffffffffffffffff16816000015173ffffffffffffffffffffffffffffffffffffffff161480156120235750886fffffffffffffffffffffffffffffffff1681604001516fffffffffffffffffffffffffffffffff16145b156120a05783806120339061706e565b94505081856001866120459190616f11565b8151811061207c577f4e487b7100000000000000000000000000000000000000000000000000000000600052603260045260246000fd5b6020026020010181815250508584141561209f57849750505050505050506120be565b5b505080806120ad9061706e565b915050611d64565b50819450505050505b92915050565b3273ffffffffffffffffffffffffffffffffffffffff163373ffffffffffffffffffffffffffffffffffffffff1614612132576040517f08c379a000000000000000000000000000000000000000000000000000000000815260040161212990616899565b60405180910390fd5b600080600080606b6000866fffffffffffffffffffffffffffffffff166fffffffffffffffffffffffffffffffff1681526020019081526020016000206040518060400160405290816000820160009054906101000a90046fffffffffffffffffffffffffffffffff166fffffffffffffffffffffffffffffffff166fffffffffffffffffffffffffffffffff1681526020016000820160109054906101000a90046fffffffffffffffffffffffffffffffff166fffffffffffffffffffffffffffffffff166fffffffffffffffffffffffffffffffff1681525050905060008160000151905060008260200151905060005b898990508110156128055760008a8a8381811061226b577f4e487b7100000000000000000000000000000000000000000000000000000000600052603260045260246000fd5b9050602002013590506000606860008381526020019081526020016000206040518060a00160405290816000820160009054906101000a900473ffffffffffffffffffffffffffffffffffffffff1673ffffffffffffffffffffffffffffffffffffffff1673ffffffffffffffffffffffffffffffffffffffff1681526020016001820160009054906101000a90046fffffffffffffffffffffffffffffffff166fffffffffffffffffffffffffffffffff166fffffffffffffffffffffffffffffffff1681526020016001820160109054906101000a90046fffffffffffffffffffffffffffffffff166fffffffffffffffffffffffffffffffff166fffffffffffffffffffffffffffffffff1681526020016002820160009054906101000a90046fffffffffffffffffffffffffffffffff166fffffffffffffffffffffffffffffffff166fffffffffffffffffffffffffffffffff1681526020016002820160109054906101000a90046fffffffffffffffffffffffffffffffff166fffffffffffffffffffffffffffffffff166fffffffffffffffffffffffffffffffff1681525050905060686000838152602001908152602001600020600080820160006101000a81549073ffffffffffffffffffffffffffffffffffffffff02191690556001820160006101000a8154906fffffffffffffffffffffffffffffffff02191690556001820160106101000a8154906fffffffffffffffffffffffffffffffff02191690556002820160006101000a8154906fffffffffffffffffffffffffffffffff02191690556002820160106101000a8154906fffffffffffffffffffffffffffffffff021916905550506000816000015190508073ffffffffffffffffffffffffffffffffffffffff163373ffffffffffffffffffffffffffffffffffffffff1614612554576040517f08c379a000000000000000000000000000000000000000000000000000000000815260040161254b90616a39565b60405180910390fd5b6000826040015190508b6fffffffffffffffffffffffffffffffff16816fffffffffffffffffffffffffffffffff16146125c3576040517f08c379a00000000000000000000000000000000000000000000000000000000081526004016125ba90616a59565b60405180910390fd5b600083602001519050808a6125d89190616bfa565b995060006125e986848a858d614c5f565b905060696000878152602001908152602001600020548161260a9190616c40565b90506069600087815260200190815260200160002060009055600085608001519050607054816fffffffffffffffffffffffffffffffff1661264c9190616c40565b421015612690576000612710607154846126669190616e83565b6126709190616c96565b9050808361267e9190616f11565b9250808e61268c9190616c40565b9d50505b818e61269c9190616c40565b9d506000866060015190506000816fffffffffffffffffffffffffffffffff16426126c79190616f11565b9050606f60009054906101000a900473ffffffffffffffffffffffffffffffffffffffff1673ffffffffffffffffffffffffffffffffffffffff1663db4ba28b8a836040518363ffffffff1660e01b8152600401612726929190616b06565b600060405180830381600087803b15801561274057600080fd5b505af1158015612754573d6000803e3d6000fd5b50505050606f60009054906101000a900473ffffffffffffffffffffffffffffffffffffffff1673ffffffffffffffffffffffffffffffffffffffff166323b872dd30338c6040518463ffffffff1660e01b81526004016127b7939291906166a8565b600060405180830381600087803b1580156127d157600080fd5b505af11580156127e5573d6000803e3d6000fd5b5050505050505050505050505080806127fd9061706e565b915050612225565b50612877606d60009054906101000a900473ffffffffffffffffffffffffffffffffffffffff163388606e60009054906101000a900473ffffffffffffffffffffffffffffffffffffffff1673ffffffffffffffffffffffffffffffffffffffff16614e48909392919063ffffffff16565b61290a606d60009054906101000a900473ffffffffffffffffffffffffffffffffffffffff16606c60009054906101000a900473ffffffffffffffffffffffffffffffffffffffff1687606e60009054906101000a900473ffffffffffffffffffffffffffffffffffffffff1673ffffffffffffffffffffffffffffffffffffffff16614e48909392919063ffffffff16565b88889050606a60003373ffffffffffffffffffffffffffffffffffffffff1673ffffffffffffffffffffffffffffffffffffffff1681526020019081526020016000206000896fffffffffffffffffffffffffffffffff166fffffffffffffffffffffffffffffffff16815260200190815260200160002060008282546129919190616f11565b9250508190555083836000018181516129aa9190616edd565b9150906fffffffffffffffffffffffffffffffff1690816fffffffffffffffffffffffffffffffff168152505088889050836020018181516129ec9190616edd565b9150906fffffffffffffffffffffffffffffffff1690816fffffffffffffffffffffffffffffffff168152505082606b6000896fffffffffffffffffffffffffffffffff166fffffffffffffffffffffffffffffffff16815260200190815260200160002060008201518160000160006101000a8154816fffffffffffffffffffffffffffffffff02191690836fffffffffffffffffffffffffffffffff16021790555060208201518160000160106101000a8154816fffffffffffffffffffffffffffffffff02191690836fffffffffffffffffffffffffffffffff160217905550905050866fffffffffffffffffffffffffffffffff163373ffffffffffffffffffffffffffffffffffffffff167ffe981155bc011ab160f7378975865460b843956ee11f408af8a23396bf25ae758b8b8a604051612b2f9392919061678d565b60405180910390a3505050505050505050565b606a602052816000526040600020602052806000526040600020600091509150505481565b60676020528060005260406000206000915090508060000160009054906101000a900467ffffffffffffffff16908060000160089054906101000a900467ffffffffffffffff16908060000160109054906101000a900467ffffffffffffffff16908060000160189054906101000a900467ffffffffffffffff16905084565b3273ffffffffffffffffffffffffffffffffffffffff163373ffffffffffffffffffffffffffffffffffffffff1614612c55576040517f08c379a0000000000000000000000000000000000000000000000000000000008152600401612c4c90616899565b60405180910390fd5b600080600080606b6000866fffffffffffffffffffffffffffffffff166fffffffffffffffffffffffffffffffff1681526020019081526020016000206040518060400160405290816000820160009054906101000a90046fffffffffffffffffffffffffffffffff166fffffffffffffffffffffffffffffffff166fffffffffffffffffffffffffffffffff1681526020016000820160109054906101000a90046fffffffffffffffffffffffffffffffff166fffffffffffffffffffffffffffffffff166fffffffffffffffffffffffffffffffff1681525050905060008160000151905060008260200151905060005b8989905081101561344f5760008a8a83818110612d8e577f4e487b7100000000000000000000000000000000000000000000000000000000600052603260045260246000fd5b9050602002013590506000606860008381526020019081526020016000206040518060a00160405290816000820160009054906101000a900473ffffffffffffffffffffffffffffffffffffffff1673ffffffffffffffffffffffffffffffffffffffff1673ffffffffffffffffffffffffffffffffffffffff1681526020016001820160009054906101000a90046fffffffffffffffffffffffffffffffff166fffffffffffffffffffffffffffffffff166fffffffffffffffffffffffffffffffff1681526020016001820160109054906101000a90046fffffffffffffffffffffffffffffffff166fffffffffffffffffffffffffffffffff166fffffffffffffffffffffffffffffffff1681526020016002820160009054906101000a90046fffffffffffffffffffffffffffffffff166fffffffffffffffffffffffffffffffff166fffffffffffffffffffffffffffffffff1681526020016002820160109054906101000a90046fffffffffffffffffffffffffffffffff166fffffffffffffffffffffffffffffffff166fffffffffffffffffffffffffffffffff168152505090506000816000015190508073ffffffffffffffffffffffffffffffffffffffff163373ffffffffffffffffffffffffffffffffffffffff1614612fae576040517f08c379a0000000000000000000000000000000000000000000000000000000008152600401612fa590616a39565b60405180910390fd5b6000826040015190508b6fffffffffffffffffffffffffffffffff16816fffffffffffffffffffffffffffffffff161461301d576040517f08c379a000000000000000000000000000000000000000000000000000000000815260040161301490616859565b60405180910390fd5b600061303085838987602001518c614c5f565b90506069600086815260200190815260200160002054816130519190616c40565b90506069600086815260200190815260200160002060009055600084608001519050607054816fffffffffffffffffffffffffffffffff166130939190616c40565b4210156130d7576000612710607154846130ad9190616e83565b6130b79190616c96565b905080836130c59190616f11565b9250808d6130d39190616c40565b9c50505b818d6130e39190616c40565b9c506000856060015190506000816fffffffffffffffffffffffffffffffff164261310e9190616f11565b9050606f60009054906101000a900473ffffffffffffffffffffffffffffffffffffffff1673ffffffffffffffffffffffffffffffffffffffff1663db4ba28b89836040518363ffffffff1660e01b815260040161316d929190616b06565b600060405180830381600087803b15801561318757600080fd5b505af115801561319b573d6000803e3d6000fd5b505050506000606f60009054906101000a900473ffffffffffffffffffffffffffffffffffffffff1673ffffffffffffffffffffffffffffffffffffffff16633efd73cc8a6040518263ffffffff1660e01b81526004016131fc9190616ac2565b60206040518083038186803b15801561321457600080fd5b505afa158015613228573d6000803e3d6000fd5b505050506040513d601f19601f8201168201806040525081019061324c91906160d8565b9050600061325982614c3b565b905088602001518161326b9190616edd565b8f6132769190616bfa565b9e508089602001906fffffffffffffffffffffffffffffffff1690816fffffffffffffffffffffffffffffffff16815250504289606001906fffffffffffffffffffffffffffffffff1690816fffffffffffffffffffffffffffffffff168152505088606860008c815260200190815260200160002060008201518160000160006101000a81548173ffffffffffffffffffffffffffffffffffffffff021916908373ffffffffffffffffffffffffffffffffffffffff16021790555060208201518160010160006101000a8154816fffffffffffffffffffffffffffffffff02191690836fffffffffffffffffffffffffffffffff16021790555060408201518160010160106101000a8154816fffffffffffffffffffffffffffffffff02191690836fffffffffffffffffffffffffffffffff16021790555060608201518160020160006101000a8154816fffffffffffffffffffffffffffffffff02191690836fffffffffffffffffffffffffffffffff16021790555060808201518160020160106101000a8154816fffffffffffffffffffffffffffffffff02191690836fffffffffffffffffffffffffffffffff1602179055509050505050505050505050505080806134479061706e565b915050612d48565b506134c1606d60009054906101000a900473ffffffffffffffffffffffffffffffffffffffff163388606e60009054906101000a900473ffffffffffffffffffffffffffffffffffffffff1673ffffffffffffffffffffffffffffffffffffffff16614e48909392919063ffffffff16565b613554606d60009054906101000a900473ffffffffffffffffffffffffffffffffffffffff16606c60009054906101000a900473ffffffffffffffffffffffffffffffffffffffff1687606e60009054906101000a900473ffffffffffffffffffffffffffffffffffffffff1673ffffffffffffffffffffffffffffffffffffffff16614e48909392919063ffffffff16565b83836000018181516135669190616bfa565b9150906fffffffffffffffffffffffffffffffff1690816fffffffffffffffffffffffffffffffff168152505082606b6000896fffffffffffffffffffffffffffffffff166fffffffffffffffffffffffffffffffff16815260200190815260200160002060008201518160000160006101000a8154816fffffffffffffffffffffffffffffffff02191690836fffffffffffffffffffffffffffffffff16021790555060208201518160000160106101000a8154816fffffffffffffffffffffffffffffffff02191690836fffffffffffffffffffffffffffffffff160217905550905050866fffffffffffffffffffffffffffffffff163373ffffffffffffffffffffffffffffffffffffffff167f6fda08360cea89f4d9faf9c364a93c02b10d63cac02e3ffb38e48cbe467dc0f68b8b8a6040516136a99392919061678d565b60405180910390a3505050505050505050565b6136c4614a64565b73ffffffffffffffffffffffffffffffffffffffff166136e26139ab565b73ffffffffffffffffffffffffffffffffffffffff1614613738576040517f08c379a000000000000000000000000000000000000000000000000000000000815260040161372f90616979565b60405180910390fd5b8060708190555050565b61374a614a64565b73ffffffffffffffffffffffffffffffffffffffff166137686139ab565b73ffffffffffffffffffffffffffffffffffffffff16146137be576040517f08c379a00000000000000000000000000000000000000000000000000000000081526004016137b590616979565b60405180910390fd5b6137c86000614ed1565b565b60715481565b6137d8614a64565b73ffffffffffffffffffffffffffffffffffffffff166137f66139ab565b73ffffffffffffffffffffffffffffffffffffffff161461384c576040517f08c379a000000000000000000000000000000000000000000000000000000000815260040161384390616979565b60405180910390fd5b8060655461385a9190616c40565b60658190555050565b60696020528060005260406000206000915090505481565b613883614a64565b73ffffffffffffffffffffffffffffffffffffffff166138a16139ab565b73ffffffffffffffffffffffffffffffffffffffff16146138f7576040517f08c379a00000000000000000000000000000000000000000000000000000000081526004016138ee90616979565b60405180910390fd5b600073ffffffffffffffffffffffffffffffffffffffff168173ffffffffffffffffffffffffffffffffffffffff161415613967576040517f08c379a000000000000000000000000000000000000000000000000000000000815260040161395e906169f9565b60405180910390fd5b80606e60006101000a81548173ffffffffffffffffffffffffffffffffffffffff021916908373ffffffffffffffffffffffffffffffffffffffff16021790555050565b6000603360009054906101000a900473ffffffffffffffffffffffffffffffffffffffff16905090565b6139dd614a64565b73ffffffffffffffffffffffffffffffffffffffff166139fb6139ab565b73ffffffffffffffffffffffffffffffffffffffff1614613a51576040517f08c379a0000000000000000000000000000000000000000000000000000000008152600401613a4890616979565b60405180910390fd5b612710811115613a96576040517f08c379a0000000000000000000000000000000000000000000000000000000008152600401613a8d90616a79565b60405180910390fd5b8060718190555050565b3273ffffffffffffffffffffffffffffffffffffffff163373ffffffffffffffffffffffffffffffffffffffff1614613b0e576040517f08c379a0000000000000000000000000000000000000000000000000000000008152600401613b0590616899565b60405180910390fd5b600080606b6000846fffffffffffffffffffffffffffffffff166fffffffffffffffffffffffffffffffff1681526020019081526020016000206040518060400160405290816000820160009054906101000a90046fffffffffffffffffffffffffffffffff166fffffffffffffffffffffffffffffffff166fffffffffffffffffffffffffffffffff1681526020016000820160109054906101000a90046fffffffffffffffffffffffffffffffff166fffffffffffffffffffffffffffffffff166fffffffffffffffffffffffffffffffff1681525050905060008160000151905060008260200151905060005b878790508110156141fd576000888883818110613c44577f4e487b7100000000000000000000000000000000000000000000000000000000600052603260045260246000fd5b9050602002013590506000606860008381526020019081526020016000206040518060a00160405290816000820160009054906101000a900473ffffffffffffffffffffffffffffffffffffffff1673ffffffffffffffffffffffffffffffffffffffff1673ffffffffffffffffffffffffffffffffffffffff1681526020016001820160009054906101000a90046fffffffffffffffffffffffffffffffff166fffffffffffffffffffffffffffffffff166fffffffffffffffffffffffffffffffff1681526020016001820160109054906101000a90046fffffffffffffffffffffffffffffffff166fffffffffffffffffffffffffffffffff166fffffffffffffffffffffffffffffffff1681526020016002820160009054906101000a90046fffffffffffffffffffffffffffffffff166fffffffffffffffffffffffffffffffff166fffffffffffffffffffffffffffffffff1681526020016002820160109054906101000a90046fffffffffffffffffffffffffffffffff166fffffffffffffffffffffffffffffffff166fffffffffffffffffffffffffffffffff16815250509050600081604001519050886fffffffffffffffffffffffffffffffff16816fffffffffffffffffffffffffffffffff1614613e5c576040517f08c379a0000000000000000000000000000000000000000000000000000000008152600401613e5390616859565b60405180910390fd5b613e6d83828785602001518a614c5f565b606960008581526020019081526020016000206000828254613e8f9190616c40565b925050819055506000826060015190506000816fffffffffffffffffffffffffffffffff1642613ebf9190616f11565b9050606f60009054906101000a900473ffffffffffffffffffffffffffffffffffffffff1673ffffffffffffffffffffffffffffffffffffffff1663db4ba28b86836040518363ffffffff1660e01b8152600401613f1e929190616b06565b600060405180830381600087803b158015613f3857600080fd5b505af1158015613f4c573d6000803e3d6000fd5b505050506000606f60009054906101000a900473ffffffffffffffffffffffffffffffffffffffff1673ffffffffffffffffffffffffffffffffffffffff16633efd73cc876040518263ffffffff1660e01b8152600401613fad9190616ac2565b60206040518083038186803b158015613fc557600080fd5b505afa158015613fd9573d6000803e3d6000fd5b505050506040513d601f19601f82011682018060405250810190613ffd91906160d8565b9050600061400a82614c3b565b905085602001518161401c9190616edd565b8c6140279190616bfa565b9b508086602001906fffffffffffffffffffffffffffffffff1690816fffffffffffffffffffffffffffffffff16815250504286606001906fffffffffffffffffffffffffffffffff1690816fffffffffffffffffffffffffffffffff1681525050856068600089815260200190815260200160002060008201518160000160006101000a81548173ffffffffffffffffffffffffffffffffffffffff021916908373ffffffffffffffffffffffffffffffffffffffff16021790555060208201518160010160006101000a8154816fffffffffffffffffffffffffffffffff02191690836fffffffffffffffffffffffffffffffff16021790555060408201518160010160106101000a8154816fffffffffffffffffffffffffffffffff02191690836fffffffffffffffffffffffffffffffff16021790555060608201518160020160006101000a8154816fffffffffffffffffffffffffffffffff02191690836fffffffffffffffffffffffffffffffff16021790555060808201518160020160106101000a8154816fffffffffffffffffffffffffffffffff02191690836fffffffffffffffffffffffffffffffff1602179055509050505050505050505080806141f59061706e565b915050613bfe565b5083836000018181516142109190616bfa565b9150906fffffffffffffffffffffffffffffffff1690816fffffffffffffffffffffffffffffffff168152505082606b6000876fffffffffffffffffffffffffffffffff166fffffffffffffffffffffffffffffffff16815260200190815260200160002060008201518160000160006101000a8154816fffffffffffffffffffffffffffffffff02191690836fffffffffffffffffffffffffffffffff16021790555060208201518160000160106101000a8154816fffffffffffffffffffffffffffffffff02191690836fffffffffffffffffffffffffffffffff1602179055509050503373ffffffffffffffffffffffffffffffffffffffff167fc3dfba46610cbb0e00b2a2a48619ad3a9719f11df22032ca112368cb5361ae718888886040516143409392919061675b565b60405180910390a250505050505050565b601281565b61435e614a64565b73ffffffffffffffffffffffffffffffffffffffff1661437c6139ab565b73ffffffffffffffffffffffffffffffffffffffff16146143d2576040517f08c379a00000000000000000000000000000000000000000000000000000000081526004016143c990616979565b60405180910390fd5b600073ffffffffffffffffffffffffffffffffffffffff168173ffffffffffffffffffffffffffffffffffffffff161415614442576040517f08c379a0000000000000000000000000000000000000000000000000000000008152600401614439906169f9565b60405180910390fd5b80606c60006101000a81548173ffffffffffffffffffffffffffffffffffffffff021916908373ffffffffffffffffffffffffffffffffffffffff16021790555050565b600080606b6000846fffffffffffffffffffffffffffffffff166fffffffffffffffffffffffffffffffff1681526020019081526020016000206040518060400160405290816000820160009054906101000a90046fffffffffffffffffffffffffffffffff166fffffffffffffffffffffffffffffffff166fffffffffffffffffffffffffffffffff1681526020016000820160109054906101000a90046fffffffffffffffffffffffffffffffff166fffffffffffffffffffffffffffffffff166fffffffffffffffffffffffffffffffff168152505090506000816020015190506145748185614f97565b92505050919050565b60705481565b61458b614a64565b73ffffffffffffffffffffffffffffffffffffffff166145a96139ab565b73ffffffffffffffffffffffffffffffffffffffff16146145ff576040517f08c379a00000000000000000000000000000000000000000000000000000000081526004016145f690616979565b60405180910390fd5b878790508a8a905014801561461957508585905088889050145b801561462a57508383905086869050145b801561463b57508181905084849050145b61467a576040517f08c379a000000000000000000000000000000000000000000000000000000000815260040161467190616959565b60405180910390fd5b60005b8a8a9050811015614829576148168b8b838181106146c4577f4e487b7100000000000000000000000000000000000000000000000000000000600052603260045260246000fd5b90506020020160208101906146d99190616086565b8a8a84818110614712577f4e487b7100000000000000000000000000000000000000000000000000000000600052603260045260246000fd5b905060200201602081019061472791906161db565b898985818110614760577f4e487b7100000000000000000000000000000000000000000000000000000000600052603260045260246000fd5b905060200201602081019061477591906161db565b8888868181106147ae577f4e487b7100000000000000000000000000000000000000000000000000000000600052603260045260246000fd5b90506020020160208101906147c391906161db565b8787878181106147fc577f4e487b7100000000000000000000000000000000000000000000000000000000600052603260045260246000fd5b905060200201602081019061481191906161db565b615137565b80806148219061706e565b91505061467d565b5050505050505050505050565b60655481565b614844614a64565b73ffffffffffffffffffffffffffffffffffffffff166148626139ab565b73ffffffffffffffffffffffffffffffffffffffff16146148b8576040517f08c379a00000000000000000000000000000000000000000000000000000000081526004016148af90616979565b60405180910390fd5b600073ffffffffffffffffffffffffffffffffffffffff168173ffffffffffffffffffffffffffffffffffffffff161415614928576040517f08c379a000000000000000000000000000000000000000000000000000000000815260040161491f90616879565b60405180910390fd5b61493181614ed1565b50565b61493c614a64565b73ffffffffffffffffffffffffffffffffffffffff1661495a6139ab565b73ffffffffffffffffffffffffffffffffffffffff16146149b0576040517f08c379a00000000000000000000000000000000000000000000000000000000081526004016149a790616979565b60405180910390fd5b600073ffffffffffffffffffffffffffffffffffffffff168173ffffffffffffffffffffffffffffffffffffffff161415614a20576040517f08c379a0000000000000000000000000000000000000000000000000000000008152600401614a17906169f9565b60405180910390fd5b80606d60006101000a81548173ffffffffffffffffffffffffffffffffffffffff021916908373ffffffffffffffffffffffffffffffffffffffff16021790555050565b600033905090565b614aed8363a9059cbb60e01b8484604051602401614a8b929190616732565b604051602081830303815290604052907bffffffffffffffffffffffffffffffffffffffffffffffffffffffff19166020820180517bffffffffffffffffffffffffffffffffffffffffffffffffffffffff83818316178352505050506153c4565b505050565b60008060019054906101000a900460ff1615614b695760018260ff16148015614b215750614b1f3061548b565b155b614b60576040517f08c379a0000000000000000000000000000000000000000000000000000000008152600401614b5790616919565b60405180910390fd5b60009050614bdd565b8160ff1660008054906101000a900460ff1660ff1610614bbe576040517f08c379a0000000000000000000000000000000000000000000000000000000008152600401614bb590616919565b60405180910390fd5b816000806101000a81548160ff021916908360ff160217905550600190505b919050565b600060019054906101000a900460ff16614c31576040517f08c379a0000000000000000000000000000000000000000000000000000000008152600401614c28906169d9565b60405180910390fd5b614c396154ae565b565b60006064620186a083614c4e9190616c96565b614c589190616c40565b9050919050565b60008060666000876fffffffffffffffffffffffffffffffff166fffffffffffffffffffffffffffffffff16815260200190815260200160002090506000816002016000898152602001908152602001600020549050600080614cc489858a8961550f565b9050808314614d6d576000876fffffffffffffffffffffffffffffffff1614614d0757614d04876fffffffffffffffffffffffffffffffff1682856155d8565b91505b808460020160008c815260200190815260200160002081905550886fffffffffffffffffffffffffffffffff168a7f071b836fce05c94433890e1fa43bde325f7bf84311109f1d571c2d075f4361b483604051614d649190616ac2565b60405180910390a35b8194505050505095945050505050565b60008060006066600085600001516fffffffffffffffffffffffffffffffff166fffffffffffffffffffffffffffffffff16815260200190815260200160002090506000614dd385602001518660000151614f97565b90506000614e01836001015483856000015489606001516fffffffffffffffffffffffffffffffff16615615565b9050614e3986604001516fffffffffffffffffffffffffffffffff16828560020160008b8152602001908152602001600020546155d8565b93508394505050505092915050565b614ecb846323b872dd60e01b858585604051602401614e69939291906166a8565b604051602081830303815290604052907bffffffffffffffffffffffffffffffffffffffffffffffffffffffff19166020820180517bffffffffffffffffffffffffffffffffffffffffffffffffffffffff83818316178352505050506153c4565b50505050565b6000603360009054906101000a900473ffffffffffffffffffffffffffffffffffffffff16905081603360006101000a81548173ffffffffffffffffffffffffffffffffffffffff021916908373ffffffffffffffffffffffffffffffffffffffff1602179055508173ffffffffffffffffffffffffffffffffffffffff168173ffffffffffffffffffffffffffffffffffffffff167f8be0079c531659141344cd1fd0a4f28419497f9722a3daafe3b4186f6b6457e060405160405180910390a35050565b600080836fffffffffffffffffffffffffffffffff161415614fbc5760009050615131565b600060676000846fffffffffffffffffffffffffffffffff166fffffffffffffffffffffffffffffffff1681526020019081526020016000206040518060800160405290816000820160009054906101000a900467ffffffffffffffff1667ffffffffffffffff1667ffffffffffffffff1681526020016000820160089054906101000a900467ffffffffffffffff1667ffffffffffffffff1667ffffffffffffffff1681526020016000820160109054906101000a900467ffffffffffffffff1667ffffffffffffffff1667ffffffffffffffff1681526020016000820160189054906101000a900467ffffffffffffffff1667ffffffffffffffff1667ffffffffffffffff1681525050905061512d816000015167ffffffffffffffff16826020015167ffffffffffffffff16836040015167ffffffffffffffff16846060015167ffffffffffffffff16886fffffffffffffffffffffffffffffffff166156ba90949392919063ffffffff16565b9150505b92915050565b600060676000876fffffffffffffffffffffffffffffffff166fffffffffffffffffffffffffffffffff1681526020019081526020016000206040518060800160405290816000820160009054906101000a900467ffffffffffffffff1667ffffffffffffffff1667ffffffffffffffff1681526020016000820160089054906101000a900467ffffffffffffffff1667ffffffffffffffff1667ffffffffffffffff1681526020016000820160109054906101000a900467ffffffffffffffff1667ffffffffffffffff1667ffffffffffffffff1681526020016000820160189054906101000a900467ffffffffffffffff1667ffffffffffffffff1667ffffffffffffffff1681525050905084816000019067ffffffffffffffff16908167ffffffffffffffff168152505083816020019067ffffffffffffffff16908167ffffffffffffffff168152505082816040019067ffffffffffffffff16908167ffffffffffffffff168152505081816060019067ffffffffffffffff16908167ffffffffffffffff16815250508060676000886fffffffffffffffffffffffffffffffff166fffffffffffffffffffffffffffffffff16815260200190815260200160002060008201518160000160006101000a81548167ffffffffffffffff021916908367ffffffffffffffff16021790555060208201518160000160086101000a81548167ffffffffffffffff021916908367ffffffffffffffff16021790555060408201518160000160106101000a81548167ffffffffffffffff021916908367ffffffffffffffff16021790555060608201518160000160186101000a81548167ffffffffffffffff021916908367ffffffffffffffff160217905550905050505050505050565b6000615426826040518060400160405280602081526020017f5361666545524332303a206c6f772d6c6576656c2063616c6c206661696c65648152508573ffffffffffffffffffffffffffffffffffffffff1661583a9092919063ffffffff16565b905060008151111561548657808060200190518101906154469190616034565b615485576040517f08c379a000000000000000000000000000000000000000000000000000000000815260040161547c90616a19565b60405180910390fd5b5b505050565b6000808273ffffffffffffffffffffffffffffffffffffffff163b119050919050565b600060019054906101000a900460ff166154fd576040517f08c379a00000000000000000000000000000000000000000000000000000000081526004016154f4906169d9565b60405180910390fd5b61550d615508614a64565b614ed1565b565b60008084600101549050600085600001549050804214156155345781925050506155d0565b60006155408689614f97565b90506000615562848385896fffffffffffffffffffffffffffffffff16615615565b90508381146155bf57808860010181905550886fffffffffffffffffffffffffffffffff167fcb31ffb39c83fc617c838bbe029f1c1080f496caefb2aa9636f39b06953d6b1b826040516155b69190616ac2565b60405180910390a25b428860000181905550809450505050505b949350505050565b6000601260ff16600a6155eb9190616d1a565b82846155f79190616f11565b856156029190616e83565b61560c9190616c96565b90509392505050565b6000808414806156255750600082145b8061562f57504283145b8061563c57506065548310155b15615649578490506156b2565b6000606554421161565a574261565e565b6065545b90506000848261566e9190616f11565b90508684601260ff16600a6156839190616d1a565b838961568f9190616e83565b6156999190616e83565b6156a39190616c96565b6156ad9190616c40565b925050505b949350505050565b6000806156c8868686615852565b905060006156d8868684876158c4565b905060006156e68386615929565b905060006156f48487615971565b905060008060648c6157069190616e83565b9b506064846157159190616c40565b8c11156157a85760006064858e61572c9190616f11565b6157369190616f11565b905080866157449190616e83565b92508360646002836157569190616d65565b6157609190616c96565b61576a9190616c40565b91506064808b61577a9190616e83565b83856157869190616c96565b6157909190616c40565b61579a9190616c96565b975050505050505050615831565b60008c6064866157b89190616c40565b6157c29190616f11565b905080866157d09190616e83565b92508360646002836157e29190616d65565b6157ec9190616c96565b6157f69190616c40565b9150606482846158069190616c96565b60648c6158139190616e83565b61581d9190616f11565b6158279190616c96565b9750505050505050505b95945050505050565b606061584984846000856159d3565b90509392505050565b60008084836158619190616f11565b633b9aca0084866158729190616f11565b61587c9190616e83565b6158869190616c96565b90506158af670de0b6b3a764000082836158a09190616e83565b6158aa9190616f11565b615ae7565b816158ba9190616f11565b9150509392505050565b6000633b9aca00836158d69190616c40565b64174876e8006001846158e99190616f11565b86886158f59190616f11565b60026159019190616e83565b61590b9190616e83565b6159159190616e83565b61591f9190616c96565b9050949350505050565b6000633b9aca008361593b9190616c40565b60648460018561594b9190616f11565b6159559190616e83565b61595f9190616e83565b6159699190616c96565b905092915050565b6000662386f26fc100006002633b9aca008561598d9190616c40565b670de0b6b3a76400006001866159a39190616f11565b6159ad9190616e83565b6159b79190616c96565b6159c19190616d65565b6159cb9190616c96565b905092915050565b606082471015615a18576040517f08c379a0000000000000000000000000000000000000000000000000000000008152600401615a0f906168b9565b60405180910390fd5b615a218561548b565b615a60576040517f08c379a0000000000000000000000000000000000000000000000000000000008152600401615a57906169b9565b60405180910390fd5b6000808673ffffffffffffffffffffffffffffffffffffffff168587604051615a899190616676565b60006040518083038185875af1925050503d8060008114615ac6576040519150601f19603f3d011682016040523d82523d6000602084013e615acb565b606091505b5091509150615adb828286615b61565b92505050949350505050565b60006003821115615b4e5781905060006001600284615b069190616c96565b615b109190616c40565b90505b81811015615b48578091506002818285615b2d9190616c96565b615b379190616c40565b615b419190616c96565b9050615b13565b50615b5c565b60008214615b5b57600190505b5b919050565b60608315615b7157829050615bc1565b600083511115615b845782518084602001fd5b816040517f08c379a0000000000000000000000000000000000000000000000000000000008152600401615bb89190616817565b60405180910390fd5b9392505050565b600081359050615bd781617522565b92915050565b60008083601f840112615bef57600080fd5b8235905067ffffffffffffffff811115615c0857600080fd5b602083019150836020820283011115615c2057600080fd5b9250929050565b60008083601f840112615c3957600080fd5b8235905067ffffffffffffffff811115615c5257600080fd5b602083019150836020820283011115615c6a57600080fd5b9250929050565b60008083601f840112615c8357600080fd5b8235905067ffffffffffffffff811115615c9c57600080fd5b602083019150836020820283011115615cb457600080fd5b9250929050565b600081519050615cca81617539565b92915050565b60008083601f840112615ce257600080fd5b8235905067ffffffffffffffff811115615cfb57600080fd5b602083019150836001820283011115615d1357600080fd5b9250929050565b600081359050615d2981617550565b92915050565b600081359050615d3e81617567565b92915050565b600081359050615d538161757e565b92915050565b600081359050615d6881617595565b92915050565b600081519050615d7d81617595565b92915050565b600081359050615d92816175ac565b92915050565b600081519050615da7816175c3565b92915050565b600060208284031215615dbf57600080fd5b6000615dcd84828501615bc8565b91505092915050565b600080600080600060808688031215615dee57600080fd5b6000615dfc88828901615bc8565b9550506020615e0d88828901615bc8565b9450506040615e1e88828901615d59565b935050606086013567ffffffffffffffff811115615e3b57600080fd5b615e4788828901615cd0565b92509250509295509295909350565b60008060408385031215615e6957600080fd5b6000615e7785828601615bc8565b9250506020615e8885828601615d44565b9150509250929050565b60008060008060008060008060008060a08b8d031215615eb157600080fd5b60008b013567ffffffffffffffff811115615ecb57600080fd5b615ed78d828e01615bdd565b9a509a505060208b013567ffffffffffffffff811115615ef657600080fd5b615f028d828e01615c71565b985098505060408b013567ffffffffffffffff811115615f2157600080fd5b615f2d8d828e01615c71565b965096505060608b013567ffffffffffffffff811115615f4c57600080fd5b615f588d828e01615c71565b945094505060808b013567ffffffffffffffff811115615f7757600080fd5b615f838d828e01615c71565b92509250509295989b9194979a5092959850565b60008060208385031215615faa57600080fd5b600083013567ffffffffffffffff811115615fc457600080fd5b615fd085828601615c27565b92509250509250929050565b600080600060408486031215615ff157600080fd5b600084013567ffffffffffffffff81111561600b57600080fd5b61601786828701615c27565b9350935050602061602a86828701615d44565b9150509250925092565b60006020828403121561604657600080fd5b600061605484828501615cbb565b91505092915050565b60006020828403121561606f57600080fd5b600061607d84828501615d1a565b91505092915050565b60006020828403121561609857600080fd5b60006160a684828501615d44565b91505092915050565b6000602082840312156160c157600080fd5b60006160cf84828501615d59565b91505092915050565b6000602082840312156160ea57600080fd5b60006160f884828501615d6e565b91505092915050565b6000806040838503121561611457600080fd5b600061612285828601615d59565b925050602061613385828601615d44565b9150509250929050565b600080600080600080600060e0888a03121561615857600080fd5b60006161668a828b01615d59565b97505060206161778a828b01615d59565b96505060406161888a828b01615d59565b95505060606161998a828b01615d2f565b94505060806161aa8a828b01615d1a565b93505060a06161bb8a828b01615bc8565b92505060c06161cc8a828b01615bc8565b91505092959891949750929550565b6000602082840312156161ed57600080fd5b60006161fb84828501615d83565b91505092915050565b60006020828403121561621657600080fd5b600061622484828501615d98565b91505092915050565b6000616239838361663a565b60208301905092915050565b61624e81616f45565b82525050565b60006162608385616bcd565b93507f07ffffffffffffffffffffffffffffffffffffffffffffffffffffffffffffff83111561628f57600080fd5b6020830292506162a083858461702c565b82840190509392505050565b60006162b782616b9f565b6162c18185616bcd565b93506162cc83616b8f565b8060005b838110156162fd5781516162e4888261622d565b97506162ef83616bc0565b9250506001810190506162d0565b5085935050505092915050565b61631381616f63565b82525050565b600061632482616baa565b61632e8185616bde565b935061633e81856020860161703b565b80840191505092915050565b6163538161701a565b82525050565b600061636482616bb5565b61636e8185616be9565b935061637e81856020860161703b565b61638781617115565b840191505092915050565b600061639f601d83616be9565b91506163aa82617133565b602082019050919050565b60006163c2601683616be9565b91506163cd8261715c565b602082019050919050565b60006163e5602683616be9565b91506163f082617185565b604082019050919050565b6000616408600d83616be9565b9150616413826171d4565b602082019050919050565b600061642b602683616be9565b9150616436826171fd565b604082019050919050565b600061644e601d83616be9565b91506164598261724c565b602082019050919050565b6000616471602183616be9565b915061647c82617275565b604082019050919050565b6000616494602e83616be9565b915061649f826172c4565b604082019050919050565b60006164b7601e83616be9565b91506164c282617313565b602082019050919050565b60006164da601683616be9565b91506164e58261733c565b602082019050919050565b60006164fd602083616be9565b915061650882617365565b602082019050919050565b6000616520601e83616be9565b915061652b8261738e565b602082019050919050565b6000616543601d83616be9565b915061654e826173b7565b602082019050919050565b6000616566602b83616be9565b9150616571826173e0565b604082019050919050565b6000616589600f83616be9565b91506165948261742f565b602082019050919050565b60006165ac602a83616be9565b91506165b782617458565b604082019050919050565b60006165cf601783616be9565b91506165da826174a7565b602082019050919050565b60006165f2601683616be9565b91506165fd826174d0565b602082019050919050565b6000616615601683616be9565b9150616620826174f9565b602082019050919050565b61663481616fb3565b82525050565b61664381616fef565b82525050565b61665281616fef565b82525050565b61666181616ff9565b82525050565b6166708161700d565b82525050565b60006166828284616319565b915081905092915050565b60006020820190506166a26000830184616245565b92915050565b60006060820190506166bd6000830186616245565b6166ca6020830185616245565b6166d76040830184616649565b949350505050565b600060a0820190506166f46000830188616245565b616701602083018761662b565b61670e604083018661662b565b61671b606083018561662b565b616728608083018461662b565b9695505050505050565b60006040820190506167476000830185616245565b6167546020830184616649565b9392505050565b60006040820190508181036000830152616776818587616254565b9050616785602083018461662b565b949350505050565b600060408201905081810360008301526167a8818587616254565b90506167b76020830184616649565b949350505050565b600060208201905081810360008301526167d981846162ac565b905092915050565b60006020820190506167f6600083018461630a565b92915050565b6000602082019050616811600083018461634a565b92915050565b600060208201905081810360008301526168318184616359565b905092915050565b6000602082019050818103600083015261685281616392565b9050919050565b60006020820190508181036000830152616872816163b5565b9050919050565b60006020820190508181036000830152616892816163d8565b9050919050565b600060208201905081810360008301526168b2816163fb565b9050919050565b600060208201905081810360008301526168d28161641e565b9050919050565b600060208201905081810360008301526168f281616441565b9050919050565b6000602082019050818103600083015261691281616464565b9050919050565b6000602082019050818103600083015261693281616487565b9050919050565b60006020820190508181036000830152616952816164aa565b9050919050565b60006020820190508181036000830152616972816164cd565b9050919050565b60006020820190508181036000830152616992816164f0565b9050919050565b600060208201905081810360008301526169b281616513565b9050919050565b600060208201905081810360008301526169d281616536565b9050919050565b600060208201905081810360008301526169f281616559565b9050919050565b60006020820190508181036000830152616a128161657c565b9050919050565b60006020820190508181036000830152616a328161659f565b9050919050565b60006020820190508181036000830152616a52816165c2565b9050919050565b60006020820190508181036000830152616a72816165e5565b9050919050565b60006020820190508181036000830152616a9281616608565b9050919050565b6000604082019050616aae600083018561662b565b616abb602083018461662b565b9392505050565b6000602082019050616ad76000830184616649565b92915050565b6000604082019050616af26000830185616649565b616aff602083018461662b565b9392505050565b6000604082019050616b1b6000830185616649565b616b286020830184616649565b9392505050565b6000608082019050616b446000830187616658565b616b516020830186616658565b616b5e6040830185616658565b616b6b6060830184616658565b95945050505050565b6000602082019050616b896000830184616667565b92915050565b6000819050602082019050919050565b600081519050919050565b600081519050919050565b600081519050919050565b6000602082019050919050565b600082825260208201905092915050565b600081905092915050565b600082825260208201905092915050565b6000616c0582616fb3565b9150616c1083616fb3565b9250826fffffffffffffffffffffffffffffffff03821115616c3557616c346170b7565b5b828201905092915050565b6000616c4b82616fef565b9150616c5683616fef565b9250827fffffffffffffffffffffffffffffffffffffffffffffffffffffffffffffffff03821115616c8b57616c8a6170b7565b5b828201905092915050565b6000616ca182616fef565b9150616cac83616fef565b925082616cbc57616cbb6170e6565b5b828204905092915050565b6000808291508390505b6001851115616d1157808604811115616ced57616cec6170b7565b5b6001851615616cfc5780820291505b8081029050616d0a85617126565b9450616cd1565b94509492505050565b6000616d2582616fef565b9150616d3083616fef565b9250616d5d7fffffffffffffffffffffffffffffffffffffffffffffffffffffffffffffffff8484616db0565b905092915050565b6000616d7082616fef565b9150616d7b8361700d565b9250616da87fffffffffffffffffffffffffffffffffffffffffffffffffffffffffffffffff8484616db0565b905092915050565b600082616dc05760019050616e7c565b81616dce5760009050616e7c565b8160018114616de45760028114616dee57616e1d565b6001915050616e7c565b60ff841115616e0057616dff6170b7565b5b8360020a915084821115616e1757616e166170b7565b5b50616e7c565b5060208310610133831016604e8410600b8410161715616e525782820a905083811115616e4d57616e4c6170b7565b5b616e7c565b616e5f8484846001616cc7565b92509050818404811115616e7657616e756170b7565b5b81810290505b9392505050565b6000616e8e82616fef565b9150616e9983616fef565b9250817fffffffffffffffffffffffffffffffffffffffffffffffffffffffffffffffff0483118215151615616ed257616ed16170b7565b5b828202905092915050565b6000616ee882616fb3565b9150616ef383616fb3565b925082821015616f0657616f056170b7565b5b828203905092915050565b6000616f1c82616fef565b9150616f2783616fef565b925082821015616f3a57616f396170b7565b5b828203905092915050565b6000616f5082616fcf565b9050919050565b60008115159050919050565b60007fffffffff0000000000000000000000000000000000000000000000000000000082169050919050565b6000616f9a82616f45565b9050919050565b6000616fac82616f45565b9050919050565b60006fffffffffffffffffffffffffffffffff82169050919050565b600073ffffffffffffffffffffffffffffffffffffffff82169050919050565b6000819050919050565b600067ffffffffffffffff82169050919050565b600060ff82169050919050565b60006170258261700d565b9050919050565b82818337600083830152505050565b60005b8381101561705957808201518184015260208101905061703e565b83811115617068576000848401525b50505050565b600061707982616fef565b91507fffffffffffffffffffffffffffffffffffffffffffffffffffffffffffffffff8214156170ac576170ab6170b7565b5b600182019050919050565b7f4e487b7100000000000000000000000000000000000000000000000000000000600052601160045260246000fd5b7f4e487b7100000000000000000000000000000000000000000000000000000000600052601260045260246000fd5b6000601f19601f8301169050919050565b60008160011c9050919050565b7f494e56414c494420414444524553533a205f6e6674436f6e7472616374000000600082015250565b7f506f6c697368207468652077726f6e67207661756c7400000000000000000000600082015250565b7f4f776e61626c653a206e6577206f776e657220697320746865207a65726f206160008201527f6464726573730000000000000000000000000000000000000000000000000000602082015250565b7f4e6f7420612077616c6c65742100000000000000000000000000000000000000600082015250565b7f416464726573733a20696e73756666696369656e742062616c616e636520666f60008201527f722063616c6c0000000000000000000000000000000000000000000000000000602082015250565b7f494e56414c494420414444524553533a205f726577617264546f6b656e000000600082015250565b7f54686520726172697479206f6620746865206e667420646f65736e277420666960008201527f7400000000000000000000000000000000000000000000000000000000000000602082015250565b7f496e697469616c697a61626c653a20636f6e747261637420697320616c72656160008201527f647920696e697469616c697a6564000000000000000000000000000000000000602082015250565b7f494e56414c494420414444524553533a205f726563656976655661756c740000600082015250565b7f4e6f7420696e207468652073616d65206c656e67746800000000000000000000600082015250565b7f4f776e61626c653a2063616c6c6572206973206e6f7420746865206f776e6572600082015250565b7f494e56414c494420414444524553533a205f726577617264735661756c740000600082015250565b7f416464726573733a2063616c6c20746f206e6f6e2d636f6e7472616374000000600082015250565b7f496e697469616c697a61626c653a20636f6e7472616374206973206e6f74206960008201527f6e697469616c697a696e67000000000000000000000000000000000000000000602082015250565b7f494e56414c494420414444524553530000000000000000000000000000000000600082015250565b7f5361666545524332303a204552433230206f7065726174696f6e20646964206e60008201527f6f74207375636365656400000000000000000000000000000000000000000000602082015250565b7f596f7520646f206e6f74206f776e2074686973204e4654000000000000000000600082015250565b7f52656465656d207468652077726f6e67207661756c7400000000000000000000600082015250565b7f494e56414c49442050455243454e544147452046454500000000000000000000600082015250565b61752b81616f45565b811461753657600080fd5b50565b61754281616f57565b811461754d57600080fd5b50565b61755981616f8f565b811461756457600080fd5b50565b61757081616fa1565b811461757b57600080fd5b50565b61758781616fb3565b811461759257600080fd5b50565b61759e81616fef565b81146175a957600080fd5b50565b6175b581616ff9565b81146175c057600080fd5b50565b6175cc8161700d565b81146175d757600080fd5b5056fea2646970667358221220ae6bc8c8a78fbbeb15632dc845bafa8209316717b5f2abe856848232903ce0aa64736f6c63430008040033",
  "linkReferences": {},
  "deployedLinkReferences": {}
}