{
  "_format": "hh-sol-artifact-1",
  "contractName": "DistributionManagerNFTs",
  "sourceName": "contracts/DistributionManagerNFTs.sol",
  "abi": [
    {
      "anonymous": false,
      "inputs": [
        {
          "indexed": true,
          "internalType": "uint256",
          "name": "nft",
          "type": "uint256"
        },
        {
          "indexed": true,
          "internalType": "uint128",
          "name": "poolNumber",
          "type": "uint128"
        },
        {
          "indexed": false,
          "internalType": "uint256",
          "name": "index",
          "type": "uint256"
        }
      ],
      "name": "NFTIndexUpdated",
      "type": "event"
    },
    {
      "anonymous": false,
      "inputs": [
        {
          "indexed": true,
          "internalType": "uint128",
          "name": "poolNumber",
          "type": "uint128"
        },
        {
          "indexed": false,
          "internalType": "uint256",
          "name": "index",
          "type": "uint256"
        }
      ],
      "name": "PoolIndexUpdated",
      "type": "event"
    },
    {
      "inputs": [],
      "name": "PRECISION",
      "outputs": [
        {
          "internalType": "uint8",
          "name": "",
          "type": "uint8"
        }
      ],
      "stateMutability": "view",
      "type": "function"
    },
    {
      "inputs": [],
      "name": "distributionEnd",
      "outputs": [
        {
          "internalType": "uint256",
          "name": "",
          "type": "uint256"
        }
      ],
      "stateMutability": "view",
      "type": "function"
    },
    {
      "inputs": [
        {
          "internalType": "uint128",
          "name": "",
          "type": "uint128"
        }
      ],
      "name": "emissionParameters",
      "outputs": [
        {
          "internalType": "uint64",
          "name": "coefficientX",
          "type": "uint64"
        },
        {
          "internalType": "uint64",
          "name": "coefficientY",
          "type": "uint64"
        },
        {
          "internalType": "uint64",
          "name": "coefficientZ",
          "type": "uint64"
        },
        {
          "internalType": "uint64",
          "name": "coefficientM",
          "type": "uint64"
        }
      ],
      "stateMutability": "view",
      "type": "function"
    },
    {
      "inputs": [
        {
          "internalType": "uint256",
          "name": "nft",
          "type": "uint256"
        },
        {
          "internalType": "uint128",
          "name": "poolNumber",
          "type": "uint128"
        }
      ],
      "name": "getNFTPoolData",
      "outputs": [
        {
          "internalType": "uint256",
          "name": "",
          "type": "uint256"
        }
      ],
      "stateMutability": "view",
      "type": "function"
    },
    {
      "inputs": [
        {
          "internalType": "uint128",
          "name": "",
          "type": "uint128"
        }
      ],
      "name": "pools",
      "outputs": [
        {
          "internalType": "uint256",
          "name": "lastUpdateTimestamp",
          "type": "uint256"
        },
        {
          "internalType": "uint256",
          "name": "index",
          "type": "uint256"
        }
      ],
      "stateMutability": "view",
      "type": "function"
    }
  ],
  "bytecode": "0x608060405234801561001057600080fd5b5061043c806100206000396000f3fe608060405234801561001057600080fd5b50600436106100575760003560e01c806304e16ede1461005c5780632e8d3e981461008d5780635f774498146100bd578063aaf5eb68146100f0578063efa90b541461010e575b600080fd5b6100766004803603810190610071919061025b565b61012c565b604051610084929190610308565b60405180910390f35b6100a760048036038101906100a29190610284565b610150565b6040516100b491906102ed565b60405180910390f35b6100d760048036038101906100d2919061025b565b6101a6565b6040516100e79493929190610331565b60405180910390f35b6100f8610226565b6040516101059190610376565b60405180910390f35b61011661022b565b60405161012391906102ed565b60405180910390f35b60016020528060005260406000206000915090508060000154908060010154905082565b600060016000836fffffffffffffffffffffffffffffffff166fffffffffffffffffffffffffffffffff168152602001908152602001600020600201600084815260200190815260200160002054905092915050565b60026020528060005260406000206000915090508060000160009054906101000a900467ffffffffffffffff16908060000160089054906101000a900467ffffffffffffffff16908060000160109054906101000a900467ffffffffffffffff16908060000160189054906101000a900467ffffffffffffffff16905084565b601281565b60005481565b600081359050610240816103d8565b92915050565b600081359050610255816103ef565b92915050565b60006020828403121561026d57600080fd5b600061027b84828501610231565b91505092915050565b6000806040838503121561029757600080fd5b60006102a585828601610246565b92505060206102b685828601610231565b9150509250929050565b6102c9816103ad565b82525050565b6102d8816103b7565b82525050565b6102e7816103cb565b82525050565b600060208201905061030260008301846102c0565b92915050565b600060408201905061031d60008301856102c0565b61032a60208301846102c0565b9392505050565b600060808201905061034660008301876102cf565b61035360208301866102cf565b61036060408301856102cf565b61036d60608301846102cf565b95945050505050565b600060208201905061038b60008301846102de565b92915050565b60006fffffffffffffffffffffffffffffffff82169050919050565b6000819050919050565b600067ffffffffffffffff82169050919050565b600060ff82169050919050565b6103e181610391565b81146103ec57600080fd5b50565b6103f8816103ad565b811461040357600080fd5b5056fea264697066735822122072b0af3b1c0da18699d11c54d2648553b4c40f2dc4bcd2455fd4a01e2b2a679064736f6c63430008040033",
  "linkReferences": {},
  "deployedLinkReferences": {}
}